{
  "contractName": "STAIRToken",
  "abi": [
    {
      "inputs": [
        {
          "internalType": "uint256",
          "name": "total",
          "type": "uint256"
        }
      ],
      "stateMutability": "nonpayable",
      "type": "constructor"
    },
    {
      "anonymous": false,
      "inputs": [
        {
          "indexed": true,
          "internalType": "address",
          "name": "owner",
          "type": "address"
        },
        {
          "indexed": true,
          "internalType": "address",
          "name": "spender",
          "type": "address"
        },
        {
          "indexed": false,
          "internalType": "uint256",
          "name": "value",
          "type": "uint256"
        }
      ],
      "name": "Approval",
      "type": "event"
    },
    {
      "anonymous": false,
      "inputs": [
        {
          "indexed": true,
          "internalType": "address",
          "name": "from",
          "type": "address"
        },
        {
          "indexed": true,
          "internalType": "address",
          "name": "to",
          "type": "address"
        },
        {
          "indexed": false,
          "internalType": "uint256",
          "name": "value",
          "type": "uint256"
        }
      ],
      "name": "Transfer",
      "type": "event"
    },
    {
      "inputs": [],
      "name": "decimals",
      "outputs": [
        {
          "internalType": "uint8",
          "name": "",
          "type": "uint8"
        }
      ],
      "stateMutability": "view",
      "type": "function",
      "constant": true
    },
    {
      "inputs": [],
      "name": "name",
      "outputs": [
        {
          "internalType": "string",
          "name": "",
          "type": "string"
        }
      ],
      "stateMutability": "view",
      "type": "function",
      "constant": true
    },
    {
      "inputs": [],
      "name": "symbol",
      "outputs": [
        {
          "internalType": "string",
          "name": "",
          "type": "string"
        }
      ],
      "stateMutability": "view",
      "type": "function",
      "constant": true
    },
    {
      "inputs": [],
      "name": "totalSupply",
      "outputs": [
        {
          "internalType": "uint256",
          "name": "",
          "type": "uint256"
        }
      ],
      "stateMutability": "view",
      "type": "function",
      "constant": true
    },
    {
      "inputs": [
        {
          "internalType": "address",
          "name": "tokenOwner",
          "type": "address"
        }
      ],
      "name": "balanceOf",
      "outputs": [
        {
          "internalType": "uint256",
          "name": "",
          "type": "uint256"
        }
      ],
      "stateMutability": "view",
      "type": "function",
      "constant": true
    },
    {
      "inputs": [
        {
          "internalType": "address",
          "name": "receiver",
          "type": "address"
        },
        {
          "internalType": "uint256",
          "name": "numTokens",
          "type": "uint256"
        }
      ],
      "name": "transfer",
      "outputs": [
        {
          "internalType": "bool",
          "name": "",
          "type": "bool"
        }
      ],
      "stateMutability": "nonpayable",
      "type": "function"
    },
    {
      "inputs": [
        {
          "internalType": "address",
          "name": "delegate",
          "type": "address"
        },
        {
          "internalType": "uint256",
          "name": "numTokens",
          "type": "uint256"
        }
      ],
      "name": "approve",
      "outputs": [
        {
          "internalType": "bool",
          "name": "",
          "type": "bool"
        }
      ],
      "stateMutability": "nonpayable",
      "type": "function"
    },
    {
      "inputs": [
        {
          "internalType": "address",
          "name": "owner",
          "type": "address"
        },
        {
          "internalType": "address",
          "name": "delegate",
          "type": "address"
        }
      ],
      "name": "allowance",
      "outputs": [
        {
          "internalType": "uint256",
          "name": "",
          "type": "uint256"
        }
      ],
      "stateMutability": "view",
      "type": "function",
      "constant": true
    },
    {
      "inputs": [
        {
          "internalType": "address",
          "name": "owner",
          "type": "address"
        },
        {
          "internalType": "address",
          "name": "buyer",
          "type": "address"
        },
        {
          "internalType": "uint256",
          "name": "numTokens",
          "type": "uint256"
        }
      ],
      "name": "transferFrom",
      "outputs": [
        {
          "internalType": "bool",
          "name": "",
          "type": "bool"
        }
      ],
      "stateMutability": "nonpayable",
      "type": "function"
    },
    {
      "inputs": [
        {
          "internalType": "address",
          "name": "from",
          "type": "address"
        },
        {
          "internalType": "address",
          "name": "to",
          "type": "address"
        },
        {
          "internalType": "uint256",
          "name": "amount",
          "type": "uint256"
        }
      ],
      "name": "transfer_",
      "outputs": [
        {
          "internalType": "bool",
          "name": "",
          "type": "bool"
        }
      ],
      "stateMutability": "nonpayable",
      "type": "function"
    },
    {
      "inputs": [
        {
          "internalType": "address",
          "name": "addr",
          "type": "address"
        }
      ],
      "name": "whitelistAddress",
      "outputs": [],
      "stateMutability": "nonpayable",
      "type": "function"
    },
    {
      "inputs": [
        {
          "internalType": "address",
          "name": "pionner",
          "type": "address"
        }
      ],
      "name": "isPioneer",
      "outputs": [
        {
          "internalType": "bool",
          "name": "",
          "type": "bool"
        }
      ],
      "stateMutability": "nonpayable",
      "type": "function"
    },
    {
      "inputs": [],
      "name": "getEligibleHolders",
      "outputs": [
        {
          "internalType": "uint256",
          "name": "",
          "type": "uint256"
        }
      ],
      "stateMutability": "view",
      "type": "function",
      "constant": true
    },
    {
      "inputs": [],
      "name": "top20Tokens",
      "outputs": [
        {
          "internalType": "uint256",
          "name": "",
          "type": "uint256"
        }
      ],
      "stateMutability": "view",
      "type": "function",
      "constant": true
    },
    {
      "inputs": [],
      "name": "top50Tokens",
      "outputs": [
        {
          "internalType": "uint256",
          "name": "",
          "type": "uint256"
        }
      ],
      "stateMutability": "view",
      "type": "function",
      "constant": true
    },
    {
      "inputs": [],
      "name": "top100Tokens",
      "outputs": [
        {
          "internalType": "uint256",
          "name": "",
          "type": "uint256"
        }
      ],
      "stateMutability": "view",
      "type": "function",
      "constant": true
    },
    {
      "inputs": [],
      "name": "forceDispatch",
      "outputs": [],
      "stateMutability": "nonpayable",
      "type": "function"
    },
    {
      "inputs": [
        {
          "internalType": "address",
          "name": "addr",
          "type": "address"
        }
      ],
      "name": "isWhitelisted",
      "outputs": [
        {
          "internalType": "uint256",
          "name": "",
          "type": "uint256"
        }
      ],
      "stateMutability": "view",
      "type": "function",
      "constant": true
    },
    {
      "inputs": [],
      "name": "getPoolBalance",
      "outputs": [
        {
          "internalType": "uint256",
          "name": "",
          "type": "uint256"
        }
      ],
      "stateMutability": "view",
      "type": "function",
      "constant": true
    },
    {
      "inputs": [],
      "name": "getPoolAddress",
      "outputs": [
        {
          "internalType": "address",
          "name": "",
          "type": "address"
        }
      ],
      "stateMutability": "view",
      "type": "function",
      "constant": true
    },
    {
      "inputs": [],
      "name": "getTeamAddress",
      "outputs": [
        {
          "internalType": "address",
          "name": "",
          "type": "address"
        }
      ],
      "stateMutability": "view",
      "type": "function",
      "constant": true
    },
    {
      "inputs": [],
      "name": "getLevel",
      "outputs": [
        {
          "internalType": "uint256",
          "name": "",
          "type": "uint256"
        }
      ],
      "stateMutability": "view",
      "type": "function",
      "constant": true
    },
    {
      "inputs": [],
      "name": "getContractAddress",
      "outputs": [
        {
          "internalType": "address",
          "name": "",
          "type": "address"
        }
      ],
      "stateMutability": "view",
      "type": "function",
      "constant": true
    },
    {
      "inputs": [
        {
          "internalType": "address",
          "name": "addr",
          "type": "address"
        }
      ],
      "name": "setPoolAddress",
      "outputs": [],
      "stateMutability": "nonpayable",
      "type": "function"
    },
    {
      "inputs": [
        {
          "internalType": "bool",
          "name": "enable",
          "type": "bool"
        }
      ],
      "name": "enableCommission",
      "outputs": [],
      "stateMutability": "nonpayable",
      "type": "function"
    },
    {
      "inputs": [],
      "name": "enableCommission",
      "outputs": [
        {
          "internalType": "bool",
          "name": "",
          "type": "bool"
        }
      ],
      "stateMutability": "view",
      "type": "function",
      "constant": true
    },
    {
      "inputs": [
        {
          "internalType": "address",
          "name": "addr",
          "type": "address"
        }
      ],
      "name": "setTeamAddress",
      "outputs": [],
      "stateMutability": "nonpayable",
      "type": "function"
    },
    {
      "inputs": [
        {
          "internalType": "uint256",
          "name": "level_",
          "type": "uint256"
        }
      ],
      "name": "setLevel",
      "outputs": [],
      "stateMutability": "nonpayable",
      "type": "function"
    },
    {
      "inputs": [
        {
          "internalType": "address",
          "name": "addr",
          "type": "address"
        }
      ],
      "name": "setBalanceTracker",
      "outputs": [],
      "stateMutability": "nonpayable",
      "type": "function"
    },
    {
      "inputs": [
        {
          "internalType": "uint256",
          "name": "amount",
          "type": "uint256"
        }
      ],
      "name": "burn",
      "outputs": [],
      "stateMutability": "nonpayable",
      "type": "function"
    }
  ],
  "bytecode": "0x60806040526001600760006101000a81548160ff021916908315150217905550600a60095534801561003057600080fd5b50604051613db1380380613db18339818101604052602081101561005357600080fd5b810190808051906020019092919050505080600681905550600654600160003373ffffffffffffffffffffffffffffffffffffffff1673ffffffffffffffffffffffffffffffffffffffff16815260200190815260200160002081905550336000806101000a81548173ffffffffffffffffffffffffffffffffffffffff021916908373ffffffffffffffffffffffffffffffffffffffff16021790555050613cb0806101016000396000f3fe608060405234801561001057600080fd5b50600436106101da5760003560e01c8063598b75ad11610104578063a5985e8c116100a2578063d7d627ec11610071578063d7d627ec1461087e578063dd62ed3e1461089c578063e9e15b4f14610914578063f586c6d914610958576101da565b8063a5985e8c146107c0578063a9059cbb146107de578063abd70aa214610842578063afe7b54e14610860576101da565b80637150f119116100de5780637150f1191461067b57806395d89b4114610699578063a1a6d5fc1461071c578063a33f7f2c146107a0576101da565b8063598b75ad1461059b5780636690864e146105df57806370a0823114610623576101da565b806327a5428b1161017c5780633af32abf1161014b5780633af32abf146104a15780634119ddd4146104f9578063415665851461052957806342966c681461056d576101da565b806327a5428b146104145780632f6aa3e414610442578063313ce5671461044c57806332a2c5d01461046d576101da565b806318160ddd116101b857806318160ddd146102e4578063182d326e14610302578063197d63a11461033657806323b872dd14610390576101da565b806306fdde03146101df578063095ea7b3146102625780631406248b146102c6575b600080fd5b6101e761098c565b6040518080602001828103825283818151815260200191508051906020019080838360005b8381101561022757808201518184015260208101905061020c565b50505050905090810190601f1680156102545780820380516001836020036101000a031916815260200191505b509250505060405180910390f35b6102ae6004803603604081101561027857600080fd5b81019080803573ffffffffffffffffffffffffffffffffffffffff169060200190929190803590602001909291905050506109c5565b60405180821515815260200191505060405180910390f35b6102ce610ab7565b6040518082815260200191505060405180910390f35b6102ec610ceb565b6040518082815260200191505060405180910390f35b61030a610cf5565b604051808273ffffffffffffffffffffffffffffffffffffffff16815260200191505060405180910390f35b6103786004803603602081101561034c57600080fd5b81019080803573ffffffffffffffffffffffffffffffffffffffff169060200190929190505050610d1f565b60405180821515815260200191505060405180910390f35b6103fc600480360360608110156103a657600080fd5b81019080803573ffffffffffffffffffffffffffffffffffffffff169060200190929190803573ffffffffffffffffffffffffffffffffffffffff16906020019092919080359060200190929190505050610dc1565b60405180821515815260200191505060405180910390f35b6104406004803603602081101561042a57600080fd5b8101908080359060200190929190505050610eaf565b005b61044a610f11565b005b610454610f73565b604051808260ff16815260200191505060405180910390f35b610475610f78565b604051808273ffffffffffffffffffffffffffffffffffffffff16815260200191505060405180910390f35b6104e3600480360360208110156104b757600080fd5b81019080803573ffffffffffffffffffffffffffffffffffffffff169060200190929190505050610f80565b6040518082815260200191505060405180910390f35b6105276004803603602081101561050f57600080fd5b81019080803515159060200190929190505050610fd9565b005b61056b6004803603602081101561053f57600080fd5b81019080803573ffffffffffffffffffffffffffffffffffffffff16906020019092919050505061104e565b005b6105996004803603602081101561058357600080fd5b81019080803590602001909291905050506111b9565b005b6105dd600480360360208110156105b157600080fd5b81019080803573ffffffffffffffffffffffffffffffffffffffff1690602001909291905050506112c4565b005b610621600480360360208110156105f557600080fd5b81019080803573ffffffffffffffffffffffffffffffffffffffff169060200190929190505050611360565b005b6106656004803603602081101561063957600080fd5b81019080803573ffffffffffffffffffffffffffffffffffffffff1690602001909291905050506113fc565b6040518082815260200191505060405180910390f35b610683611445565b6040518082815260200191505060405180910390f35b6106a16114fb565b6040518080602001828103825283818151815260200191508051906020019080838360005b838110156106e15780820151818401526020810190506106c6565b50505050905090810190601f16801561070e5780820380516001836020036101000a031916815260200191505b509250505060405180910390f35b6107886004803603606081101561073257600080fd5b81019080803573ffffffffffffffffffffffffffffffffffffffff169060200190929190803573ffffffffffffffffffffffffffffffffffffffff16906020019092919080359060200190929190505050611534565b60405180821515815260200191505060405180910390f35b6107a8611816565b60405180821515815260200191505060405180910390f35b6107c861182d565b6040518082815260200191505060405180910390f35b61082a600480360360408110156107f457600080fd5b81019080803573ffffffffffffffffffffffffffffffffffffffff16906020019092919080359060200190929190505050611837565b60405180821515815260200191505060405180910390f35b61084a61189b565b6040518082815260200191505060405180910390f35b610868611904565b6040518082815260200191505060405180910390f35b610886611b38565b6040518082815260200191505060405180910390f35b6108fe600480360360408110156108b257600080fd5b81019080803573ffffffffffffffffffffffffffffffffffffffff169060200190929190803573ffffffffffffffffffffffffffffffffffffffff169060200190929190505050611d80565b6040518082815260200191505060405180910390f35b6109566004803603602081101561092a57600080fd5b81019080803573ffffffffffffffffffffffffffffffffffffffff169060200190929190505050611e07565b005b610960611f4f565b604051808273ffffffffffffffffffffffffffffffffffffffff16815260200191505060405180910390f35b6040518060400160405280600881526020017f455343414c49455200000000000000000000000000000000000000000000000081525081565b600081600560003373ffffffffffffffffffffffffffffffffffffffff1673ffffffffffffffffffffffffffffffffffffffff16815260200190815260200160002060008573ffffffffffffffffffffffffffffffffffffffff1673ffffffffffffffffffffffffffffffffffffffff168152602001908152602001600020819055508273ffffffffffffffffffffffffffffffffffffffff163373ffffffffffffffffffffffffffffffffffffffff167f8c5be1e5ebec7d5bd14f71427d1e84f3dd0314c0f7b2291e5b200ac8c7c3b925846040518082815260200191505060405180910390a36001905092915050565b600080600a60009054906101000a900473ffffffffffffffffffffffffffffffffffffffff1673ffffffffffffffffffffffffffffffffffffffff16632ab0ae22600a6040518263ffffffff1660e01b81526004018082815260200191505060206040518083038186803b158015610b2e57600080fd5b505afa158015610b42573d6000803e3d6000fd5b505050506040513d6020811015610b5857600080fd5b8101908080519060200190929190505050905060006064602860016000600760019054906101000a900473ffffffffffffffffffffffffffffffffffffffff1673ffffffffffffffffffffffffffffffffffffffff1673ffffffffffffffffffffffffffffffffffffffff168152602001908152602001600020540281610bdb57fe5b04905060008160016000600760019054906101000a900473ffffffffffffffffffffffffffffffffffffffff1673ffffffffffffffffffffffffffffffffffffffff1673ffffffffffffffffffffffffffffffffffffffff16815260200190815260200160002054039050600080610c706064610c62601488611f7990919063ffffffff16565b611fff90919063ffffffff16565b1415610c7f5760009050610ce1565b610cde610ca96064610c9b601488611f7990919063ffffffff16565b611fff90919063ffffffff16565b610cd06064610cc2603287611f7990919063ffffffff16565b611fff90919063ffffffff16565b611fff90919063ffffffff16565b90505b8094505050505090565b6000600654905090565b6000600860009054906101000a900473ffffffffffffffffffffffffffffffffffffffff16905090565b600080600090505b600380549050811015610db6578273ffffffffffffffffffffffffffffffffffffffff1660038281548110610d5857fe5b9060005260206000200160009054906101000a900473ffffffffffffffffffffffffffffffffffffffff1673ffffffffffffffffffffffffffffffffffffffff161415610da9576001915050610dbc565b8080600101915050610d27565b50600090505b919050565b6000600160008573ffffffffffffffffffffffffffffffffffffffff1673ffffffffffffffffffffffffffffffffffffffff16815260200190815260200160002054821115610e0f57600080fd5b600560008573ffffffffffffffffffffffffffffffffffffffff1673ffffffffffffffffffffffffffffffffffffffff16815260200190815260200160002060003373ffffffffffffffffffffffffffffffffffffffff1673ffffffffffffffffffffffffffffffffffffffff16815260200190815260200160002054821115610e9857600080fd5b610ea3848484611534565b50600190509392505050565b60008054906101000a900473ffffffffffffffffffffffffffffffffffffffff1673ffffffffffffffffffffffffffffffffffffffff163373ffffffffffffffffffffffffffffffffffffffff1614610f0757600080fd5b8060098190555050565b60008054906101000a900473ffffffffffffffffffffffffffffffffffffffff1673ffffffffffffffffffffffffffffffffffffffff163373ffffffffffffffffffffffffffffffffffffffff1614610f6957600080fd5b610f71612049565b565b600081565b600030905090565b6000600260008373ffffffffffffffffffffffffffffffffffffffff1673ffffffffffffffffffffffffffffffffffffffff16815260200190815260200160002060009054906101000a900460ff1660ff169050919050565b60008054906101000a900473ffffffffffffffffffffffffffffffffffffffff1673ffffffffffffffffffffffffffffffffffffffff163373ffffffffffffffffffffffffffffffffffffffff161461103157600080fd5b80600760006101000a81548160ff02191690831515021790555050565b60008054906101000a900473ffffffffffffffffffffffffffffffffffffffff1673ffffffffffffffffffffffffffffffffffffffff163373ffffffffffffffffffffffffffffffffffffffff16146110a657600080fd5b6001600260008373ffffffffffffffffffffffffffffffffffffffff1673ffffffffffffffffffffffffffffffffffffffff16815260200190815260200160002060009054906101000a900460ff1660ff16141561115c576000600260008373ffffffffffffffffffffffffffffffffffffffff1673ffffffffffffffffffffffffffffffffffffffff16815260200190815260200160002060006101000a81548160ff021916908360ff1602179055506111b6565b6001600260008373ffffffffffffffffffffffffffffffffffffffff1673ffffffffffffffffffffffffffffffffffffffff16815260200190815260200160002060006101000a81548160ff021916908360ff1602179055505b50565b60008054906101000a900473ffffffffffffffffffffffffffffffffffffffff1673ffffffffffffffffffffffffffffffffffffffff163373ffffffffffffffffffffffffffffffffffffffff161461121157600080fd5b61126381600160003373ffffffffffffffffffffffffffffffffffffffff1673ffffffffffffffffffffffffffffffffffffffff16815260200190815260200160002054613a0190919063ffffffff16565b600160003373ffffffffffffffffffffffffffffffffffffffff1673ffffffffffffffffffffffffffffffffffffffff168152602001908152602001600020819055506112bb81600654613a0190919063ffffffff16565b60068190555050565b60008054906101000a900473ffffffffffffffffffffffffffffffffffffffff1673ffffffffffffffffffffffffffffffffffffffff163373ffffffffffffffffffffffffffffffffffffffff161461131c57600080fd5b80600a60006101000a81548173ffffffffffffffffffffffffffffffffffffffff021916908373ffffffffffffffffffffffffffffffffffffffff16021790555050565b60008054906101000a900473ffffffffffffffffffffffffffffffffffffffff1673ffffffffffffffffffffffffffffffffffffffff163373ffffffffffffffffffffffffffffffffffffffff16146113b857600080fd5b80600860006101000a81548173ffffffffffffffffffffffffffffffffffffffff021916908373ffffffffffffffffffffffffffffffffffffffff16021790555050565b6000600160008373ffffffffffffffffffffffffffffffffffffffff1673ffffffffffffffffffffffffffffffffffffffff168152602001908152602001600020549050919050565b6000600a60009054906101000a900473ffffffffffffffffffffffffffffffffffffffff1673ffffffffffffffffffffffffffffffffffffffff16632ab0ae22600a6040518263ffffffff1660e01b81526004018082815260200191505060206040518083038186803b1580156114bb57600080fd5b505afa1580156114cf573d6000803e3d6000fd5b505050506040513d60208110156114e557600080fd5b8101908080519060200190929190505050905090565b6040518060400160405280600381526020017f455343000000000000000000000000000000000000000000000000000000000081525081565b600061158882600160008773ffffffffffffffffffffffffffffffffffffffff1673ffffffffffffffffffffffffffffffffffffffff16815260200190815260200160002054613a0190919063ffffffff16565b600160008673ffffffffffffffffffffffffffffffffffffffff1673ffffffffffffffffffffffffffffffffffffffff1681526020019081526020016000208190555061161d82600160008673ffffffffffffffffffffffffffffffffffffffff1673ffffffffffffffffffffffffffffffffffffffff16815260200190815260200160002054613a4b90919063ffffffff16565b600160008573ffffffffffffffffffffffffffffffffffffffff1673ffffffffffffffffffffffffffffffffffffffff168152602001908152602001600020819055508273ffffffffffffffffffffffffffffffffffffffff168473ffffffffffffffffffffffffffffffffffffffff167fddf252ad1be2c89b69c2b068fc378daa952ba7f163c4a11628f55a4df523b3ef846040518082815260200191505060405180910390a3600a60009054906101000a900473ffffffffffffffffffffffffffffffffffffffff1673ffffffffffffffffffffffffffffffffffffffff1663993ae7e9856040518263ffffffff1660e01b8152600401808273ffffffffffffffffffffffffffffffffffffffff168152602001915050600060405180830381600087803b15801561175057600080fd5b505af1158015611764573d6000803e3d6000fd5b50505050600a60009054906101000a900473ffffffffffffffffffffffffffffffffffffffff1673ffffffffffffffffffffffffffffffffffffffff1663993ae7e9846040518263ffffffff1660e01b8152600401808273ffffffffffffffffffffffffffffffffffffffff168152602001915050600060405180830381600087803b1580156117f357600080fd5b505af1158015611807573d6000803e3d6000fd5b50505050600190509392505050565b6000600760009054906101000a900460ff16905090565b6000600954905090565b6000600160003373ffffffffffffffffffffffffffffffffffffffff1673ffffffffffffffffffffffffffffffffffffffff1681526020019081526020016000205482111561188557600080fd5b611890338484611534565b506001905092915050565b600060016000600760019054906101000a900473ffffffffffffffffffffffffffffffffffffffff1673ffffffffffffffffffffffffffffffffffffffff1673ffffffffffffffffffffffffffffffffffffffff16815260200190815260200160002054905090565b600080600a60009054906101000a900473ffffffffffffffffffffffffffffffffffffffff1673ffffffffffffffffffffffffffffffffffffffff16632ab0ae22600a6040518263ffffffff1660e01b81526004018082815260200191505060206040518083038186803b15801561197b57600080fd5b505afa15801561198f573d6000803e3d6000fd5b505050506040513d60208110156119a557600080fd5b8101908080519060200190929190505050905060006064602860016000600760019054906101000a900473ffffffffffffffffffffffffffffffffffffffff1673ffffffffffffffffffffffffffffffffffffffff1673ffffffffffffffffffffffffffffffffffffffff168152602001908152602001600020540281611a2857fe5b04905060008160016000600760019054906101000a900473ffffffffffffffffffffffffffffffffffffffff1673ffffffffffffffffffffffffffffffffffffffff1673ffffffffffffffffffffffffffffffffffffffff16815260200190815260200160002054039050600080611abd6064611aaf603288611f7990919063ffffffff16565b611fff90919063ffffffff16565b1415611acc5760009050611b2e565b611b2b611af66064611ae8603288611f7990919063ffffffff16565b611fff90919063ffffffff16565b611b1d6064611b0f601287611f7990919063ffffffff16565b611fff90919063ffffffff16565b611fff90919063ffffffff16565b90505b8094505050505090565b600080600a60009054906101000a900473ffffffffffffffffffffffffffffffffffffffff1673ffffffffffffffffffffffffffffffffffffffff16632ab0ae22600a6040518263ffffffff1660e01b81526004018082815260200191505060206040518083038186803b158015611baf57600080fd5b505afa158015611bc3573d6000803e3d6000fd5b505050506040513d6020811015611bd957600080fd5b8101908080519060200190929190505050905060006064602860016000600760019054906101000a900473ffffffffffffffffffffffffffffffffffffffff1673ffffffffffffffffffffffffffffffffffffffff1673ffffffffffffffffffffffffffffffffffffffff168152602001908152602001600020540281611c5c57fe5b04905060008160016000600760019054906101000a900473ffffffffffffffffffffffffffffffffffffffff1673ffffffffffffffffffffffffffffffffffffffff1673ffffffffffffffffffffffffffffffffffffffff16815260200190815260200160002054039050600080611cd2610ab7565b90506000601e90506000611d036064611cf5601e8a611f7990919063ffffffff16565b611fff90919063ffffffff16565b1415611d125760009250611d74565b611d71611d3c6064611d2e601e8a611f7990919063ffffffff16565b611fff90919063ffffffff16565b611d636064611d55601e89611f7990919063ffffffff16565b611fff90919063ffffffff16565b611fff90919063ffffffff16565b92505b82965050505050505090565b6000600560008473ffffffffffffffffffffffffffffffffffffffff1673ffffffffffffffffffffffffffffffffffffffff16815260200190815260200160002060008373ffffffffffffffffffffffffffffffffffffffff1673ffffffffffffffffffffffffffffffffffffffff16815260200190815260200160002054905092915050565b60008054906101000a900473ffffffffffffffffffffffffffffffffffffffff1673ffffffffffffffffffffffffffffffffffffffff163373ffffffffffffffffffffffffffffffffffffffff1614611e5f57600080fd5b80600760016101000a81548173ffffffffffffffffffffffffffffffffffffffff021916908373ffffffffffffffffffffffffffffffffffffffff160217905550611ea98161104e565b600a60009054906101000a900473ffffffffffffffffffffffffffffffffffffffff1673ffffffffffffffffffffffffffffffffffffffff16632362851f826040518263ffffffff1660e01b8152600401808273ffffffffffffffffffffffffffffffffffffffff168152602001915050600060405180830381600087803b158015611f3457600080fd5b505af1158015611f48573d6000803e3d6000fd5b5050505050565b6000600760019054906101000a900473ffffffffffffffffffffffffffffffffffffffff16905090565b600080831415611f8c5760009050611ff9565b6000828402905082848281611f9d57fe5b0414611ff4576040517f08c379a0000000000000000000000000000000000000000000000000000000008152600401808060200182810382526021815260200180613c5a6021913960400191505060405180910390fd5b809150505b92915050565b600061204183836040518060400160405280601a81526020017f536166654d6174683a206469766973696f6e206279207a65726f000000000000815250613ad3565b905092915050565b6000600a60009054906101000a900473ffffffffffffffffffffffffffffffffffffffff1673ffffffffffffffffffffffffffffffffffffffff16632ab0ae22600a6040518263ffffffff1660e01b81526004018082815260200191505060206040518083038186803b1580156120bf57600080fd5b505afa1580156120d3573d6000803e3d6000fd5b505050506040513d60208110156120e957600080fd5b8101908080519060200190929190505050905060006064602860016000600760019054906101000a900473ffffffffffffffffffffffffffffffffffffffff1673ffffffffffffffffffffffffffffffffffffffff1673ffffffffffffffffffffffffffffffffffffffff16815260200190815260200160002054028161216c57fe5b04905060008160016000600760019054906101000a900473ffffffffffffffffffffffffffffffffffffffff1673ffffffffffffffffffffffffffffffffffffffff1673ffffffffffffffffffffffffffffffffffffffff1681526020019081526020016000205403905061224b8260016000600860009054906101000a900473ffffffffffffffffffffffffffffffffffffffff1673ffffffffffffffffffffffffffffffffffffffff1673ffffffffffffffffffffffffffffffffffffffff16815260200190815260200160002054613a4b90919063ffffffff16565b60016000600860009054906101000a900473ffffffffffffffffffffffffffffffffffffffff1673ffffffffffffffffffffffffffffffffffffffff1673ffffffffffffffffffffffffffffffffffffffff168152602001908152602001600020819055506123248260016000600760019054906101000a900473ffffffffffffffffffffffffffffffffffffffff1673ffffffffffffffffffffffffffffffffffffffff1673ffffffffffffffffffffffffffffffffffffffff16815260200190815260200160002054613a0190919063ffffffff16565b60016000600760019054906101000a900473ffffffffffffffffffffffffffffffffffffffff1673ffffffffffffffffffffffffffffffffffffffff1673ffffffffffffffffffffffffffffffffffffffff16815260200190815260200160002081905550600083141561239a575050506139ff565b6001831415612672576124a38160016000600a60009054906101000a900473ffffffffffffffffffffffffffffffffffffffff1673ffffffffffffffffffffffffffffffffffffffff1663c7a0eea960016040518263ffffffff1660e01b81526004018082815260200191505060206040518083038186803b15801561241f57600080fd5b505afa158015612433573d6000803e3d6000fd5b505050506040513d602081101561244957600080fd5b810190808051906020019092919050505073ffffffffffffffffffffffffffffffffffffffff1673ffffffffffffffffffffffffffffffffffffffff16815260200190815260200160002054613a4b90919063ffffffff16565b60016000600a60009054906101000a900473ffffffffffffffffffffffffffffffffffffffff1673ffffffffffffffffffffffffffffffffffffffff1663c7a0eea960016040518263ffffffff1660e01b81526004018082815260200191505060206040518083038186803b15801561251b57600080fd5b505afa15801561252f573d6000803e3d6000fd5b505050506040513d602081101561254557600080fd5b810190808051906020019092919050505073ffffffffffffffffffffffffffffffffffffffff1673ffffffffffffffffffffffffffffffffffffffff168152602001908152602001600020819055506126088160016000600760019054906101000a900473ffffffffffffffffffffffffffffffffffffffff1673ffffffffffffffffffffffffffffffffffffffff1673ffffffffffffffffffffffffffffffffffffffff16815260200190815260200160002054613a0190919063ffffffff16565b60016000600760019054906101000a900473ffffffffffffffffffffffffffffffffffffffff1673ffffffffffffffffffffffffffffffffffffffff1673ffffffffffffffffffffffffffffffffffffffff168152602001908152602001600020819055506139fb565b6002831415612b4f576127856002828161268857fe5b0460016000600a60009054906101000a900473ffffffffffffffffffffffffffffffffffffffff1673ffffffffffffffffffffffffffffffffffffffff1663c7a0eea960016040518263ffffffff1660e01b81526004018082815260200191505060206040518083038186803b15801561270157600080fd5b505afa158015612715573d6000803e3d6000fd5b505050506040513d602081101561272b57600080fd5b810190808051906020019092919050505073ffffffffffffffffffffffffffffffffffffffff1673ffffffffffffffffffffffffffffffffffffffff16815260200190815260200160002054613a4b90919063ffffffff16565b60016000600a60009054906101000a900473ffffffffffffffffffffffffffffffffffffffff1673ffffffffffffffffffffffffffffffffffffffff1663c7a0eea960016040518263ffffffff1660e01b81526004018082815260200191505060206040518083038186803b1580156127fd57600080fd5b505afa158015612811573d6000803e3d6000fd5b505050506040513d602081101561282757600080fd5b810190808051906020019092919050505073ffffffffffffffffffffffffffffffffffffffff1673ffffffffffffffffffffffffffffffffffffffff168152602001908152602001600020819055506129806002828161288357fe5b0460016000600a60009054906101000a900473ffffffffffffffffffffffffffffffffffffffff1673ffffffffffffffffffffffffffffffffffffffff1663c7a0eea960026040518263ffffffff1660e01b81526004018082815260200191505060206040518083038186803b1580156128fc57600080fd5b505afa158015612910573d6000803e3d6000fd5b505050506040513d602081101561292657600080fd5b810190808051906020019092919050505073ffffffffffffffffffffffffffffffffffffffff1673ffffffffffffffffffffffffffffffffffffffff16815260200190815260200160002054613a4b90919063ffffffff16565b60016000600a60009054906101000a900473ffffffffffffffffffffffffffffffffffffffff1673ffffffffffffffffffffffffffffffffffffffff1663c7a0eea960026040518263ffffffff1660e01b81526004018082815260200191505060206040518083038186803b1580156129f857600080fd5b505afa158015612a0c573d6000803e3d6000fd5b505050506040513d6020811015612a2257600080fd5b810190808051906020019092919050505073ffffffffffffffffffffffffffffffffffffffff1673ffffffffffffffffffffffffffffffffffffffff16815260200190815260200160002081905550612ae58160016000600760019054906101000a900473ffffffffffffffffffffffffffffffffffffffff1673ffffffffffffffffffffffffffffffffffffffff1673ffffffffffffffffffffffffffffffffffffffff16815260200190815260200160002054613a0190919063ffffffff16565b60016000600760019054906101000a900473ffffffffffffffffffffffffffffffffffffffff1673ffffffffffffffffffffffffffffffffffffffff1673ffffffffffffffffffffffffffffffffffffffff168152602001908152602001600020819055506139fa565b600060646002830281612b5e57fe5b049050612b748183613a0190919063ffffffff16565b9150600080600080612ba36064612b9560148b611f7990919063ffffffff16565b611fff90919063ffffffff16565b1415612bb25760009250612c14565b612c11612bdc6064612bce60148b611f7990919063ffffffff16565b611fff90919063ffffffff16565b612c036064612bf560328a611f7990919063ffffffff16565b611fff90919063ffffffff16565b611fff90919063ffffffff16565b92505b6000612c3d6064612c2f601e8b611f7990919063ffffffff16565b611fff90919063ffffffff16565b1415612c4c5760009150612cae565b612cab612c766064612c68601e8b611f7990919063ffffffff16565b611fff90919063ffffffff16565b612c9d6064612c8f601e8a611f7990919063ffffffff16565b611fff90919063ffffffff16565b611fff90919063ffffffff16565b91505b6000612cd76064612cc960328b611f7990919063ffffffff16565b611fff90919063ffffffff16565b1415612ce65760009050612d92565b612d8f612d5a612d136064612d0560148c611f7990919063ffffffff16565b611fff90919063ffffffff16565b612d4c612d3d6064612d2f601e8e611f7990919063ffffffff16565b611fff90919063ffffffff16565b8b613a0190919063ffffffff16565b613a0190919063ffffffff16565b612d816064612d7360128a611f7990919063ffffffff16565b611fff90919063ffffffff16565b611fff90919063ffffffff16565b90505b6000600190505b8781116139f45760648860140281612dad57fe5b0481116131b557612eb38460016000600a60009054906101000a900473ffffffffffffffffffffffffffffffffffffffff1673ffffffffffffffffffffffffffffffffffffffff1663c7a0eea9866040518263ffffffff1660e01b81526004018082815260200191505060206040518083038186803b158015612e2f57600080fd5b505afa158015612e43573d6000803e3d6000fd5b505050506040513d6020811015612e5957600080fd5b810190808051906020019092919050505073ffffffffffffffffffffffffffffffffffffffff1673ffffffffffffffffffffffffffffffffffffffff16815260200190815260200160002054613a4b90919063ffffffff16565b60016000600a60009054906101000a900473ffffffffffffffffffffffffffffffffffffffff1673ffffffffffffffffffffffffffffffffffffffff1663c7a0eea9856040518263ffffffff1660e01b81526004018082815260200191505060206040518083038186803b158015612f2a57600080fd5b505afa158015612f3e573d6000803e3d6000fd5b505050506040513d6020811015612f5457600080fd5b810190808051906020019092919050505073ffffffffffffffffffffffffffffffffffffffff1673ffffffffffffffffffffffffffffffffffffffff168152602001908152602001600020819055506130178460016000600760019054906101000a900473ffffffffffffffffffffffffffffffffffffffff1673ffffffffffffffffffffffffffffffffffffffff1673ffffffffffffffffffffffffffffffffffffffff16815260200190815260200160002054613a0190919063ffffffff16565b60016000600760019054906101000a900473ffffffffffffffffffffffffffffffffffffffff1673ffffffffffffffffffffffffffffffffffffffff1673ffffffffffffffffffffffffffffffffffffffff16815260200190815260200160002081905550600a60009054906101000a900473ffffffffffffffffffffffffffffffffffffffff1673ffffffffffffffffffffffffffffffffffffffff1663c7a0eea9826040518263ffffffff1660e01b81526004018082815260200191505060206040518083038186803b1580156130ef57600080fd5b505afa158015613103573d6000803e3d6000fd5b505050506040513d602081101561311957600080fd5b810190808051906020019092919050505073ffffffffffffffffffffffffffffffffffffffff16600760019054906101000a900473ffffffffffffffffffffffffffffffffffffffff1673ffffffffffffffffffffffffffffffffffffffff167fddf252ad1be2c89b69c2b068fc378daa952ba7f163c4a11628f55a4df523b3ef866040518082815260200191505060405180910390a36139e7565b6131e2606489601e02816131c557fe5b0460648a601402816131d357fe5b04613a4b90919063ffffffff16565b81116135e9576132e78360016000600a60009054906101000a900473ffffffffffffffffffffffffffffffffffffffff1673ffffffffffffffffffffffffffffffffffffffff1663c7a0eea9866040518263ffffffff1660e01b81526004018082815260200191505060206040518083038186803b15801561326357600080fd5b505afa158015613277573d6000803e3d6000fd5b505050506040513d602081101561328d57600080fd5b810190808051906020019092919050505073ffffffffffffffffffffffffffffffffffffffff1673ffffffffffffffffffffffffffffffffffffffff16815260200190815260200160002054613a4b90919063ffffffff16565b60016000600a60009054906101000a900473ffffffffffffffffffffffffffffffffffffffff1673ffffffffffffffffffffffffffffffffffffffff1663c7a0eea9856040518263ffffffff1660e01b81526004018082815260200191505060206040518083038186803b15801561335e57600080fd5b505afa158015613372573d6000803e3d6000fd5b505050506040513d602081101561338857600080fd5b810190808051906020019092919050505073ffffffffffffffffffffffffffffffffffffffff1673ffffffffffffffffffffffffffffffffffffffff1681526020019081526020016000208190555061344b8360016000600760019054906101000a900473ffffffffffffffffffffffffffffffffffffffff1673ffffffffffffffffffffffffffffffffffffffff1673ffffffffffffffffffffffffffffffffffffffff16815260200190815260200160002054613a0190919063ffffffff16565b60016000600760019054906101000a900473ffffffffffffffffffffffffffffffffffffffff1673ffffffffffffffffffffffffffffffffffffffff1673ffffffffffffffffffffffffffffffffffffffff16815260200190815260200160002081905550600a60009054906101000a900473ffffffffffffffffffffffffffffffffffffffff1673ffffffffffffffffffffffffffffffffffffffff1663c7a0eea9826040518263ffffffff1660e01b81526004018082815260200191505060206040518083038186803b15801561352357600080fd5b505afa158015613537573d6000803e3d6000fd5b505050506040513d602081101561354d57600080fd5b810190808051906020019092919050505073ffffffffffffffffffffffffffffffffffffffff16600760019054906101000a900473ffffffffffffffffffffffffffffffffffffffff1673ffffffffffffffffffffffffffffffffffffffff167fddf252ad1be2c89b69c2b068fc378daa952ba7f163c4a11628f55a4df523b3ef856040518082815260200191505060405180910390a36139e6565b6136e88260016000600a60009054906101000a900473ffffffffffffffffffffffffffffffffffffffff1673ffffffffffffffffffffffffffffffffffffffff1663c7a0eea9866040518263ffffffff1660e01b81526004018082815260200191505060206040518083038186803b15801561366457600080fd5b505afa158015613678573d6000803e3d6000fd5b505050506040513d602081101561368e57600080fd5b810190808051906020019092919050505073ffffffffffffffffffffffffffffffffffffffff1673ffffffffffffffffffffffffffffffffffffffff16815260200190815260200160002054613a4b90919063ffffffff16565b60016000600a60009054906101000a900473ffffffffffffffffffffffffffffffffffffffff1673ffffffffffffffffffffffffffffffffffffffff1663c7a0eea9856040518263ffffffff1660e01b81526004018082815260200191505060206040518083038186803b15801561375f57600080fd5b505afa158015613773573d6000803e3d6000fd5b505050506040513d602081101561378957600080fd5b810190808051906020019092919050505073ffffffffffffffffffffffffffffffffffffffff1673ffffffffffffffffffffffffffffffffffffffff1681526020019081526020016000208190555061384c8260016000600760019054906101000a900473ffffffffffffffffffffffffffffffffffffffff1673ffffffffffffffffffffffffffffffffffffffff1673ffffffffffffffffffffffffffffffffffffffff16815260200190815260200160002054613a0190919063ffffffff16565b60016000600760019054906101000a900473ffffffffffffffffffffffffffffffffffffffff1673ffffffffffffffffffffffffffffffffffffffff1673ffffffffffffffffffffffffffffffffffffffff16815260200190815260200160002081905550600a60009054906101000a900473ffffffffffffffffffffffffffffffffffffffff1673ffffffffffffffffffffffffffffffffffffffff1663c7a0eea9826040518263ffffffff1660e01b81526004018082815260200191505060206040518083038186803b15801561392457600080fd5b505afa158015613938573d6000803e3d6000fd5b505050506040513d602081101561394e57600080fd5b810190808051906020019092919050505073ffffffffffffffffffffffffffffffffffffffff16600760019054906101000a900473ffffffffffffffffffffffffffffffffffffffff1673ffffffffffffffffffffffffffffffffffffffff167fddf252ad1be2c89b69c2b068fc378daa952ba7f163c4a11628f55a4df523b3ef846040518082815260200191505060405180910390a35b5b8080600101915050612d99565b50505050505b5b5050505b565b6000613a4383836040518060400160405280601e81526020017f536166654d6174683a207375627472616374696f6e206f766572666c6f770000815250613b99565b905092915050565b600080828401905083811015613ac9576040517f08c379a000000000000000000000000000000000000000000000000000000000815260040180806020018281038252601b8152602001807f536166654d6174683a206164646974696f6e206f766572666c6f77000000000081525060200191505060405180910390fd5b8091505092915050565b60008083118290613b7f576040517f08c379a00000000000000000000000000000000000000000000000000000000081526004018080602001828103825283818151815260200191508051906020019080838360005b83811015613b44578082015181840152602081019050613b29565b50505050905090810190601f168015613b715780820380516001836020036101000a031916815260200191505b509250505060405180910390fd5b506000838581613b8b57fe5b049050809150509392505050565b6000838311158290613c46576040517f08c379a00000000000000000000000000000000000000000000000000000000081526004018080602001828103825283818151815260200191508051906020019080838360005b83811015613c0b578082015181840152602081019050613bf0565b50505050905090810190601f168015613c385780820380516001836020036101000a031916815260200191505b509250505060405180910390fd5b506000838503905080915050939250505056fe536166654d6174683a206d756c7469706c69636174696f6e206f766572666c6f77a264697066735822122073866e817be781ad50ef20a6d239ce93729b31c87d62edfed21be9326e9def9d64736f6c63430007030033",
  "immutableReferences": {},
  "source": "pragma solidity 0.7.3;\r\n\r\nimport \"./IERC20.sol\";\r\nimport \"./SafeMath.sol\";\r\n\r\n\r\ncontract STAIRToken is IERC20 {\r\n    \r\n    address owner;\r\n       modifier onlyOwner {\r\n        require(\r\n            msg.sender == owner\r\n        );\r\n        _;\r\n    }\r\n    \r\n    string public constant name = \"ESCALIER\";\r\n    string public constant symbol = \"ESC\";\r\n    uint8 public constant decimals = 0;\r\n\r\n\r\n \r\n\r\n\r\n    mapping(address => uint256) balances;\r\n    mapping(address => uint8) whitelist;\r\n    address[] pioneers;\r\n    address[] holders;\r\n    \r\n    mapping(address => mapping (address => uint256)) allowed;\r\n\r\n    uint256 totalSupply_;\r\n    \r\n    \r\n    uint256 constant poolCommission = 10;\r\n    uint256 constant teamShare = 40;\r\n    uint256 constant holderShare = 60;\r\n    uint256 constant pioneerShare = 3; \r\n    uint256 constant minimumHolding = 10;\r\n    \r\n    bool commissionEnabled = true;\r\n    address poolAddress;\r\n    address teamAddress;\r\n    uint256  level = 10;  \r\n    \r\n   \r\n\r\n    using SafeMath for uint256;\r\n    \r\n    BalanceTrackerI balanceTracker;\r\n\r\n\r\n   constructor(uint256 total\r\n  // , address poolAddress_ , address teamAddress_, uint256 level_\r\n   ) public {\r\n    totalSupply_ = total;\r\n    balances[msg.sender] = totalSupply_;\r\n    \r\n    owner = msg.sender;\r\n    //balanceTracker.makeAddressIneligible(msg.sender);\r\n    //level =  level_;\r\n    //poolAddress = poolAddress_;\r\n    //teamAddress = teamAddress_;\r\n    }\r\n\r\n    function totalSupply() public override view returns (uint256) {\r\n    return totalSupply_;\r\n    }\r\n\r\n    function balanceOf(address tokenOwner) public override view returns (uint256) {\r\n        return balances[tokenOwner];\r\n    }\r\n\r\n    function transfer(address receiver, uint256 numTokens) public override returns (bool) {\r\n        require(numTokens <= balances[msg.sender]);\r\n         \r\n        transfer_(msg.sender, receiver, numTokens);\r\n        /*\r\n        if(commissionEnabled && whitelist[receiver]!=1 && whitelist[msg.sender]!=1 ){\r\n            uint256 userTokens = numTokens * (100-poolCommission)/100;\r\n            uint256 poolTokens = numTokens  * (poolCommission)/100;\r\n            balances[msg.sender] = balances[msg.sender].sub(numTokens);\r\n            balances[receiver] = balances[receiver].add(userTokens);\r\n            balances[poolAddress] = balances[poolAddress].add(poolTokens);\r\n            emit Transfer(msg.sender, receiver, userTokens);\r\n            emit Transfer(msg.sender, poolAddress, poolTokens);\r\n            }\r\n        else {\r\n             balances[msg.sender] = balances[msg.sender].sub(numTokens);\r\n             balances[receiver] = balances[receiver].add(numTokens);\r\n            emit Transfer(msg.sender, receiver, numTokens);\r\n        }\r\n        */\r\n        \r\n        //pool \r\n     //   addOwner(receiver);\r\n        //if(balances[poolAddress] >= level) poolDispatch();\r\n        \r\n        return true;\r\n    }\r\n\r\n    \r\n    function approve(address delegate, uint256 numTokens) public override returns (bool) {\r\n        allowed[msg.sender][delegate] = numTokens;\r\n        emit Approval(msg.sender, delegate, numTokens);\r\n        return true;\r\n    }\r\n\r\n    function allowance(address owner, address delegate) public override view returns (uint) {\r\n        return allowed[owner][delegate];\r\n    }\r\n\r\n    function transferFrom(address owner, address buyer, uint256 numTokens) public override returns (bool) {\r\n        require(numTokens <= balances[owner]);\r\n        require(numTokens <= allowed[owner][msg.sender]);\r\n        \r\n        transfer_(owner, buyer, numTokens);\r\n        \r\n        return true;\r\n    }\r\n    \r\n    //Overrides the superclass implementation to handle custom logic\r\n    //such as taking fees, burning tokens, and supplying liquidity to PancakeSwap\r\n    \r\n    function transfer_(address from, address to, uint256 amount) public returns(bool){\r\n        \r\n        balances[from] = balances[from].sub(amount);\r\n        balances[to] = balances[to].add(amount);\r\n        emit Transfer(from, to, amount);\r\n        \r\n        balanceTracker.updateUserBalance(from);\r\n        balanceTracker.updateUserBalance(to);\r\n     \r\n        return true;\r\n        \r\n    }\r\n    function whitelistAddress(address addr) public onlyOwner{\r\n        if(whitelist[addr]==1)\r\n        whitelist[addr] = 0;\r\n        else \r\n        whitelist[addr]=1;\r\n    }\r\n    \r\n    \r\n    \r\n    function addOwner(address newOwner) private{\r\n        for (uint i=0; i<holders.length; i++) {\r\n            if(holders[i] == newOwner) return;\r\n        }\r\n        holders.push(newOwner);\r\n    }\r\n    \r\n    function addPioneer(address newPioneer) private{\r\n        for (uint i=0; i<pioneers.length; i++) {\r\n            if(pioneers[i] == newPioneer) return;\r\n        }\r\n        pioneers.push(newPioneer);\r\n    }\r\n    \r\n    function isPioneer(address pionner) public returns(bool){\r\n        for (uint i=0; i<pioneers.length; i++) {\r\n            if(pioneers[i] == pionner) return true;\r\n        }\r\n        return false;\r\n    }\r\n    \r\n    \r\n    function getEligibleHolders() public view returns(uint256){\r\n        return balanceTracker.treeAbove(minimumHolding);\r\n    }\r\n\r\n    //TEMP \r\n    function top20Tokens() public view returns(uint256){\r\n        uint256 eligibleHolders = balanceTracker.treeAbove(minimumHolding);\r\n        uint256 teamTokens = balances[ poolAddress ]*teamShare/100;\r\n        uint256 holderTokens = balances[poolAddress] - teamTokens;\r\n        uint256 top20Tokens;\r\n            if (eligibleHolders.mul(20).div(100)==0)\r\n                top20Tokens = 0;\r\n            \r\n            else\r\n                top20Tokens = (holderTokens.mul(50).div(100)).div(eligibleHolders.mul(20).div(100)); \r\n           \r\n           return top20Tokens;\r\n    }\r\n    //TEMP \r\n    function top50Tokens() public view returns(uint256){\r\n        uint256 eligibleHolders = balanceTracker.treeAbove(minimumHolding);\r\n        uint256 teamTokens = balances[ poolAddress ]*teamShare/100;\r\n        uint256 holderTokens = balances[poolAddress] - teamTokens;\r\n        uint256 top50Tokens;\r\n        uint256 top20Tokens = top20Tokens();\r\n        uint256 percent = 30;\r\n        \r\n         \r\n            if (eligibleHolders.mul(30).div(100)==0)\r\n                top50Tokens = 0;\r\n            \r\n            else\r\n                top50Tokens = (holderTokens.mul(30).div(100)).div(eligibleHolders.mul(30).div(100)); \r\n\r\n            return top50Tokens;\r\n           \r\n    }\r\n    //TEMP \r\n    function top100Tokens() public view returns(uint256){\r\n        uint256 eligibleHolders = balanceTracker.treeAbove(minimumHolding);\r\n        uint256 teamTokens = balances[ poolAddress ]*teamShare/100;\r\n        uint256 holderTokens = balances[poolAddress] - teamTokens;\r\n        uint256 top100Tokens;\r\n            if (eligibleHolders.mul(50).div(100)==0)\r\n                top100Tokens = 0;\r\n            \r\n            else\r\n                top100Tokens = (holderTokens.mul(18).div(100)).div(eligibleHolders.mul(50).div(100)); \r\n           \r\n           return top100Tokens;\r\n    }\r\n\r\n \r\n    \r\n    //toupdate\r\n    function poolDispatch() private{\r\n       \r\n        uint256 eligibleHolders = balanceTracker.treeAbove(minimumHolding);\r\n        uint256 teamTokens = balances[ poolAddress ]*teamShare/100;\r\n        uint256 holderTokens = balances[poolAddress] - teamTokens;\r\n        \r\n        \r\n        balances[teamAddress] =  balances[teamAddress].add(teamTokens);\r\n        balances[poolAddress] =  balances[ poolAddress ].sub( teamTokens );\r\n        \r\n        if(eligibleHolders == 0) return;\r\n        \r\n        else if(eligibleHolders == 1){\r\n            balances[balanceTracker.getUserAtRank(1)] = balances[balanceTracker.getUserAtRank(1)].add(holderTokens);\r\n            balances[poolAddress] = balances[poolAddress].sub(holderTokens);\r\n        }\r\n        \r\n        else if(eligibleHolders ==2){\r\n            balances[balanceTracker.getUserAtRank(1)] = balances[balanceTracker.getUserAtRank(1)].add(holderTokens/2);\r\n            balances[balanceTracker.getUserAtRank(2)] = balances[balanceTracker.getUserAtRank(2)].add(holderTokens/2);\r\n            balances[poolAddress] = balances[poolAddress].sub(holderTokens);\r\n        \r\n        }\r\n        else{\r\n             uint256 pioneersTokens= holderTokens*2/100;\r\n             holderTokens = holderTokens.sub(pioneersTokens);\r\n             \r\n             //Calculate token alocation\r\n            uint256 top20Tokens;\r\n            uint256 top50Tokens;\r\n            uint256 top100Tokens ;\r\n\r\n            if (eligibleHolders.mul(20).div(100)==0)\r\n                top20Tokens = 0;\r\n            else\r\n                top20Tokens = (holderTokens.mul(50).div(100)).div(eligibleHolders.mul(20).div(100)); \r\n\r\n             if (eligibleHolders.mul(30).div(100)==0)\r\n                top50Tokens = 0;\r\n            else\r\n                top50Tokens = (holderTokens.mul(30).div(100)).div(eligibleHolders.mul(30).div(100)); \r\n\r\n             if (eligibleHolders.mul(50).div(100)==0)\r\n                top100Tokens = 0;\r\n            else\r\n                top100Tokens = (holderTokens.mul(18).div(100)).div(eligibleHolders.sub(eligibleHolders.mul(30).div(100)).sub(eligibleHolders.mul(20).div(100))); \r\n            \r\n             \r\n              \r\n            for (uint256 i=1; i<=eligibleHolders; i++) {\r\n                 \r\n                /*\r\n                if(isPioneer(balanceTracker.getUserAtRank(i))){\r\n                    balances[balanceTracker.getUserAtRank(i)] = balances[balanceTracker.getUserAtRank(i)].add( pioneersTokens / pioneers.length );\r\n                    balances[poolAddress] =  balances[ poolAddress ].sub( pioneersTokens /  pioneers.length );\r\n                    emit Transfer(poolAddress, balanceTracker.getUserAtRank(i), pioneersTokens /  pioneers.length);\r\n                }\r\n                */\r\n                \r\n                if(i <= (20 * eligibleHolders)/100 ){\r\n                    \r\n                    balances[balanceTracker.getUserAtRank(i)] = balances[balanceTracker.getUserAtRank(i)].add( top20Tokens );\r\n                    balances[poolAddress] =  balances[ poolAddress ].sub( top20Tokens );\r\n                    emit Transfer(poolAddress, balanceTracker.getUserAtRank(i), top20Tokens);\r\n                    \r\n                }\r\n                else if(i <= ((20 * eligibleHolders)/100).add( (30 * eligibleHolders)/100) ){\r\n\r\n                    balances[balanceTracker.getUserAtRank(i)] = balances[balanceTracker.getUserAtRank(i)].add( top50Tokens );\r\n                    balances[poolAddress] =  balances[ poolAddress ].sub( top50Tokens );\r\n                    emit Transfer(poolAddress, balanceTracker.getUserAtRank(i), top50Tokens);\r\n                }\r\n                else{\r\n\r\n                    balances[balanceTracker.getUserAtRank(i)] = balances[balanceTracker.getUserAtRank(i)].add( top100Tokens );\r\n                    balances[poolAddress] =  balances[ poolAddress ].sub( top100Tokens );\r\n                    emit Transfer(poolAddress, balanceTracker.getUserAtRank(i), top100Tokens);\r\n                }\r\n                \r\n                \r\n \r\n                     \r\n            }\r\n        }\r\n\r\n        \r\n    }\r\n    \r\n    function forceDispatch() public onlyOwner{\r\n        poolDispatch();\r\n        \r\n    }\r\n        //getters\r\n    \r\n    function isWhitelisted(address addr) public view returns (uint256){\r\n        return whitelist[addr];\r\n         \r\n    }\r\n    \r\n    function getPoolBalance() public  view returns (uint256) {\r\n    return balances[poolAddress];\r\n    }\r\n    \r\n    function getPoolAddress() public  view returns (address) {\r\n    return poolAddress;\r\n    }\r\n    \r\n    function getTeamAddress() public  view returns (address) {\r\n    return teamAddress;\r\n    }\r\n    \r\n    function getLevel() public  view returns (uint256) {\r\n    return level;\r\n    }\r\n    \r\n    function enableCommission() public view returns(bool){\r\n        return commissionEnabled;\r\n    }\r\n    \r\n    function getContractAddress() public  view returns (address) {\r\n    return address(this);\r\n    }\r\n    \r\n    \r\n    //setters (owner)\r\n    \r\n    function setPoolAddress(address addr) public onlyOwner{\r\n        poolAddress = addr;\r\n        whitelistAddress(addr);\r\n        balanceTracker.makeAddressIneligible(addr);\r\n    }\r\n    \r\n\r\n    \r\n    function enableCommission(bool enable) public onlyOwner{\r\n        commissionEnabled = enable;\r\n    }\r\n    \r\n    function setTeamAddress(address addr) public onlyOwner{\r\n        teamAddress = addr;\r\n    }\r\n    \r\n    function setLevel(uint256 level_) public onlyOwner{\r\n        level = level_;\r\n    }\r\n    \r\n    function setBalanceTracker(address addr) public onlyOwner{\r\n        balanceTracker = BalanceTrackerI(addr);\r\n    }\r\n    \r\n    function burn(uint256 amount) public onlyOwner{\r\n        balances[msg.sender] = balances[msg.sender].sub(amount);\r\n        totalSupply_ = totalSupply_.sub(amount);\r\n    }\r\n    \r\n    \r\n    \r\n}\r\n\r\ninterface BalanceTrackerI {\r\n\r\n    function updateUserBalance(\r\n        address user) external;\r\n\r\n    function getUserAtRank(\r\n        uint256 rank) external view returns (address);\r\n\r\n    function getRankForUser(\r\n        address user) external view returns (uint256);\r\n\r\n    function getRandomUserMinimumTokenBalance(\r\n        uint256 blockNumber,\r\n        uint256 minimumTokenBalance) external view returns (address);\r\n\r\n    function getRandomUserTopPercent(\r\n        uint256 blockNumber,\r\n        uint256 percent,\r\n        uint256 minimumTokenBalance) external view returns (address);\r\n\r\n    function getRandomUserTop(\r\n        uint256 blockNumber,\r\n        uint256 top) external view returns (address);\r\n\r\n\r\n    function makeSenderIneligible() external;\r\n    function makeAddressIneligible(address addr) external;\r\n    function treeBelow(\r\n        uint256 value) external view returns (uint256);\r\n\r\n    function treeAbove(\r\n        uint256 value) external view returns (uint256);\r\n\r\n    function treeCount() external view returns (uint256);\r\n \r\n    function treeValueAtRank(uint256 rank) external view returns (uint256); \r\n}\r\n\r\n\r\n ",
  "sourcePath": "C:/Users/slima/dev/StairToken/truffle_project/contracts/StairToken.sol",
  "compiler": {
    "name": "solc",
    "version": "0.7.3+commit.9bfce1f6.Emscripten.clang"
  },
  "schemaVersion": "3.4.0",
  "updatedAt": "2021-05-06T21:12:24.161Z",
  "networkType": "ethereum",
  "devdoc": {
    "kind": "dev",
    "methods": {},
    "version": 1
  },
  "userdoc": {
    "kind": "user",
    "methods": {},
    "version": 1
  }
}