{
  "contractName": "STAIRToken",
  "abi": [
    {
      "inputs": [
        {
          "internalType": "uint256",
          "name": "total",
          "type": "uint256"
        },
        {
          "internalType": "address",
          "name": "poolAddress_",
          "type": "address"
        },
        {
          "internalType": "address",
          "name": "teamAddressA_",
          "type": "address"
        },
        {
          "internalType": "address",
          "name": "teamAddressB_",
          "type": "address"
        },
        {
          "internalType": "address",
          "name": "teamAddressC_",
          "type": "address"
        }
      ],
      "stateMutability": "nonpayable",
      "type": "constructor"
    },
    {
      "anonymous": false,
      "inputs": [
        {
          "indexed": true,
          "internalType": "address",
          "name": "owner",
          "type": "address"
        },
        {
          "indexed": true,
          "internalType": "address",
          "name": "spender",
          "type": "address"
        },
        {
          "indexed": false,
          "internalType": "uint256",
          "name": "value",
          "type": "uint256"
        }
      ],
      "name": "Approval",
      "type": "event"
    },
    {
      "anonymous": false,
      "inputs": [
        {
          "indexed": true,
          "internalType": "address",
          "name": "from",
          "type": "address"
        },
        {
          "indexed": true,
          "internalType": "address",
          "name": "to",
          "type": "address"
        },
        {
          "indexed": false,
          "internalType": "uint256",
          "name": "value",
          "type": "uint256"
        }
      ],
      "name": "Transfer",
      "type": "event"
    },
    {
      "inputs": [],
      "name": "decimals",
      "outputs": [
        {
          "internalType": "uint8",
          "name": "",
          "type": "uint8"
        }
      ],
      "stateMutability": "view",
      "type": "function"
    },
    {
      "inputs": [],
      "name": "name",
      "outputs": [
        {
          "internalType": "string",
          "name": "",
          "type": "string"
        }
      ],
      "stateMutability": "view",
      "type": "function"
    },
    {
      "inputs": [],
      "name": "symbol",
      "outputs": [
        {
          "internalType": "string",
          "name": "",
          "type": "string"
        }
      ],
      "stateMutability": "view",
      "type": "function"
    },
    {
      "inputs": [],
      "name": "totalSupply",
      "outputs": [
        {
          "internalType": "uint256",
          "name": "",
          "type": "uint256"
        }
      ],
      "stateMutability": "view",
      "type": "function"
    },
    {
      "inputs": [
        {
          "internalType": "address",
          "name": "tokenOwner",
          "type": "address"
        }
      ],
      "name": "balanceOf",
      "outputs": [
        {
          "internalType": "uint256",
          "name": "",
          "type": "uint256"
        }
      ],
      "stateMutability": "view",
      "type": "function"
    },
    {
      "inputs": [
        {
          "internalType": "address",
          "name": "receiver",
          "type": "address"
        },
        {
          "internalType": "uint256",
          "name": "numTokens",
          "type": "uint256"
        }
      ],
      "name": "transfer",
      "outputs": [
        {
          "internalType": "bool",
          "name": "",
          "type": "bool"
        }
      ],
      "stateMutability": "nonpayable",
      "type": "function"
    },
    {
      "inputs": [
        {
          "internalType": "address",
          "name": "delegate",
          "type": "address"
        },
        {
          "internalType": "uint256",
          "name": "numTokens",
          "type": "uint256"
        }
      ],
      "name": "approve",
      "outputs": [
        {
          "internalType": "bool",
          "name": "",
          "type": "bool"
        }
      ],
      "stateMutability": "nonpayable",
      "type": "function"
    },
    {
      "inputs": [
        {
          "internalType": "address",
          "name": "owner",
          "type": "address"
        },
        {
          "internalType": "address",
          "name": "delegate",
          "type": "address"
        }
      ],
      "name": "allowance",
      "outputs": [
        {
          "internalType": "uint256",
          "name": "",
          "type": "uint256"
        }
      ],
      "stateMutability": "view",
      "type": "function"
    },
    {
      "inputs": [
        {
          "internalType": "address",
          "name": "owner",
          "type": "address"
        },
        {
          "internalType": "address",
          "name": "buyer",
          "type": "address"
        },
        {
          "internalType": "uint256",
          "name": "numTokens",
          "type": "uint256"
        }
      ],
      "name": "transferFrom",
      "outputs": [
        {
          "internalType": "bool",
          "name": "",
          "type": "bool"
        }
      ],
      "stateMutability": "nonpayable",
      "type": "function"
    },
    {
      "inputs": [
        {
          "internalType": "address",
          "name": "from",
          "type": "address"
        },
        {
          "internalType": "address",
          "name": "to",
          "type": "address"
        },
        {
          "internalType": "uint256",
          "name": "amount",
          "type": "uint256"
        }
      ],
      "name": "transfer_",
      "outputs": [
        {
          "internalType": "bool",
          "name": "",
          "type": "bool"
        }
      ],
      "stateMutability": "nonpayable",
      "type": "function"
    },
    {
      "inputs": [
        {
          "internalType": "address",
          "name": "newPioneer",
          "type": "address"
        }
      ],
      "name": "addPioneer",
      "outputs": [],
      "stateMutability": "nonpayable",
      "type": "function"
    },
    {
      "inputs": [
        {
          "internalType": "address",
          "name": "pionner",
          "type": "address"
        }
      ],
      "name": "isPioneer",
      "outputs": [
        {
          "internalType": "bool",
          "name": "",
          "type": "bool"
        }
      ],
      "stateMutability": "nonpayable",
      "type": "function"
    },
    {
      "inputs": [],
      "name": "getEligibleHolders",
      "outputs": [
        {
          "internalType": "uint256",
          "name": "",
          "type": "uint256"
        }
      ],
      "stateMutability": "view",
      "type": "function"
    },
    {
      "inputs": [],
      "name": "top20Tokens",
      "outputs": [
        {
          "internalType": "uint256",
          "name": "",
          "type": "uint256"
        }
      ],
      "stateMutability": "view",
      "type": "function"
    },
    {
      "inputs": [],
      "name": "top50Tokens",
      "outputs": [
        {
          "internalType": "uint256",
          "name": "",
          "type": "uint256"
        }
      ],
      "stateMutability": "view",
      "type": "function"
    },
    {
      "inputs": [],
      "name": "top100Tokens",
      "outputs": [
        {
          "internalType": "uint256",
          "name": "",
          "type": "uint256"
        }
      ],
      "stateMutability": "view",
      "type": "function"
    },
    {
      "inputs": [],
      "name": "forceDispatch",
      "outputs": [],
      "stateMutability": "nonpayable",
      "type": "function"
    },
    {
      "inputs": [],
      "name": "getPoolBalance",
      "outputs": [
        {
          "internalType": "uint256",
          "name": "",
          "type": "uint256"
        }
      ],
      "stateMutability": "view",
      "type": "function"
    },
    {
      "inputs": [],
      "name": "getPoolAddress",
      "outputs": [
        {
          "internalType": "address",
          "name": "",
          "type": "address"
        }
      ],
      "stateMutability": "view",
      "type": "function"
    },
    {
      "inputs": [],
      "name": "getLevel",
      "outputs": [
        {
          "internalType": "uint256",
          "name": "",
          "type": "uint256"
        }
      ],
      "stateMutability": "view",
      "type": "function"
    },
    {
      "inputs": [
        {
          "internalType": "bool",
          "name": "enable",
          "type": "bool"
        }
      ],
      "name": "enableFees",
      "outputs": [],
      "stateMutability": "nonpayable",
      "type": "function"
    },
    {
      "inputs": [],
      "name": "enableFees",
      "outputs": [
        {
          "internalType": "bool",
          "name": "",
          "type": "bool"
        }
      ],
      "stateMutability": "view",
      "type": "function"
    },
    {
      "inputs": [
        {
          "internalType": "uint256",
          "name": "level_",
          "type": "uint256"
        }
      ],
      "name": "setLevel",
      "outputs": [],
      "stateMutability": "nonpayable",
      "type": "function"
    },
    {
      "inputs": [
        {
          "internalType": "address",
          "name": "addr",
          "type": "address"
        }
      ],
      "name": "setBalanceTracker",
      "outputs": [],
      "stateMutability": "nonpayable",
      "type": "function"
    },
    {
      "inputs": [
        {
          "internalType": "address",
          "name": "addr",
          "type": "address"
        }
      ],
      "name": "setPresaleAddress",
      "outputs": [],
      "stateMutability": "nonpayable",
      "type": "function"
    },
    {
      "inputs": [
        {
          "internalType": "address",
          "name": "addr",
          "type": "address"
        }
      ],
      "name": "setPoolAddress",
      "outputs": [],
      "stateMutability": "nonpayable",
      "type": "function"
    },
    {
      "inputs": [
        {
          "internalType": "uint256",
          "name": "amount",
          "type": "uint256"
        }
      ],
      "name": "burn",
      "outputs": [],
      "stateMutability": "nonpayable",
      "type": "function"
    }
  ],
  "bytecode": "0x60806040526001600560006101000a81548160ff0219169083151502179055506064600a5534801561003057600080fd5b506040516200432d3803806200432d833981810160405260a081101561005557600080fd5b81019080805190602001909291908051906020019092919080519060200190929190805190602001909291908051906020019092919050505084600181905550600154600260003373ffffffffffffffffffffffffffffffffffffffff1673ffffffffffffffffffffffffffffffffffffffff16815260200190815260200160002081905550336000806101000a81548173ffffffffffffffffffffffffffffffffffffffff021916908373ffffffffffffffffffffffffffffffffffffffff16021790555083600560016101000a81548173ffffffffffffffffffffffffffffffffffffffff021916908373ffffffffffffffffffffffffffffffffffffffff16021790555082600660006101000a81548173ffffffffffffffffffffffffffffffffffffffff021916908373ffffffffffffffffffffffffffffffffffffffff16021790555081600760006101000a81548173ffffffffffffffffffffffffffffffffffffffff021916908373ffffffffffffffffffffffffffffffffffffffff16021790555080600860006101000a81548173ffffffffffffffffffffffffffffffffffffffff021916908373ffffffffffffffffffffffffffffffffffffffff16021790555050505050506140f980620002346000396000f3fe608060405234801561001057600080fd5b50600436106101a95760003560e01c8063598b75ad116100f9578063abd70aa211610097578063d7d627ec11610071578063d7d627ec1461078d578063dd62ed3e146107ab578063e9e15b4f14610823578063f586c6d914610867576101a9565b8063abd70aa21461070d578063afe7b54e1461072b578063bdb9f28d14610749576101a9565b806395d89b41116100d357806395d89b4114610584578063a1a6d5fc14610607578063a5985e8c1461068b578063a9059cbb146106a9576101a9565b8063598b75ad146104ca57806370a082311461050e5780637150f11914610566576101a9565b806327a5428b11610166578063313ce56711610140578063313ce56714610417578063368f5bd51461043857806342966c68146104585780634722749c14610486576101a9565b806327a5428b146103af5780632bf5eabb146103dd5780632f6aa3e41461040d576101a9565b806306fdde03146101ae578063095ea7b3146102315780631406248b1461029557806318160ddd146102b3578063197d63a1146102d157806323b872dd1461032b575b600080fd5b6101b661089b565b6040518080602001828103825283818151815260200191508051906020019080838360005b838110156101f65780820151818401526020810190506101db565b50505050905090810190601f1680156102235780820380516001836020036101000a031916815260200191505b509250505060405180910390f35b61027d6004803603604081101561024757600080fd5b81019080803573ffffffffffffffffffffffffffffffffffffffff169060200190929190803590602001909291905050506108d4565b60405180821515815260200191505060405180910390f35b61029d6109c6565b6040518082815260200191505060405180910390f35b6102bb610bfa565b6040518082815260200191505060405180910390f35b610313600480360360208110156102e757600080fd5b81019080803573ffffffffffffffffffffffffffffffffffffffff169060200190929190505050610c04565b60405180821515815260200191505060405180910390f35b6103976004803603606081101561034157600080fd5b81019080803573ffffffffffffffffffffffffffffffffffffffff169060200190929190803573ffffffffffffffffffffffffffffffffffffffff16906020019092919080359060200190929190505050610ca6565b60405180821515815260200191505060405180910390f35b6103db600480360360208110156103c557600080fd5b8101908080359060200190929190505050610d94565b005b61040b600480360360208110156103f357600080fd5b81019080803515159060200190929190505050610df6565b005b610415610e6b565b005b61041f610ecd565b604051808260ff16815260200191505060405180910390f35b610440610ed2565b60405180821515815260200191505060405180910390f35b6104846004803603602081101561046e57600080fd5b8101908080359060200190929190505050610ee9565b005b6104c86004803603602081101561049c57600080fd5b81019080803573ffffffffffffffffffffffffffffffffffffffff169060200190929190505050610ff4565b005b61050c600480360360208110156104e057600080fd5b81019080803573ffffffffffffffffffffffffffffffffffffffff1690602001909291905050506110ea565b005b6105506004803603602081101561052457600080fd5b81019080803573ffffffffffffffffffffffffffffffffffffffff169060200190929190505050611186565b6040518082815260200191505060405180910390f35b61056e6111cf565b6040518082815260200191505060405180910390f35b61058c611285565b6040518080602001828103825283818151815260200191508051906020019080838360005b838110156105cc5780820151818401526020810190506105b1565b50505050905090810190601f1680156105f95780820380516001836020036101000a031916815260200191505b509250505060405180910390f35b6106736004803603606081101561061d57600080fd5b81019080803573ffffffffffffffffffffffffffffffffffffffff169060200190929190803573ffffffffffffffffffffffffffffffffffffffff169060200190929190803590602001909291905050506112be565b60405180821515815260200191505060405180910390f35b610693611aa5565b6040518082815260200191505060405180910390f35b6106f5600480360360408110156106bf57600080fd5b81019080803573ffffffffffffffffffffffffffffffffffffffff16906020019092919080359060200190929190505050611aaf565b60405180821515815260200191505060405180910390f35b610715611b13565b6040518082815260200191505060405180910390f35b610733611b7c565b6040518082815260200191505060405180910390f35b61078b6004803603602081101561075f57600080fd5b81019080803573ffffffffffffffffffffffffffffffffffffffff169060200190929190505050611dfa565b005b610795611f39565b6040518082815260200191505060405180910390f35b61080d600480360360408110156107c157600080fd5b81019080803573ffffffffffffffffffffffffffffffffffffffff169060200190929190803573ffffffffffffffffffffffffffffffffffffffff169060200190929190505050612181565b6040518082815260200191505060405180910390f35b6108656004803603602081101561083957600080fd5b81019080803573ffffffffffffffffffffffffffffffffffffffff169060200190929190505050612208565b005b61086f612347565b604051808273ffffffffffffffffffffffffffffffffffffffff16815260200191505060405180910390f35b6040518060400160405280600581526020017f535441495200000000000000000000000000000000000000000000000000000081525081565b600081600360003373ffffffffffffffffffffffffffffffffffffffff1673ffffffffffffffffffffffffffffffffffffffff16815260200190815260200160002060008573ffffffffffffffffffffffffffffffffffffffff1673ffffffffffffffffffffffffffffffffffffffff168152602001908152602001600020819055508273ffffffffffffffffffffffffffffffffffffffff163373ffffffffffffffffffffffffffffffffffffffff167f8c5be1e5ebec7d5bd14f71427d1e84f3dd0314c0f7b2291e5b200ac8c7c3b925846040518082815260200191505060405180910390a36001905092915050565b600080600b60009054906101000a900473ffffffffffffffffffffffffffffffffffffffff1673ffffffffffffffffffffffffffffffffffffffff16632ab0ae22600a6040518263ffffffff1660e01b81526004018082815260200191505060206040518083038186803b158015610a3d57600080fd5b505afa158015610a51573d6000803e3d6000fd5b505050506040513d6020811015610a6757600080fd5b8101908080519060200190929190505050905060006064602860026000600560019054906101000a900473ffffffffffffffffffffffffffffffffffffffff1673ffffffffffffffffffffffffffffffffffffffff1673ffffffffffffffffffffffffffffffffffffffff168152602001908152602001600020540281610aea57fe5b04905060008160026000600560019054906101000a900473ffffffffffffffffffffffffffffffffffffffff1673ffffffffffffffffffffffffffffffffffffffff1673ffffffffffffffffffffffffffffffffffffffff16815260200190815260200160002054039050600080610b7f6064610b7160148861237190919063ffffffff16565b6123f790919063ffffffff16565b1415610b8e5760009050610bf0565b610bed610bb86064610baa60148861237190919063ffffffff16565b6123f790919063ffffffff16565b610bdf6064610bd160328761237190919063ffffffff16565b6123f790919063ffffffff16565b6123f790919063ffffffff16565b90505b8094505050505090565b6000600154905090565b600080600090505b600480549050811015610c9b578273ffffffffffffffffffffffffffffffffffffffff1660048281548110610c3d57fe5b9060005260206000200160009054906101000a900473ffffffffffffffffffffffffffffffffffffffff1673ffffffffffffffffffffffffffffffffffffffff161415610c8e576001915050610ca1565b8080600101915050610c0c565b50600090505b919050565b6000600260008573ffffffffffffffffffffffffffffffffffffffff1673ffffffffffffffffffffffffffffffffffffffff16815260200190815260200160002054821115610cf457600080fd5b600360008573ffffffffffffffffffffffffffffffffffffffff1673ffffffffffffffffffffffffffffffffffffffff16815260200190815260200160002060003373ffffffffffffffffffffffffffffffffffffffff1673ffffffffffffffffffffffffffffffffffffffff16815260200190815260200160002054821115610d7d57600080fd5b610d888484846112be565b50600190509392505050565b60008054906101000a900473ffffffffffffffffffffffffffffffffffffffff1673ffffffffffffffffffffffffffffffffffffffff163373ffffffffffffffffffffffffffffffffffffffff1614610dec57600080fd5b80600a8190555050565b60008054906101000a900473ffffffffffffffffffffffffffffffffffffffff1673ffffffffffffffffffffffffffffffffffffffff163373ffffffffffffffffffffffffffffffffffffffff1614610e4e57600080fd5b80600560006101000a81548160ff02191690831515021790555050565b60008054906101000a900473ffffffffffffffffffffffffffffffffffffffff1673ffffffffffffffffffffffffffffffffffffffff163373ffffffffffffffffffffffffffffffffffffffff1614610ec357600080fd5b610ecb612441565b565b600081565b6000600560009054906101000a900460ff16905090565b60008054906101000a900473ffffffffffffffffffffffffffffffffffffffff1673ffffffffffffffffffffffffffffffffffffffff163373ffffffffffffffffffffffffffffffffffffffff1614610f4157600080fd5b610f9381600260003373ffffffffffffffffffffffffffffffffffffffff1673ffffffffffffffffffffffffffffffffffffffff16815260200190815260200160002054613e4a90919063ffffffff16565b600260003373ffffffffffffffffffffffffffffffffffffffff1673ffffffffffffffffffffffffffffffffffffffff16815260200190815260200160002081905550610feb81600154613e4a90919063ffffffff16565b60018190555050565b60005b600480549050811015611082578173ffffffffffffffffffffffffffffffffffffffff166004828154811061102857fe5b9060005260206000200160009054906101000a900473ffffffffffffffffffffffffffffffffffffffff1673ffffffffffffffffffffffffffffffffffffffff16141561107557506110e7565b8080600101915050610ff7565b506004819080600181540180825580915050600190039060005260206000200160009091909190916101000a81548173ffffffffffffffffffffffffffffffffffffffff021916908373ffffffffffffffffffffffffffffffffffffffff1602179055505b50565b60008054906101000a900473ffffffffffffffffffffffffffffffffffffffff1673ffffffffffffffffffffffffffffffffffffffff163373ffffffffffffffffffffffffffffffffffffffff161461114257600080fd5b80600b60006101000a81548173ffffffffffffffffffffffffffffffffffffffff021916908373ffffffffffffffffffffffffffffffffffffffff16021790555050565b6000600260008373ffffffffffffffffffffffffffffffffffffffff1673ffffffffffffffffffffffffffffffffffffffff168152602001908152602001600020549050919050565b6000600b60009054906101000a900473ffffffffffffffffffffffffffffffffffffffff1673ffffffffffffffffffffffffffffffffffffffff16632ab0ae22600a6040518263ffffffff1660e01b81526004018082815260200191505060206040518083038186803b15801561124557600080fd5b505afa158015611259573d6000803e3d6000fd5b505050506040513d602081101561126f57600080fd5b8101908080519060200190929190505050905090565b6040518060400160405280600581526020017f535441495200000000000000000000000000000000000000000000000000000081525081565b6000600560009054906101000a900460ff16801561139d5750600b60009054906101000a900473ffffffffffffffffffffffffffffffffffffffff1673ffffffffffffffffffffffffffffffffffffffff16639f47c3d3856040518263ffffffff1660e01b8152600401808273ffffffffffffffffffffffffffffffffffffffff16815260200191505060206040518083038186803b15801561136057600080fd5b505afa158015611374573d6000803e3d6000fd5b505050506040513d602081101561138a57600080fd5b8101908080519060200190929190505050155b156116f15760006113ce60646113c0600a6064038661237190919063ffffffff16565b6123f790919063ffffffff16565b905060006113f960646113eb600a8761237190919063ffffffff16565b6123f790919063ffffffff16565b905061144d84600260008973ffffffffffffffffffffffffffffffffffffffff1673ffffffffffffffffffffffffffffffffffffffff16815260200190815260200160002054613e4a90919063ffffffff16565b600260008873ffffffffffffffffffffffffffffffffffffffff1673ffffffffffffffffffffffffffffffffffffffff168152602001908152602001600020819055506114e282600260008873ffffffffffffffffffffffffffffffffffffffff1673ffffffffffffffffffffffffffffffffffffffff16815260200190815260200160002054613e9490919063ffffffff16565b600260008773ffffffffffffffffffffffffffffffffffffffff1673ffffffffffffffffffffffffffffffffffffffff168152602001908152602001600020819055506115998160026000600560019054906101000a900473ffffffffffffffffffffffffffffffffffffffff1673ffffffffffffffffffffffffffffffffffffffff1673ffffffffffffffffffffffffffffffffffffffff16815260200190815260200160002054613e9490919063ffffffff16565b60026000600560019054906101000a900473ffffffffffffffffffffffffffffffffffffffff1673ffffffffffffffffffffffffffffffffffffffff1673ffffffffffffffffffffffffffffffffffffffff168152602001908152602001600020819055508473ffffffffffffffffffffffffffffffffffffffff168673ffffffffffffffffffffffffffffffffffffffff167fddf252ad1be2c89b69c2b068fc378daa952ba7f163c4a11628f55a4df523b3ef846040518082815260200191505060405180910390a3600560019054906101000a900473ffffffffffffffffffffffffffffffffffffffff1673ffffffffffffffffffffffffffffffffffffffff168673ffffffffffffffffffffffffffffffffffffffff167fddf252ad1be2c89b69c2b068fc378daa952ba7f163c4a11628f55a4df523b3ef836040518082815260200191505060405180910390a35050611881565b61174382600260008773ffffffffffffffffffffffffffffffffffffffff1673ffffffffffffffffffffffffffffffffffffffff16815260200190815260200160002054613e4a90919063ffffffff16565b600260008673ffffffffffffffffffffffffffffffffffffffff1673ffffffffffffffffffffffffffffffffffffffff168152602001908152602001600020819055506117d882600260008673ffffffffffffffffffffffffffffffffffffffff1673ffffffffffffffffffffffffffffffffffffffff16815260200190815260200160002054613e9490919063ffffffff16565b600260008573ffffffffffffffffffffffffffffffffffffffff1673ffffffffffffffffffffffffffffffffffffffff168152602001908152602001600020819055508273ffffffffffffffffffffffffffffffffffffffff168473ffffffffffffffffffffffffffffffffffffffff167fddf252ad1be2c89b69c2b068fc378daa952ba7f163c4a11628f55a4df523b3ef846040518082815260200191505060405180910390a35b600b60009054906101000a900473ffffffffffffffffffffffffffffffffffffffff1673ffffffffffffffffffffffffffffffffffffffff1663993ae7e9856040518263ffffffff1660e01b8152600401808273ffffffffffffffffffffffffffffffffffffffff168152602001915050600060405180830381600087803b15801561190c57600080fd5b505af1158015611920573d6000803e3d6000fd5b50505050600b60009054906101000a900473ffffffffffffffffffffffffffffffffffffffff1673ffffffffffffffffffffffffffffffffffffffff1663993ae7e9846040518263ffffffff1660e01b8152600401808273ffffffffffffffffffffffffffffffffffffffff168152602001915050600060405180830381600087803b1580156119af57600080fd5b505af11580156119c3573d6000803e3d6000fd5b50505050600a5460026000600560019054906101000a900473ffffffffffffffffffffffffffffffffffffffff1673ffffffffffffffffffffffffffffffffffffffff1673ffffffffffffffffffffffffffffffffffffffff1681526020019081526020016000205410611a3a57611a39612441565b5b600960009054906101000a900473ffffffffffffffffffffffffffffffffffffffff1673ffffffffffffffffffffffffffffffffffffffff168473ffffffffffffffffffffffffffffffffffffffff161415611a9a57611a9983610ff4565b5b600190509392505050565b6000600a54905090565b6000600260003373ffffffffffffffffffffffffffffffffffffffff1673ffffffffffffffffffffffffffffffffffffffff16815260200190815260200160002054821115611afd57600080fd5b611b083384846112be565b506001905092915050565b600060026000600560019054906101000a900473ffffffffffffffffffffffffffffffffffffffff1673ffffffffffffffffffffffffffffffffffffffff1673ffffffffffffffffffffffffffffffffffffffff16815260200190815260200160002054905090565b600080600b60009054906101000a900473ffffffffffffffffffffffffffffffffffffffff1673ffffffffffffffffffffffffffffffffffffffff16632ab0ae22600a6040518263ffffffff1660e01b81526004018082815260200191505060206040518083038186803b158015611bf357600080fd5b505afa158015611c07573d6000803e3d6000fd5b505050506040513d6020811015611c1d57600080fd5b8101908080519060200190929190505050905060006064602860026000600560019054906101000a900473ffffffffffffffffffffffffffffffffffffffff1673ffffffffffffffffffffffffffffffffffffffff1673ffffffffffffffffffffffffffffffffffffffff168152602001908152602001600020540281611ca057fe5b04905060008160026000600560019054906101000a900473ffffffffffffffffffffffffffffffffffffffff1673ffffffffffffffffffffffffffffffffffffffff1673ffffffffffffffffffffffffffffffffffffffff16815260200190815260200160002054039050600080611d356064611d2760328861237190919063ffffffff16565b6123f790919063ffffffff16565b1415611d445760009050611df0565b611ded611db8611d716064611d6360148961237190919063ffffffff16565b6123f790919063ffffffff16565b611daa611d9b6064611d8d601e8b61237190919063ffffffff16565b6123f790919063ffffffff16565b88613e4a90919063ffffffff16565b613e4a90919063ffffffff16565b611ddf6064611dd160128761237190919063ffffffff16565b6123f790919063ffffffff16565b6123f790919063ffffffff16565b90505b8094505050505090565b60008054906101000a900473ffffffffffffffffffffffffffffffffffffffff1673ffffffffffffffffffffffffffffffffffffffff163373ffffffffffffffffffffffffffffffffffffffff1614611e5257600080fd5b80600960006101000a81548173ffffffffffffffffffffffffffffffffffffffff021916908373ffffffffffffffffffffffffffffffffffffffff160217905550600b60009054906101000a900473ffffffffffffffffffffffffffffffffffffffff1673ffffffffffffffffffffffffffffffffffffffff16632362851f826040518263ffffffff1660e01b8152600401808273ffffffffffffffffffffffffffffffffffffffff168152602001915050600060405180830381600087803b158015611f1e57600080fd5b505af1158015611f32573d6000803e3d6000fd5b5050505050565b600080600b60009054906101000a900473ffffffffffffffffffffffffffffffffffffffff1673ffffffffffffffffffffffffffffffffffffffff16632ab0ae22600a6040518263ffffffff1660e01b81526004018082815260200191505060206040518083038186803b158015611fb057600080fd5b505afa158015611fc4573d6000803e3d6000fd5b505050506040513d6020811015611fda57600080fd5b8101908080519060200190929190505050905060006064602860026000600560019054906101000a900473ffffffffffffffffffffffffffffffffffffffff1673ffffffffffffffffffffffffffffffffffffffff1673ffffffffffffffffffffffffffffffffffffffff16815260200190815260200160002054028161205d57fe5b04905060008160026000600560019054906101000a900473ffffffffffffffffffffffffffffffffffffffff1673ffffffffffffffffffffffffffffffffffffffff1673ffffffffffffffffffffffffffffffffffffffff168152602001908152602001600020540390506000806120d36109c6565b90506000601e9050600061210460646120f6601e8a61237190919063ffffffff16565b6123f790919063ffffffff16565b14156121135760009250612175565b61217261213d606461212f601e8a61237190919063ffffffff16565b6123f790919063ffffffff16565b6121646064612156601e8961237190919063ffffffff16565b6123f790919063ffffffff16565b6123f790919063ffffffff16565b92505b82965050505050505090565b6000600360008473ffffffffffffffffffffffffffffffffffffffff1673ffffffffffffffffffffffffffffffffffffffff16815260200190815260200160002060008373ffffffffffffffffffffffffffffffffffffffff1673ffffffffffffffffffffffffffffffffffffffff16815260200190815260200160002054905092915050565b60008054906101000a900473ffffffffffffffffffffffffffffffffffffffff1673ffffffffffffffffffffffffffffffffffffffff163373ffffffffffffffffffffffffffffffffffffffff161461226057600080fd5b80600560016101000a81548173ffffffffffffffffffffffffffffffffffffffff021916908373ffffffffffffffffffffffffffffffffffffffff160217905550600b60009054906101000a900473ffffffffffffffffffffffffffffffffffffffff1673ffffffffffffffffffffffffffffffffffffffff16632362851f826040518263ffffffff1660e01b8152600401808273ffffffffffffffffffffffffffffffffffffffff168152602001915050600060405180830381600087803b15801561232c57600080fd5b505af1158015612340573d6000803e3d6000fd5b5050505050565b6000600560019054906101000a900473ffffffffffffffffffffffffffffffffffffffff16905090565b60008083141561238457600090506123f1565b600082840290508284828161239557fe5b04146123ec576040517f08c379a00000000000000000000000000000000000000000000000000000000081526004018080602001828103825260218152602001806140a36021913960400191505060405180910390fd5b809150505b92915050565b600061243983836040518060400160405280601a81526020017f536166654d6174683a206469766973696f6e206279207a65726f000000000000815250613f1c565b905092915050565b6000600b60009054906101000a900473ffffffffffffffffffffffffffffffffffffffff1673ffffffffffffffffffffffffffffffffffffffff16632ab0ae22600a6040518263ffffffff1660e01b81526004018082815260200191505060206040518083038186803b1580156124b757600080fd5b505afa1580156124cb573d6000803e3d6000fd5b505050506040513d60208110156124e157600080fd5b8101908080519060200190929190505050905060006064602860026000600560019054906101000a900473ffffffffffffffffffffffffffffffffffffffff1673ffffffffffffffffffffffffffffffffffffffff1673ffffffffffffffffffffffffffffffffffffffff16815260200190815260200160002054028161256457fe5b04905060008160026000600560019054906101000a900473ffffffffffffffffffffffffffffffffffffffff1673ffffffffffffffffffffffffffffffffffffffff1673ffffffffffffffffffffffffffffffffffffffff168152602001908152602001600020540390506126696125f960646125eb602d8661237190919063ffffffff16565b6123f790919063ffffffff16565b60026000600660009054906101000a900473ffffffffffffffffffffffffffffffffffffffff1673ffffffffffffffffffffffffffffffffffffffff1673ffffffffffffffffffffffffffffffffffffffff16815260200190815260200160002054613e9490919063ffffffff16565b60026000600660009054906101000a900473ffffffffffffffffffffffffffffffffffffffff1673ffffffffffffffffffffffffffffffffffffffff1673ffffffffffffffffffffffffffffffffffffffff168152602001908152602001600020819055506127686126f860646126ea60238661237190919063ffffffff16565b6123f790919063ffffffff16565b60026000600760009054906101000a900473ffffffffffffffffffffffffffffffffffffffff1673ffffffffffffffffffffffffffffffffffffffff1673ffffffffffffffffffffffffffffffffffffffff16815260200190815260200160002054613e9490919063ffffffff16565b60026000600760009054906101000a900473ffffffffffffffffffffffffffffffffffffffff1673ffffffffffffffffffffffffffffffffffffffff1673ffffffffffffffffffffffffffffffffffffffff168152602001908152602001600020819055506128676127f760646127e960148661237190919063ffffffff16565b6123f790919063ffffffff16565b60026000600860009054906101000a900473ffffffffffffffffffffffffffffffffffffffff1673ffffffffffffffffffffffffffffffffffffffff1673ffffffffffffffffffffffffffffffffffffffff16815260200190815260200160002054613e9490919063ffffffff16565b60026000600860009054906101000a900473ffffffffffffffffffffffffffffffffffffffff1673ffffffffffffffffffffffffffffffffffffffff1673ffffffffffffffffffffffffffffffffffffffff168152602001908152602001600020819055506129408260026000600560019054906101000a900473ffffffffffffffffffffffffffffffffffffffff1673ffffffffffffffffffffffffffffffffffffffff1673ffffffffffffffffffffffffffffffffffffffff16815260200190815260200160002054613e4a90919063ffffffff16565b60026000600560019054906101000a900473ffffffffffffffffffffffffffffffffffffffff1673ffffffffffffffffffffffffffffffffffffffff1673ffffffffffffffffffffffffffffffffffffffff1681526020019081526020016000208190555060008314156129b657505050613e48565b6001831415612c8e57612abf8160026000600b60009054906101000a900473ffffffffffffffffffffffffffffffffffffffff1673ffffffffffffffffffffffffffffffffffffffff1663c7a0eea960016040518263ffffffff1660e01b81526004018082815260200191505060206040518083038186803b158015612a3b57600080fd5b505afa158015612a4f573d6000803e3d6000fd5b505050506040513d6020811015612a6557600080fd5b810190808051906020019092919050505073ffffffffffffffffffffffffffffffffffffffff1673ffffffffffffffffffffffffffffffffffffffff16815260200190815260200160002054613e9490919063ffffffff16565b60026000600b60009054906101000a900473ffffffffffffffffffffffffffffffffffffffff1673ffffffffffffffffffffffffffffffffffffffff1663c7a0eea960016040518263ffffffff1660e01b81526004018082815260200191505060206040518083038186803b158015612b3757600080fd5b505afa158015612b4b573d6000803e3d6000fd5b505050506040513d6020811015612b6157600080fd5b810190808051906020019092919050505073ffffffffffffffffffffffffffffffffffffffff1673ffffffffffffffffffffffffffffffffffffffff16815260200190815260200160002081905550612c248160026000600560019054906101000a900473ffffffffffffffffffffffffffffffffffffffff1673ffffffffffffffffffffffffffffffffffffffff1673ffffffffffffffffffffffffffffffffffffffff16815260200190815260200160002054613e4a90919063ffffffff16565b60026000600560019054906101000a900473ffffffffffffffffffffffffffffffffffffffff1673ffffffffffffffffffffffffffffffffffffffff1673ffffffffffffffffffffffffffffffffffffffff16815260200190815260200160002081905550613e44565b600283141561316b57612da160028281612ca457fe5b0460026000600b60009054906101000a900473ffffffffffffffffffffffffffffffffffffffff1673ffffffffffffffffffffffffffffffffffffffff1663c7a0eea960016040518263ffffffff1660e01b81526004018082815260200191505060206040518083038186803b158015612d1d57600080fd5b505afa158015612d31573d6000803e3d6000fd5b505050506040513d6020811015612d4757600080fd5b810190808051906020019092919050505073ffffffffffffffffffffffffffffffffffffffff1673ffffffffffffffffffffffffffffffffffffffff16815260200190815260200160002054613e9490919063ffffffff16565b60026000600b60009054906101000a900473ffffffffffffffffffffffffffffffffffffffff1673ffffffffffffffffffffffffffffffffffffffff1663c7a0eea960016040518263ffffffff1660e01b81526004018082815260200191505060206040518083038186803b158015612e1957600080fd5b505afa158015612e2d573d6000803e3d6000fd5b505050506040513d6020811015612e4357600080fd5b810190808051906020019092919050505073ffffffffffffffffffffffffffffffffffffffff1673ffffffffffffffffffffffffffffffffffffffff16815260200190815260200160002081905550612f9c60028281612e9f57fe5b0460026000600b60009054906101000a900473ffffffffffffffffffffffffffffffffffffffff1673ffffffffffffffffffffffffffffffffffffffff1663c7a0eea960026040518263ffffffff1660e01b81526004018082815260200191505060206040518083038186803b158015612f1857600080fd5b505afa158015612f2c573d6000803e3d6000fd5b505050506040513d6020811015612f4257600080fd5b810190808051906020019092919050505073ffffffffffffffffffffffffffffffffffffffff1673ffffffffffffffffffffffffffffffffffffffff16815260200190815260200160002054613e9490919063ffffffff16565b60026000600b60009054906101000a900473ffffffffffffffffffffffffffffffffffffffff1673ffffffffffffffffffffffffffffffffffffffff1663c7a0eea960026040518263ffffffff1660e01b81526004018082815260200191505060206040518083038186803b15801561301457600080fd5b505afa158015613028573d6000803e3d6000fd5b505050506040513d602081101561303e57600080fd5b810190808051906020019092919050505073ffffffffffffffffffffffffffffffffffffffff1673ffffffffffffffffffffffffffffffffffffffff168152602001908152602001600020819055506131018160026000600560019054906101000a900473ffffffffffffffffffffffffffffffffffffffff1673ffffffffffffffffffffffffffffffffffffffff1673ffffffffffffffffffffffffffffffffffffffff16815260200190815260200160002054613e4a90919063ffffffff16565b60026000600560019054906101000a900473ffffffffffffffffffffffffffffffffffffffff1673ffffffffffffffffffffffffffffffffffffffff1673ffffffffffffffffffffffffffffffffffffffff16815260200190815260200160002081905550613e43565b6000613194606461318660028561237190919063ffffffff16565b6123f790919063ffffffff16565b90506131a98183613e4a90919063ffffffff16565b91506000806000806131d860646131ca60148b61237190919063ffffffff16565b6123f790919063ffffffff16565b14156131e75760009250613249565b613246613211606461320360148b61237190919063ffffffff16565b6123f790919063ffffffff16565b613238606461322a60328a61237190919063ffffffff16565b6123f790919063ffffffff16565b6123f790919063ffffffff16565b92505b60006132726064613264601e8b61237190919063ffffffff16565b6123f790919063ffffffff16565b141561328157600091506132e3565b6132e06132ab606461329d601e8b61237190919063ffffffff16565b6123f790919063ffffffff16565b6132d260646132c4601e8a61237190919063ffffffff16565b6123f790919063ffffffff16565b6123f790919063ffffffff16565b91505b600061330c60646132fe60328b61237190919063ffffffff16565b6123f790919063ffffffff16565b141561331b57600090506133c7565b6133c461338f613348606461333a60148c61237190919063ffffffff16565b6123f790919063ffffffff16565b6133816133726064613364601e8e61237190919063ffffffff16565b6123f790919063ffffffff16565b8b613e4a90919063ffffffff16565b613e4a90919063ffffffff16565b6133b660646133a860128a61237190919063ffffffff16565b6123f790919063ffffffff16565b6123f790919063ffffffff16565b90505b6000600b60009054906101000a900473ffffffffffffffffffffffffffffffffffffffff1673ffffffffffffffffffffffffffffffffffffffff1663fea3b6c36040518163ffffffff1660e01b815260040160206040518083038186803b15801561343157600080fd5b505afa158015613445573d6000803e3d6000fd5b505050506040513d602081101561345b57600080fd5b8101908080519060200190929190505050905060008190505b888203811115613e3c576000600b60009054906101000a900473ffffffffffffffffffffffffffffffffffffffff1673ffffffffffffffffffffffffffffffffffffffff1663c7a0eea9836040518263ffffffff1660e01b81526004018082815260200191505060206040518083038186803b1580156134f357600080fd5b505afa158015613507573d6000803e3d6000fd5b505050506040513d602081101561351d57600080fd5b8101908080519060200190929190505050905061353981610c04565b801561358557506107d0600260008373ffffffffffffffffffffffffffffffffffffffff1673ffffffffffffffffffffffffffffffffffffffff16815260200190815260200160002054115b156137aa576135ea600480549050888161359b57fe5b04600260008473ffffffffffffffffffffffffffffffffffffffff1673ffffffffffffffffffffffffffffffffffffffff16815260200190815260200160002054613e9490919063ffffffff16565b600260008373ffffffffffffffffffffffffffffffffffffffff1673ffffffffffffffffffffffffffffffffffffffff168152602001908152602001600020819055506136af600480549050888161363e57fe5b0460026000600560019054906101000a900473ffffffffffffffffffffffffffffffffffffffff1673ffffffffffffffffffffffffffffffffffffffff1673ffffffffffffffffffffffffffffffffffffffff16815260200190815260200160002054613e4a90919063ffffffff16565b60026000600560019054906101000a900473ffffffffffffffffffffffffffffffffffffffff1673ffffffffffffffffffffffffffffffffffffffff1673ffffffffffffffffffffffffffffffffffffffff168152602001908152602001600020819055508073ffffffffffffffffffffffffffffffffffffffff16600560019054906101000a900473ffffffffffffffffffffffffffffffffffffffff1673ffffffffffffffffffffffffffffffffffffffff167fddf252ad1be2c89b69c2b068fc378daa952ba7f163c4a11628f55a4df523b3ef6004805490508a8161379357fe5b046040518082815260200191505060405180910390a35b6137d160646137c360148d61237190919063ffffffff16565b6123f790919063ffffffff16565b83038211156139d45761382c86600260008473ffffffffffffffffffffffffffffffffffffffff1673ffffffffffffffffffffffffffffffffffffffff16815260200190815260200160002054613e9490919063ffffffff16565b600260008373ffffffffffffffffffffffffffffffffffffffff1673ffffffffffffffffffffffffffffffffffffffff168152602001908152602001600020819055506138e38660026000600560019054906101000a900473ffffffffffffffffffffffffffffffffffffffff1673ffffffffffffffffffffffffffffffffffffffff1673ffffffffffffffffffffffffffffffffffffffff16815260200190815260200160002054613e4a90919063ffffffff16565b60026000600560019054906101000a900473ffffffffffffffffffffffffffffffffffffffff1673ffffffffffffffffffffffffffffffffffffffff1673ffffffffffffffffffffffffffffffffffffffff168152602001908152602001600020819055508073ffffffffffffffffffffffffffffffffffffffff16600560019054906101000a900473ffffffffffffffffffffffffffffffffffffffff1673ffffffffffffffffffffffffffffffffffffffff167fddf252ad1be2c89b69c2b068fc378daa952ba7f163c4a11628f55a4df523b3ef886040518082815260200191505060405180910390a3613e2d565b613a336139fe60646139f0601e8e61237190919063ffffffff16565b6123f790919063ffffffff16565b613a256064613a1760148f61237190919063ffffffff16565b6123f790919063ffffffff16565b613e9490919063ffffffff16565b8303821115613c3657613a8e85600260008473ffffffffffffffffffffffffffffffffffffffff1673ffffffffffffffffffffffffffffffffffffffff16815260200190815260200160002054613e9490919063ffffffff16565b600260008373ffffffffffffffffffffffffffffffffffffffff1673ffffffffffffffffffffffffffffffffffffffff16815260200190815260200160002081905550613b458560026000600560019054906101000a900473ffffffffffffffffffffffffffffffffffffffff1673ffffffffffffffffffffffffffffffffffffffff1673ffffffffffffffffffffffffffffffffffffffff16815260200190815260200160002054613e4a90919063ffffffff16565b60026000600560019054906101000a900473ffffffffffffffffffffffffffffffffffffffff1673ffffffffffffffffffffffffffffffffffffffff1673ffffffffffffffffffffffffffffffffffffffff168152602001908152602001600020819055508073ffffffffffffffffffffffffffffffffffffffff16600560019054906101000a900473ffffffffffffffffffffffffffffffffffffffff1673ffffffffffffffffffffffffffffffffffffffff167fddf252ad1be2c89b69c2b068fc378daa952ba7f163c4a11628f55a4df523b3ef876040518082815260200191505060405180910390a3613e2c565b613c8884600260008473ffffffffffffffffffffffffffffffffffffffff1673ffffffffffffffffffffffffffffffffffffffff16815260200190815260200160002054613e9490919063ffffffff16565b600260008373ffffffffffffffffffffffffffffffffffffffff1673ffffffffffffffffffffffffffffffffffffffff16815260200190815260200160002081905550613d3f8460026000600560019054906101000a900473ffffffffffffffffffffffffffffffffffffffff1673ffffffffffffffffffffffffffffffffffffffff1673ffffffffffffffffffffffffffffffffffffffff16815260200190815260200160002054613e4a90919063ffffffff16565b60026000600560019054906101000a900473ffffffffffffffffffffffffffffffffffffffff1673ffffffffffffffffffffffffffffffffffffffff1673ffffffffffffffffffffffffffffffffffffffff168152602001908152602001600020819055508073ffffffffffffffffffffffffffffffffffffffff16600560019054906101000a900473ffffffffffffffffffffffffffffffffffffffff1673ffffffffffffffffffffffffffffffffffffffff167fddf252ad1be2c89b69c2b068fc378daa952ba7f163c4a11628f55a4df523b3ef866040518082815260200191505060405180910390a35b5b50808060019003915050613474565b5050505050505b5b5050505b565b6000613e8c83836040518060400160405280601e81526020017f536166654d6174683a207375627472616374696f6e206f766572666c6f770000815250613fe2565b905092915050565b600080828401905083811015613f12576040517f08c379a000000000000000000000000000000000000000000000000000000000815260040180806020018281038252601b8152602001807f536166654d6174683a206164646974696f6e206f766572666c6f77000000000081525060200191505060405180910390fd5b8091505092915050565b60008083118290613fc8576040517f08c379a00000000000000000000000000000000000000000000000000000000081526004018080602001828103825283818151815260200191508051906020019080838360005b83811015613f8d578082015181840152602081019050613f72565b50505050905090810190601f168015613fba5780820380516001836020036101000a031916815260200191505b509250505060405180910390fd5b506000838581613fd457fe5b049050809150509392505050565b600083831115829061408f576040517f08c379a00000000000000000000000000000000000000000000000000000000081526004018080602001828103825283818151815260200191508051906020019080838360005b83811015614054578082015181840152602081019050614039565b50505050905090810190601f1680156140815780820380516001836020036101000a031916815260200191505b509250505060405180910390fd5b506000838503905080915050939250505056fe536166654d6174683a206d756c7469706c69636174696f6e206f766572666c6f77a2646970667358221220830d99451c64cd8f7a805c3f792623cc0dd81089df5909778f4559156e7a497764736f6c63430007030033",
  "immutableReferences": {},
  "source": "pragma solidity 0.7.3;\r\n\r\nimport \"./IERC20.sol\";\r\nimport \"./BalanceTrackerI.sol\";\r\nimport \"./SafeMath.sol\";\r\n\r\n\r\ncontract STAIRToken is IERC20 {\r\n    \r\n    address owner;\r\n       modifier onlyOwner {\r\n        require(\r\n            msg.sender == owner\r\n        );\r\n        _;\r\n    }\r\n    \r\n    string public constant name = \"STAIR\";\r\n    string public constant symbol = \"STAIR\";\r\n    uint8 public constant decimals = 0;\r\n    uint256 totalSupply_;\r\n\r\n    mapping(address => uint256) balances;\r\n    mapping(address => mapping (address => uint256)) allowed;\r\n\r\n    \r\n    uint256 constant poolCommission = 10;\r\n    uint256 constant teamShare = 40;\r\n    uint256 constant holderShare = 60;\r\n    uint256 constant pioneerShare = 2; \r\n    uint256 constant minimumHolding = 10;\r\n    uint256 constant minimumHoldingPioneer = 2000;\r\n    \r\n    address[] pioneers;\r\n    bool feesEnabled = true;\r\n    address poolAddress;\r\n    address teamAddressA; //  to hardcode here\r\n    address teamAddressB; //  to hardcode  here\r\n    address teamAddressC; //  to hardcode here\r\n    address presaleAddress; //  to hardcode here\r\n    uint256  level = 100;\r\n\r\n    using SafeMath for uint256;\r\n    \r\n    BalanceTrackerI balanceTracker;\r\n\r\n   constructor(uint256 total\r\n  , address poolAddress_ , //tmp to hardcode \r\n    address teamAddressA_,//tmp to hardcode \r\n    address teamAddressB_,//tmp to hardcode \r\n    address teamAddressC_\r\n   ) public {\r\n    totalSupply_ = total;\r\n    balances[msg.sender] = totalSupply_;\r\n    owner = msg.sender;\r\n\r\n    poolAddress = poolAddress_;\r\n    teamAddressA = teamAddressA_; //tmp to hardcode \r\n    teamAddressB = teamAddressB_; //tmp to hardcode \r\n    teamAddressC = teamAddressC_;//tmp to hardcode \r\n    }\r\n\r\n    function totalSupply() public override view returns (uint256) {\r\n    return totalSupply_;\r\n    }\r\n\r\n    function balanceOf(address tokenOwner) public override view returns (uint256) {\r\n        return balances[tokenOwner];\r\n    }\r\n\r\n    function transfer(address receiver, uint256 numTokens) public override returns (bool) {\r\n        require(numTokens <= balances[msg.sender]);\r\n         \r\n        transfer_(msg.sender, receiver, numTokens);\r\n\r\n        \r\n        return true;\r\n    }\r\n\r\n    \r\n    function approve(address delegate, uint256 numTokens) public override returns (bool) {\r\n        allowed[msg.sender][delegate] = numTokens;\r\n        emit Approval(msg.sender, delegate, numTokens);\r\n        return true;\r\n    }\r\n\r\n    function allowance(address owner, address delegate) public override view returns (uint) {\r\n        return allowed[owner][delegate];\r\n    }\r\n\r\n    function transferFrom(address owner, address buyer, uint256 numTokens) public override returns (bool) {\r\n        require(numTokens <= balances[owner]);\r\n        require(numTokens <= allowed[owner][msg.sender]);\r\n        \r\n        transfer_(owner, buyer, numTokens);\r\n        \r\n        return true;\r\n    }\r\n    \r\n    //Overrides the superclass implementation to handle custom logic\r\n    //such as taking fees, burning tokens, and supplying liquidity to PancakeSwap\r\n    \r\n    function transfer_(address from, address to, uint256 amount) public returns(bool){\r\n        \r\n        \r\n        if(feesEnabled &&  !balanceTracker.isAddressIneligible(from)){\r\n            uint256 userTokens = amount.mul(100-poolCommission).div(100);\r\n            uint256 poolTokens = amount.mul(poolCommission).div(100);\r\n            balances[from] = balances[from].sub(amount);\r\n            balances[to] = balances[to].add(userTokens);\r\n            balances[poolAddress] = balances[poolAddress].add(poolTokens);\r\n\r\n            emit Transfer(from, to, userTokens);\r\n            emit Transfer(from, poolAddress, poolTokens);\r\n            }\r\n        else {\r\n        balances[from] = balances[from].sub(amount);\r\n        balances[to] = balances[to].add(amount);\r\n        emit Transfer(from, to, amount);\r\n        }\r\n        \r\n\r\n        balanceTracker.updateUserBalance(from);\r\n        balanceTracker.updateUserBalance(to);\r\n        \r\n        \r\n        if(balances[poolAddress] >= level) poolDispatch();\r\n\r\n        if(from == presaleAddress)\r\n            addPioneer(to);\r\n     \r\n        return true;\r\n        \r\n    }\r\n \r\n    \r\n    function addPioneer(address newPioneer) public{\r\n        for (uint i=0; i<pioneers.length; i++) {\r\n            if(pioneers[i] == newPioneer) return;\r\n        }\r\n        pioneers.push(newPioneer);\r\n    }\r\n    \r\n    function isPioneer(address pionner) public returns(bool){\r\n        for (uint i=0; i<pioneers.length; i++) {\r\n            if(pioneers[i] == pionner) return true;\r\n        }\r\n        return false;\r\n    }\r\n    \r\n    \r\n    function getEligibleHolders() public view returns(uint256){\r\n        return balanceTracker.treeAbove(minimumHolding);\r\n    }\r\n\r\n    //TEMP \r\n    function top20Tokens() public view returns(uint256){\r\n        uint256 eligibleHolders = balanceTracker.treeAbove(minimumHolding);\r\n        uint256 teamTokens = balances[ poolAddress ]*teamShare/100;\r\n        uint256 holderTokens = balances[poolAddress] - teamTokens;\r\n        uint256 top20Tokens;\r\n            if (eligibleHolders.mul(20).div(100)==0)\r\n                top20Tokens = 0;\r\n            \r\n            else\r\n                top20Tokens = (holderTokens.mul(50).div(100)).div(eligibleHolders.mul(20).div(100)); \r\n           \r\n           return top20Tokens;\r\n    }\r\n    //TEMP \r\n    function top50Tokens() public view returns(uint256){\r\n        uint256 eligibleHolders = balanceTracker.treeAbove(minimumHolding);\r\n        uint256 teamTokens = balances[ poolAddress ]*teamShare/100;\r\n        uint256 holderTokens = balances[poolAddress] - teamTokens;\r\n        uint256 top50Tokens;\r\n        uint256 top20Tokens = top20Tokens();\r\n        uint256 percent = 30;\r\n        \r\n         \r\n            if (eligibleHolders.mul(30).div(100)==0)\r\n                top50Tokens = 0;\r\n            \r\n            else\r\n                top50Tokens = (holderTokens.mul(30).div(100)).div(eligibleHolders.mul(30).div(100)); \r\n\r\n            return top50Tokens;\r\n           \r\n    }\r\n    //TEMP \r\n    function top100Tokens() public view returns(uint256){\r\n        uint256 eligibleHolders = balanceTracker.treeAbove(minimumHolding);\r\n        uint256 teamTokens = balances[ poolAddress ]*teamShare/100;\r\n        uint256 holderTokens = balances[poolAddress] - teamTokens;\r\n        uint256 top100Tokens;\r\n            if (eligibleHolders.mul(50).div(100)==0)\r\n                top100Tokens = 0;\r\n            \r\n            else\r\n                top100Tokens = (holderTokens.mul(18).div(100)).div(  eligibleHolders.sub(eligibleHolders.mul(30).div(100)).sub(eligibleHolders.mul(20).div(100))   ); \r\n\r\n           return top100Tokens;\r\n    }\r\n\r\n\r\n    function poolDispatch() private{\r\n       \r\n        uint256 eligibleHolders = balanceTracker.treeAbove(minimumHolding);\r\n        uint256 teamTokens = balances[ poolAddress ]*teamShare/100;\r\n        uint256 holderTokens = balances[poolAddress] - teamTokens;\r\n        \r\n        \r\n        balances[teamAddressA] =  balances[teamAddressA].add(teamTokens.mul(45).div(100));\r\n        balances[teamAddressB] =  balances[teamAddressB].add(teamTokens.mul(35).div(100));\r\n        balances[teamAddressC] =  balances[teamAddressC].add(teamTokens.mul(20).div(100));\r\n        balances[poolAddress] =  balances[ poolAddress ].sub( teamTokens );\r\n        \r\n        if(eligibleHolders == 0) return;\r\n        \r\n        else if(eligibleHolders == 1){\r\n            balances[balanceTracker.getUserAtRank(1)] = balances[balanceTracker.getUserAtRank(1)].add(holderTokens);\r\n            balances[poolAddress] = balances[poolAddress].sub(holderTokens);\r\n        }\r\n        \r\n        else if(eligibleHolders ==2){\r\n            balances[balanceTracker.getUserAtRank(1)] = balances[balanceTracker.getUserAtRank(1)].add(holderTokens/2);\r\n            balances[balanceTracker.getUserAtRank(2)] = balances[balanceTracker.getUserAtRank(2)].add(holderTokens/2);\r\n            balances[poolAddress] = balances[poolAddress].sub(holderTokens);\r\n        \r\n        }\r\n        else{\r\n             uint256 pioneersTokens= holderTokens.mul(pioneerShare).div(100);\r\n             holderTokens = holderTokens.sub(pioneersTokens);\r\n             \r\n            // Calculate token alocation\r\n            uint256 top20Tokens;\r\n            uint256 top50Tokens;\r\n            uint256 top100Tokens ;\r\n\r\n            if (eligibleHolders.mul(20).div(100)==0)\r\n                top20Tokens = 0;\r\n            else\r\n                top20Tokens = (holderTokens.mul(50).div(100)).div(eligibleHolders.mul(20).div(100)); \r\n\r\n             if (eligibleHolders.mul(30).div(100)==0)\r\n                top50Tokens = 0;\r\n            else\r\n                top50Tokens = (holderTokens.mul(30).div(100)).div(eligibleHolders.mul(30).div(100)); \r\n\r\n             if (eligibleHolders.mul(50).div(100)==0)\r\n                top100Tokens = 0;\r\n            else\r\n                top100Tokens = (holderTokens.mul(18).div(100)).div(  eligibleHolders.sub(eligibleHolders.mul(30).div(100)).sub(eligibleHolders.mul(20).div(100))   );\r\n            \r\n             \r\n            uint256 treeCount = balanceTracker.treeCount();\r\n            for (uint256 i=treeCount; i>treeCount-eligibleHolders; i--) {\r\n                 address currentUser = balanceTracker.getUserAtRank(i);\r\n                \r\n                if(isPioneer(currentUser) && balances[currentUser] > minimumHoldingPioneer ){\r\n                    balances[currentUser] = balances[currentUser].add( pioneersTokens / pioneers.length );\r\n                    balances[poolAddress] =  balances[ poolAddress ].sub( pioneersTokens /  pioneers.length );\r\n                    emit Transfer(poolAddress, currentUser, pioneersTokens /  pioneers.length);\r\n                }\r\n                \r\n                \r\n                if(i > treeCount - eligibleHolders.mul(20).div(100) ){\r\n                    \r\n                    balances[currentUser] = balances[currentUser].add( top20Tokens );\r\n                    balances[poolAddress] =  balances[ poolAddress ].sub( top20Tokens );\r\n                    emit Transfer(poolAddress, currentUser, top20Tokens);\r\n                    \r\n                }\r\n                else if(i > treeCount - eligibleHolders.mul(20).div(100).add( eligibleHolders.mul(30).div(100) ) ){\r\n\r\n                    balances[currentUser] = balances[currentUser].add( top50Tokens );\r\n                    balances[poolAddress] =  balances[ poolAddress ].sub( top50Tokens );\r\n                    emit Transfer(poolAddress, currentUser, top50Tokens);\r\n                }\r\n                else{\r\n\r\n                    balances[currentUser] = balances[currentUser].add( top100Tokens );\r\n                    balances[poolAddress] =  balances[ poolAddress ].sub( top100Tokens );\r\n                    emit Transfer(poolAddress, currentUser, top100Tokens);\r\n                }\r\n                \r\n                \r\n \r\n                     \r\n            }\r\n        }\r\n\r\n        \r\n    }\r\n    \r\n    function forceDispatch() public onlyOwner{\r\n        poolDispatch();\r\n        \r\n    }\r\n        //getters\r\n    \r\n   \r\n    //tmp\r\n    function getPoolBalance() public  view returns (uint256) {\r\n    return balances[poolAddress];\r\n    }\r\n    //tmp\r\n    function getPoolAddress() public  view returns (address) {\r\n    return poolAddress;\r\n    }\r\n    \r\n    function getLevel() public  view returns (uint256) {\r\n    return level;\r\n    }\r\n    \r\n    function enableFees() public view returns(bool){\r\n        return feesEnabled;\r\n    }\r\n    \r\n    \r\n    //setters (owner)\r\n    \r\n    function enableFees(bool enable) public onlyOwner{\r\n        feesEnabled = enable;\r\n    }\r\n    \r\n    function setLevel(uint256 level_) public onlyOwner{\r\n        level = level_;\r\n    }\r\n    \r\n    function setBalanceTracker(address addr) public onlyOwner{\r\n        balanceTracker = BalanceTrackerI(addr);\r\n    }\r\n    function setPresaleAddress(address addr) public onlyOwner{\r\n        presaleAddress = addr;\r\n        balanceTracker.makeAddressIneligible(addr);\r\n    }\r\n    //tmp\r\n    function setPoolAddress(address addr) public onlyOwner{\r\n        poolAddress = addr;\r\n        balanceTracker.makeAddressIneligible(addr);\r\n    }\r\n    \r\n    function burn(uint256 amount) public onlyOwner{\r\n        balances[msg.sender] = balances[msg.sender].sub(amount);\r\n        totalSupply_ = totalSupply_.sub(amount);\r\n    }\r\n    \r\n    \r\n    \r\n}\r\n\r\n\r\n\r\n ",
  "sourcePath": "C:/Users/slima/dev/StairToken/truffle_project/contracts/StairToken.sol",
  "compiler": {
    "name": "solc",
    "version": "0.7.3+commit.9bfce1f6.Emscripten.clang"
  },
  "schemaVersion": "3.4.0",
  "updatedAt": "2021-05-07T13:35:41.832Z",
  "devdoc": {
    "kind": "dev",
    "methods": {},
    "version": 1
  },
  "userdoc": {
    "kind": "user",
    "methods": {},
    "version": 1
  }
}