{
  "contractName": "STAIRToken",
  "abi": [
    {
      "inputs": [
        {
          "internalType": "uint256",
          "name": "total",
          "type": "uint256"
        },
        {
          "internalType": "address",
          "name": "poolAddress_",
          "type": "address"
        },
        {
          "internalType": "address",
          "name": "teamAddressA_",
          "type": "address"
        },
        {
          "internalType": "address",
          "name": "teamAddressB_",
          "type": "address"
        },
        {
          "internalType": "address",
          "name": "teamAddressC_",
          "type": "address"
        }
      ],
      "stateMutability": "nonpayable",
      "type": "constructor"
    },
    {
      "anonymous": false,
      "inputs": [
        {
          "indexed": true,
          "internalType": "address",
          "name": "owner",
          "type": "address"
        },
        {
          "indexed": true,
          "internalType": "address",
          "name": "spender",
          "type": "address"
        },
        {
          "indexed": false,
          "internalType": "uint256",
          "name": "value",
          "type": "uint256"
        }
      ],
      "name": "Approval",
      "type": "event"
    },
    {
      "anonymous": false,
      "inputs": [
        {
          "indexed": true,
          "internalType": "address",
          "name": "from",
          "type": "address"
        },
        {
          "indexed": true,
          "internalType": "address",
          "name": "to",
          "type": "address"
        },
        {
          "indexed": false,
          "internalType": "uint256",
          "name": "value",
          "type": "uint256"
        }
      ],
      "name": "Transfer",
      "type": "event"
    },
    {
      "inputs": [],
      "name": "decimals",
      "outputs": [
        {
          "internalType": "uint8",
          "name": "",
          "type": "uint8"
        }
      ],
      "stateMutability": "view",
      "type": "function",
      "constant": true
    },
    {
      "inputs": [],
      "name": "name",
      "outputs": [
        {
          "internalType": "string",
          "name": "",
          "type": "string"
        }
      ],
      "stateMutability": "view",
      "type": "function",
      "constant": true
    },
    {
      "inputs": [],
      "name": "symbol",
      "outputs": [
        {
          "internalType": "string",
          "name": "",
          "type": "string"
        }
      ],
      "stateMutability": "view",
      "type": "function",
      "constant": true
    },
    {
      "inputs": [],
      "name": "totalSupply",
      "outputs": [
        {
          "internalType": "uint256",
          "name": "",
          "type": "uint256"
        }
      ],
      "stateMutability": "view",
      "type": "function",
      "constant": true
    },
    {
      "inputs": [
        {
          "internalType": "address",
          "name": "tokenOwner",
          "type": "address"
        }
      ],
      "name": "balanceOf",
      "outputs": [
        {
          "internalType": "uint256",
          "name": "",
          "type": "uint256"
        }
      ],
      "stateMutability": "view",
      "type": "function",
      "constant": true
    },
    {
      "inputs": [
        {
          "internalType": "address",
          "name": "receiver",
          "type": "address"
        },
        {
          "internalType": "uint256",
          "name": "numTokens",
          "type": "uint256"
        }
      ],
      "name": "transfer",
      "outputs": [
        {
          "internalType": "bool",
          "name": "",
          "type": "bool"
        }
      ],
      "stateMutability": "nonpayable",
      "type": "function"
    },
    {
      "inputs": [
        {
          "internalType": "address",
          "name": "delegate",
          "type": "address"
        },
        {
          "internalType": "uint256",
          "name": "numTokens",
          "type": "uint256"
        }
      ],
      "name": "approve",
      "outputs": [
        {
          "internalType": "bool",
          "name": "",
          "type": "bool"
        }
      ],
      "stateMutability": "nonpayable",
      "type": "function"
    },
    {
      "inputs": [
        {
          "internalType": "address",
          "name": "owner",
          "type": "address"
        },
        {
          "internalType": "address",
          "name": "delegate",
          "type": "address"
        }
      ],
      "name": "allowance",
      "outputs": [
        {
          "internalType": "uint256",
          "name": "",
          "type": "uint256"
        }
      ],
      "stateMutability": "view",
      "type": "function",
      "constant": true
    },
    {
      "inputs": [
        {
          "internalType": "address",
          "name": "owner",
          "type": "address"
        },
        {
          "internalType": "address",
          "name": "buyer",
          "type": "address"
        },
        {
          "internalType": "uint256",
          "name": "numTokens",
          "type": "uint256"
        }
      ],
      "name": "transferFrom",
      "outputs": [
        {
          "internalType": "bool",
          "name": "",
          "type": "bool"
        }
      ],
      "stateMutability": "nonpayable",
      "type": "function"
    },
    {
      "inputs": [
        {
          "internalType": "address",
          "name": "from",
          "type": "address"
        },
        {
          "internalType": "address",
          "name": "to",
          "type": "address"
        },
        {
          "internalType": "uint256",
          "name": "amount",
          "type": "uint256"
        }
      ],
      "name": "transfer_",
      "outputs": [
        {
          "internalType": "bool",
          "name": "",
          "type": "bool"
        }
      ],
      "stateMutability": "nonpayable",
      "type": "function"
    },
    {
      "inputs": [
        {
          "internalType": "address",
          "name": "pionner",
          "type": "address"
        }
      ],
      "name": "isPioneer",
      "outputs": [
        {
          "internalType": "bool",
          "name": "",
          "type": "bool"
        }
      ],
      "stateMutability": "nonpayable",
      "type": "function"
    },
    {
      "inputs": [],
      "name": "getEligibleHolders",
      "outputs": [
        {
          "internalType": "uint256",
          "name": "",
          "type": "uint256"
        }
      ],
      "stateMutability": "view",
      "type": "function",
      "constant": true
    },
    {
      "inputs": [],
      "name": "top20Tokens",
      "outputs": [
        {
          "internalType": "uint256",
          "name": "",
          "type": "uint256"
        }
      ],
      "stateMutability": "view",
      "type": "function",
      "constant": true
    },
    {
      "inputs": [],
      "name": "top50Tokens",
      "outputs": [
        {
          "internalType": "uint256",
          "name": "",
          "type": "uint256"
        }
      ],
      "stateMutability": "view",
      "type": "function",
      "constant": true
    },
    {
      "inputs": [],
      "name": "top100Tokens",
      "outputs": [
        {
          "internalType": "uint256",
          "name": "",
          "type": "uint256"
        }
      ],
      "stateMutability": "view",
      "type": "function",
      "constant": true
    },
    {
      "inputs": [],
      "name": "forceDispatch",
      "outputs": [],
      "stateMutability": "nonpayable",
      "type": "function"
    },
    {
      "inputs": [],
      "name": "getPoolBalance",
      "outputs": [
        {
          "internalType": "uint256",
          "name": "",
          "type": "uint256"
        }
      ],
      "stateMutability": "view",
      "type": "function",
      "constant": true
    },
    {
      "inputs": [],
      "name": "getPoolAddress",
      "outputs": [
        {
          "internalType": "address",
          "name": "",
          "type": "address"
        }
      ],
      "stateMutability": "view",
      "type": "function",
      "constant": true
    },
    {
      "inputs": [],
      "name": "getLevel",
      "outputs": [
        {
          "internalType": "uint256",
          "name": "",
          "type": "uint256"
        }
      ],
      "stateMutability": "view",
      "type": "function",
      "constant": true
    },
    {
      "inputs": [
        {
          "internalType": "address",
          "name": "addr",
          "type": "address"
        }
      ],
      "name": "setPoolAddress",
      "outputs": [],
      "stateMutability": "nonpayable",
      "type": "function"
    },
    {
      "inputs": [
        {
          "internalType": "bool",
          "name": "enable",
          "type": "bool"
        }
      ],
      "name": "enableFees",
      "outputs": [],
      "stateMutability": "nonpayable",
      "type": "function"
    },
    {
      "inputs": [],
      "name": "enableFees",
      "outputs": [
        {
          "internalType": "bool",
          "name": "",
          "type": "bool"
        }
      ],
      "stateMutability": "view",
      "type": "function",
      "constant": true
    },
    {
      "inputs": [
        {
          "internalType": "uint256",
          "name": "level_",
          "type": "uint256"
        }
      ],
      "name": "setLevel",
      "outputs": [],
      "stateMutability": "nonpayable",
      "type": "function"
    },
    {
      "inputs": [
        {
          "internalType": "address",
          "name": "addr",
          "type": "address"
        }
      ],
      "name": "setBalanceTracker",
      "outputs": [],
      "stateMutability": "nonpayable",
      "type": "function"
    },
    {
      "inputs": [
        {
          "internalType": "uint256",
          "name": "amount",
          "type": "uint256"
        }
      ],
      "name": "burn",
      "outputs": [],
      "stateMutability": "nonpayable",
      "type": "function"
    }
  ],
  "bytecode": "0x60806040526001600560006101000a81548160ff021916908315150217905550606460095534801561003057600080fd5b506040516200428138038062004281833981810160405260a081101561005557600080fd5b81019080805190602001909291908051906020019092919080519060200190929190805190602001909291908051906020019092919050505084600181905550600154600260003373ffffffffffffffffffffffffffffffffffffffff1673ffffffffffffffffffffffffffffffffffffffff16815260200190815260200160002081905550336000806101000a81548173ffffffffffffffffffffffffffffffffffffffff021916908373ffffffffffffffffffffffffffffffffffffffff16021790555083600560016101000a81548173ffffffffffffffffffffffffffffffffffffffff021916908373ffffffffffffffffffffffffffffffffffffffff16021790555082600660006101000a81548173ffffffffffffffffffffffffffffffffffffffff021916908373ffffffffffffffffffffffffffffffffffffffff16021790555081600760006101000a81548173ffffffffffffffffffffffffffffffffffffffff021916908373ffffffffffffffffffffffffffffffffffffffff16021790555080600860006101000a81548173ffffffffffffffffffffffffffffffffffffffff021916908373ffffffffffffffffffffffffffffffffffffffff160217905550505050505061404d80620002346000396000f3fe608060405234801561001057600080fd5b50600436106101735760003560e01c8063598b75ad116100de578063a9059cbb11610097578063d7d627ec11610071578063d7d627ec146106cf578063dd62ed3e146106ed578063e9e15b4f14610765578063f586c6d9146107a957610173565b8063a9059cbb1461062f578063abd70aa214610693578063afe7b54e146106b157610173565b8063598b75ad1461045057806370a08231146104945780637150f119146104ec57806395d89b411461050a578063a1a6d5fc1461058d578063a5985e8c1461061157610173565b806327a5428b1161013057806327a5428b146103795780632bf5eabb146103a75780632f6aa3e4146103d7578063313ce567146103e1578063368f5bd51461040257806342966c681461042257610173565b806306fdde0314610178578063095ea7b3146101fb5780631406248b1461025f57806318160ddd1461027d578063197d63a11461029b57806323b872dd146102f5575b600080fd5b6101806107dd565b6040518080602001828103825283818151815260200191508051906020019080838360005b838110156101c05780820151818401526020810190506101a5565b50505050905090810190601f1680156101ed5780820380516001836020036101000a031916815260200191505b509250505060405180910390f35b6102476004803603604081101561021157600080fd5b81019080803573ffffffffffffffffffffffffffffffffffffffff16906020019092919080359060200190929190505050610816565b60405180821515815260200191505060405180910390f35b610267610908565b6040518082815260200191505060405180910390f35b610285610b3c565b6040518082815260200191505060405180910390f35b6102dd600480360360208110156102b157600080fd5b81019080803573ffffffffffffffffffffffffffffffffffffffff169060200190929190505050610b46565b60405180821515815260200191505060405180910390f35b6103616004803603606081101561030b57600080fd5b81019080803573ffffffffffffffffffffffffffffffffffffffff169060200190929190803573ffffffffffffffffffffffffffffffffffffffff16906020019092919080359060200190929190505050610be8565b60405180821515815260200191505060405180910390f35b6103a56004803603602081101561038f57600080fd5b8101908080359060200190929190505050610cd6565b005b6103d5600480360360208110156103bd57600080fd5b81019080803515159060200190929190505050610d38565b005b6103df610dad565b005b6103e9610e0f565b604051808260ff16815260200191505060405180910390f35b61040a610e14565b60405180821515815260200191505060405180910390f35b61044e6004803603602081101561043857600080fd5b8101908080359060200190929190505050610e2b565b005b6104926004803603602081101561046657600080fd5b81019080803573ffffffffffffffffffffffffffffffffffffffff169060200190929190505050610f36565b005b6104d6600480360360208110156104aa57600080fd5b81019080803573ffffffffffffffffffffffffffffffffffffffff169060200190929190505050610fd2565b6040518082815260200191505060405180910390f35b6104f461101b565b6040518082815260200191505060405180910390f35b6105126110d1565b6040518080602001828103825283818151815260200191508051906020019080838360005b83811015610552578082015181840152602081019050610537565b50505050905090810190601f16801561057f5780820380516001836020036101000a031916815260200191505b509250505060405180910390f35b6105f9600480360360608110156105a357600080fd5b81019080803573ffffffffffffffffffffffffffffffffffffffff169060200190929190803573ffffffffffffffffffffffffffffffffffffffff1690602001909291908035906020019092919050505061110a565b60405180821515815260200191505060405180910390f35b610619611891565b6040518082815260200191505060405180910390f35b61067b6004803603604081101561064557600080fd5b81019080803573ffffffffffffffffffffffffffffffffffffffff1690602001909291908035906020019092919050505061189b565b60405180821515815260200191505060405180910390f35b61069b6118ff565b6040518082815260200191505060405180910390f35b6106b9611968565b6040518082815260200191505060405180910390f35b6106d7611be6565b6040518082815260200191505060405180910390f35b61074f6004803603604081101561070357600080fd5b81019080803573ffffffffffffffffffffffffffffffffffffffff169060200190929190803573ffffffffffffffffffffffffffffffffffffffff169060200190929190505050611e2e565b6040518082815260200191505060405180910390f35b6107a76004803603602081101561077b57600080fd5b81019080803573ffffffffffffffffffffffffffffffffffffffff169060200190929190505050611eb5565b005b6107b1611ff4565b604051808273ffffffffffffffffffffffffffffffffffffffff16815260200191505060405180910390f35b6040518060400160405280600581526020017f535441495200000000000000000000000000000000000000000000000000000081525081565b600081600360003373ffffffffffffffffffffffffffffffffffffffff1673ffffffffffffffffffffffffffffffffffffffff16815260200190815260200160002060008573ffffffffffffffffffffffffffffffffffffffff1673ffffffffffffffffffffffffffffffffffffffff168152602001908152602001600020819055508273ffffffffffffffffffffffffffffffffffffffff163373ffffffffffffffffffffffffffffffffffffffff167f8c5be1e5ebec7d5bd14f71427d1e84f3dd0314c0f7b2291e5b200ac8c7c3b925846040518082815260200191505060405180910390a36001905092915050565b600080600a60009054906101000a900473ffffffffffffffffffffffffffffffffffffffff1673ffffffffffffffffffffffffffffffffffffffff16632ab0ae22600a6040518263ffffffff1660e01b81526004018082815260200191505060206040518083038186803b15801561097f57600080fd5b505afa158015610993573d6000803e3d6000fd5b505050506040513d60208110156109a957600080fd5b8101908080519060200190929190505050905060006064602860026000600560019054906101000a900473ffffffffffffffffffffffffffffffffffffffff1673ffffffffffffffffffffffffffffffffffffffff1673ffffffffffffffffffffffffffffffffffffffff168152602001908152602001600020540281610a2c57fe5b04905060008160026000600560019054906101000a900473ffffffffffffffffffffffffffffffffffffffff1673ffffffffffffffffffffffffffffffffffffffff1673ffffffffffffffffffffffffffffffffffffffff16815260200190815260200160002054039050600080610ac16064610ab360148861201e90919063ffffffff16565b6120a490919063ffffffff16565b1415610ad05760009050610b32565b610b2f610afa6064610aec60148861201e90919063ffffffff16565b6120a490919063ffffffff16565b610b216064610b1360328761201e90919063ffffffff16565b6120a490919063ffffffff16565b6120a490919063ffffffff16565b90505b8094505050505090565b6000600154905090565b600080600090505b600480549050811015610bdd578273ffffffffffffffffffffffffffffffffffffffff1660048281548110610b7f57fe5b9060005260206000200160009054906101000a900473ffffffffffffffffffffffffffffffffffffffff1673ffffffffffffffffffffffffffffffffffffffff161415610bd0576001915050610be3565b8080600101915050610b4e565b50600090505b919050565b6000600260008573ffffffffffffffffffffffffffffffffffffffff1673ffffffffffffffffffffffffffffffffffffffff16815260200190815260200160002054821115610c3657600080fd5b600360008573ffffffffffffffffffffffffffffffffffffffff1673ffffffffffffffffffffffffffffffffffffffff16815260200190815260200160002060003373ffffffffffffffffffffffffffffffffffffffff1673ffffffffffffffffffffffffffffffffffffffff16815260200190815260200160002054821115610cbf57600080fd5b610cca84848461110a565b50600190509392505050565b60008054906101000a900473ffffffffffffffffffffffffffffffffffffffff1673ffffffffffffffffffffffffffffffffffffffff163373ffffffffffffffffffffffffffffffffffffffff1614610d2e57600080fd5b8060098190555050565b60008054906101000a900473ffffffffffffffffffffffffffffffffffffffff1673ffffffffffffffffffffffffffffffffffffffff163373ffffffffffffffffffffffffffffffffffffffff1614610d9057600080fd5b80600560006101000a81548160ff02191690831515021790555050565b60008054906101000a900473ffffffffffffffffffffffffffffffffffffffff1673ffffffffffffffffffffffffffffffffffffffff163373ffffffffffffffffffffffffffffffffffffffff1614610e0557600080fd5b610e0d6120ee565b565b600081565b6000600560009054906101000a900460ff16905090565b60008054906101000a900473ffffffffffffffffffffffffffffffffffffffff1673ffffffffffffffffffffffffffffffffffffffff163373ffffffffffffffffffffffffffffffffffffffff1614610e8357600080fd5b610ed581600260003373ffffffffffffffffffffffffffffffffffffffff1673ffffffffffffffffffffffffffffffffffffffff16815260200190815260200160002054613d9e90919063ffffffff16565b600260003373ffffffffffffffffffffffffffffffffffffffff1673ffffffffffffffffffffffffffffffffffffffff16815260200190815260200160002081905550610f2d81600154613d9e90919063ffffffff16565b60018190555050565b60008054906101000a900473ffffffffffffffffffffffffffffffffffffffff1673ffffffffffffffffffffffffffffffffffffffff163373ffffffffffffffffffffffffffffffffffffffff1614610f8e57600080fd5b80600a60006101000a81548173ffffffffffffffffffffffffffffffffffffffff021916908373ffffffffffffffffffffffffffffffffffffffff16021790555050565b6000600260008373ffffffffffffffffffffffffffffffffffffffff1673ffffffffffffffffffffffffffffffffffffffff168152602001908152602001600020549050919050565b6000600a60009054906101000a900473ffffffffffffffffffffffffffffffffffffffff1673ffffffffffffffffffffffffffffffffffffffff16632ab0ae22600a6040518263ffffffff1660e01b81526004018082815260200191505060206040518083038186803b15801561109157600080fd5b505afa1580156110a5573d6000803e3d6000fd5b505050506040513d60208110156110bb57600080fd5b8101908080519060200190929190505050905090565b6040518060400160405280600581526020017f535441495200000000000000000000000000000000000000000000000000000081525081565b6000600560009054906101000a900460ff1680156111e95750600a60009054906101000a900473ffffffffffffffffffffffffffffffffffffffff1673ffffffffffffffffffffffffffffffffffffffff16639f47c3d3856040518263ffffffff1660e01b8152600401808273ffffffffffffffffffffffffffffffffffffffff16815260200191505060206040518083038186803b1580156111ac57600080fd5b505afa1580156111c0573d6000803e3d6000fd5b505050506040513d60208110156111d657600080fd5b8101908080519060200190929190505050155b1561153d57600061121a606461120c600a6064038661201e90919063ffffffff16565b6120a490919063ffffffff16565b905060006112456064611237600a8761201e90919063ffffffff16565b6120a490919063ffffffff16565b905061129984600260008973ffffffffffffffffffffffffffffffffffffffff1673ffffffffffffffffffffffffffffffffffffffff16815260200190815260200160002054613d9e90919063ffffffff16565b600260008873ffffffffffffffffffffffffffffffffffffffff1673ffffffffffffffffffffffffffffffffffffffff1681526020019081526020016000208190555061132e82600260008873ffffffffffffffffffffffffffffffffffffffff1673ffffffffffffffffffffffffffffffffffffffff16815260200190815260200160002054613de890919063ffffffff16565b600260008773ffffffffffffffffffffffffffffffffffffffff1673ffffffffffffffffffffffffffffffffffffffff168152602001908152602001600020819055506113e58160026000600560019054906101000a900473ffffffffffffffffffffffffffffffffffffffff1673ffffffffffffffffffffffffffffffffffffffff1673ffffffffffffffffffffffffffffffffffffffff16815260200190815260200160002054613de890919063ffffffff16565b60026000600560019054906101000a900473ffffffffffffffffffffffffffffffffffffffff1673ffffffffffffffffffffffffffffffffffffffff1673ffffffffffffffffffffffffffffffffffffffff168152602001908152602001600020819055508473ffffffffffffffffffffffffffffffffffffffff168673ffffffffffffffffffffffffffffffffffffffff167fddf252ad1be2c89b69c2b068fc378daa952ba7f163c4a11628f55a4df523b3ef846040518082815260200191505060405180910390a3600560019054906101000a900473ffffffffffffffffffffffffffffffffffffffff1673ffffffffffffffffffffffffffffffffffffffff168673ffffffffffffffffffffffffffffffffffffffff167fddf252ad1be2c89b69c2b068fc378daa952ba7f163c4a11628f55a4df523b3ef836040518082815260200191505060405180910390a350506116cd565b61158f82600260008773ffffffffffffffffffffffffffffffffffffffff1673ffffffffffffffffffffffffffffffffffffffff16815260200190815260200160002054613d9e90919063ffffffff16565b600260008673ffffffffffffffffffffffffffffffffffffffff1673ffffffffffffffffffffffffffffffffffffffff1681526020019081526020016000208190555061162482600260008673ffffffffffffffffffffffffffffffffffffffff1673ffffffffffffffffffffffffffffffffffffffff16815260200190815260200160002054613de890919063ffffffff16565b600260008573ffffffffffffffffffffffffffffffffffffffff1673ffffffffffffffffffffffffffffffffffffffff168152602001908152602001600020819055508273ffffffffffffffffffffffffffffffffffffffff168473ffffffffffffffffffffffffffffffffffffffff167fddf252ad1be2c89b69c2b068fc378daa952ba7f163c4a11628f55a4df523b3ef846040518082815260200191505060405180910390a35b600a60009054906101000a900473ffffffffffffffffffffffffffffffffffffffff1673ffffffffffffffffffffffffffffffffffffffff1663993ae7e9856040518263ffffffff1660e01b8152600401808273ffffffffffffffffffffffffffffffffffffffff168152602001915050600060405180830381600087803b15801561175857600080fd5b505af115801561176c573d6000803e3d6000fd5b50505050600a60009054906101000a900473ffffffffffffffffffffffffffffffffffffffff1673ffffffffffffffffffffffffffffffffffffffff1663993ae7e9846040518263ffffffff1660e01b8152600401808273ffffffffffffffffffffffffffffffffffffffff168152602001915050600060405180830381600087803b1580156117fb57600080fd5b505af115801561180f573d6000803e3d6000fd5b5050505060095460026000600560019054906101000a900473ffffffffffffffffffffffffffffffffffffffff1673ffffffffffffffffffffffffffffffffffffffff1673ffffffffffffffffffffffffffffffffffffffff1681526020019081526020016000205410611886576118856120ee565b5b600190509392505050565b6000600954905090565b6000600260003373ffffffffffffffffffffffffffffffffffffffff1673ffffffffffffffffffffffffffffffffffffffff168152602001908152602001600020548211156118e957600080fd5b6118f433848461110a565b506001905092915050565b600060026000600560019054906101000a900473ffffffffffffffffffffffffffffffffffffffff1673ffffffffffffffffffffffffffffffffffffffff1673ffffffffffffffffffffffffffffffffffffffff16815260200190815260200160002054905090565b600080600a60009054906101000a900473ffffffffffffffffffffffffffffffffffffffff1673ffffffffffffffffffffffffffffffffffffffff16632ab0ae22600a6040518263ffffffff1660e01b81526004018082815260200191505060206040518083038186803b1580156119df57600080fd5b505afa1580156119f3573d6000803e3d6000fd5b505050506040513d6020811015611a0957600080fd5b8101908080519060200190929190505050905060006064602860026000600560019054906101000a900473ffffffffffffffffffffffffffffffffffffffff1673ffffffffffffffffffffffffffffffffffffffff1673ffffffffffffffffffffffffffffffffffffffff168152602001908152602001600020540281611a8c57fe5b04905060008160026000600560019054906101000a900473ffffffffffffffffffffffffffffffffffffffff1673ffffffffffffffffffffffffffffffffffffffff1673ffffffffffffffffffffffffffffffffffffffff16815260200190815260200160002054039050600080611b216064611b1360328861201e90919063ffffffff16565b6120a490919063ffffffff16565b1415611b305760009050611bdc565b611bd9611ba4611b5d6064611b4f60148961201e90919063ffffffff16565b6120a490919063ffffffff16565b611b96611b876064611b79601e8b61201e90919063ffffffff16565b6120a490919063ffffffff16565b88613d9e90919063ffffffff16565b613d9e90919063ffffffff16565b611bcb6064611bbd60128761201e90919063ffffffff16565b6120a490919063ffffffff16565b6120a490919063ffffffff16565b90505b8094505050505090565b600080600a60009054906101000a900473ffffffffffffffffffffffffffffffffffffffff1673ffffffffffffffffffffffffffffffffffffffff16632ab0ae22600a6040518263ffffffff1660e01b81526004018082815260200191505060206040518083038186803b158015611c5d57600080fd5b505afa158015611c71573d6000803e3d6000fd5b505050506040513d6020811015611c8757600080fd5b8101908080519060200190929190505050905060006064602860026000600560019054906101000a900473ffffffffffffffffffffffffffffffffffffffff1673ffffffffffffffffffffffffffffffffffffffff1673ffffffffffffffffffffffffffffffffffffffff168152602001908152602001600020540281611d0a57fe5b04905060008160026000600560019054906101000a900473ffffffffffffffffffffffffffffffffffffffff1673ffffffffffffffffffffffffffffffffffffffff1673ffffffffffffffffffffffffffffffffffffffff16815260200190815260200160002054039050600080611d80610908565b90506000601e90506000611db16064611da3601e8a61201e90919063ffffffff16565b6120a490919063ffffffff16565b1415611dc05760009250611e22565b611e1f611dea6064611ddc601e8a61201e90919063ffffffff16565b6120a490919063ffffffff16565b611e116064611e03601e8961201e90919063ffffffff16565b6120a490919063ffffffff16565b6120a490919063ffffffff16565b92505b82965050505050505090565b6000600360008473ffffffffffffffffffffffffffffffffffffffff1673ffffffffffffffffffffffffffffffffffffffff16815260200190815260200160002060008373ffffffffffffffffffffffffffffffffffffffff1673ffffffffffffffffffffffffffffffffffffffff16815260200190815260200160002054905092915050565b60008054906101000a900473ffffffffffffffffffffffffffffffffffffffff1673ffffffffffffffffffffffffffffffffffffffff163373ffffffffffffffffffffffffffffffffffffffff1614611f0d57600080fd5b80600560016101000a81548173ffffffffffffffffffffffffffffffffffffffff021916908373ffffffffffffffffffffffffffffffffffffffff160217905550600a60009054906101000a900473ffffffffffffffffffffffffffffffffffffffff1673ffffffffffffffffffffffffffffffffffffffff16632362851f826040518263ffffffff1660e01b8152600401808273ffffffffffffffffffffffffffffffffffffffff168152602001915050600060405180830381600087803b158015611fd957600080fd5b505af1158015611fed573d6000803e3d6000fd5b5050505050565b6000600560019054906101000a900473ffffffffffffffffffffffffffffffffffffffff16905090565b600080831415612031576000905061209e565b600082840290508284828161204257fe5b0414612099576040517f08c379a0000000000000000000000000000000000000000000000000000000008152600401808060200182810382526021815260200180613ff76021913960400191505060405180910390fd5b809150505b92915050565b60006120e683836040518060400160405280601a81526020017f536166654d6174683a206469766973696f6e206279207a65726f000000000000815250613e70565b905092915050565b6000600a60009054906101000a900473ffffffffffffffffffffffffffffffffffffffff1673ffffffffffffffffffffffffffffffffffffffff16632ab0ae22600a6040518263ffffffff1660e01b81526004018082815260200191505060206040518083038186803b15801561216457600080fd5b505afa158015612178573d6000803e3d6000fd5b505050506040513d602081101561218e57600080fd5b8101908080519060200190929190505050905060006064602860026000600560019054906101000a900473ffffffffffffffffffffffffffffffffffffffff1673ffffffffffffffffffffffffffffffffffffffff1673ffffffffffffffffffffffffffffffffffffffff16815260200190815260200160002054028161221157fe5b04905060008160026000600560019054906101000a900473ffffffffffffffffffffffffffffffffffffffff1673ffffffffffffffffffffffffffffffffffffffff1673ffffffffffffffffffffffffffffffffffffffff168152602001908152602001600020540390506123166122a66064612298602d8661201e90919063ffffffff16565b6120a490919063ffffffff16565b60026000600660009054906101000a900473ffffffffffffffffffffffffffffffffffffffff1673ffffffffffffffffffffffffffffffffffffffff1673ffffffffffffffffffffffffffffffffffffffff16815260200190815260200160002054613de890919063ffffffff16565b60026000600660009054906101000a900473ffffffffffffffffffffffffffffffffffffffff1673ffffffffffffffffffffffffffffffffffffffff1673ffffffffffffffffffffffffffffffffffffffff168152602001908152602001600020819055506124156123a5606461239760238661201e90919063ffffffff16565b6120a490919063ffffffff16565b60026000600760009054906101000a900473ffffffffffffffffffffffffffffffffffffffff1673ffffffffffffffffffffffffffffffffffffffff1673ffffffffffffffffffffffffffffffffffffffff16815260200190815260200160002054613de890919063ffffffff16565b60026000600760009054906101000a900473ffffffffffffffffffffffffffffffffffffffff1673ffffffffffffffffffffffffffffffffffffffff1673ffffffffffffffffffffffffffffffffffffffff168152602001908152602001600020819055506125146124a4606461249660148661201e90919063ffffffff16565b6120a490919063ffffffff16565b60026000600860009054906101000a900473ffffffffffffffffffffffffffffffffffffffff1673ffffffffffffffffffffffffffffffffffffffff1673ffffffffffffffffffffffffffffffffffffffff16815260200190815260200160002054613de890919063ffffffff16565b60026000600860009054906101000a900473ffffffffffffffffffffffffffffffffffffffff1673ffffffffffffffffffffffffffffffffffffffff1673ffffffffffffffffffffffffffffffffffffffff168152602001908152602001600020819055506125ed8260026000600560019054906101000a900473ffffffffffffffffffffffffffffffffffffffff1673ffffffffffffffffffffffffffffffffffffffff1673ffffffffffffffffffffffffffffffffffffffff16815260200190815260200160002054613d9e90919063ffffffff16565b60026000600560019054906101000a900473ffffffffffffffffffffffffffffffffffffffff1673ffffffffffffffffffffffffffffffffffffffff1673ffffffffffffffffffffffffffffffffffffffff16815260200190815260200160002081905550600083141561266357505050613d9c565b600183141561293b5761276c8160026000600a60009054906101000a900473ffffffffffffffffffffffffffffffffffffffff1673ffffffffffffffffffffffffffffffffffffffff1663c7a0eea960016040518263ffffffff1660e01b81526004018082815260200191505060206040518083038186803b1580156126e857600080fd5b505afa1580156126fc573d6000803e3d6000fd5b505050506040513d602081101561271257600080fd5b810190808051906020019092919050505073ffffffffffffffffffffffffffffffffffffffff1673ffffffffffffffffffffffffffffffffffffffff16815260200190815260200160002054613de890919063ffffffff16565b60026000600a60009054906101000a900473ffffffffffffffffffffffffffffffffffffffff1673ffffffffffffffffffffffffffffffffffffffff1663c7a0eea960016040518263ffffffff1660e01b81526004018082815260200191505060206040518083038186803b1580156127e457600080fd5b505afa1580156127f8573d6000803e3d6000fd5b505050506040513d602081101561280e57600080fd5b810190808051906020019092919050505073ffffffffffffffffffffffffffffffffffffffff1673ffffffffffffffffffffffffffffffffffffffff168152602001908152602001600020819055506128d18160026000600560019054906101000a900473ffffffffffffffffffffffffffffffffffffffff1673ffffffffffffffffffffffffffffffffffffffff1673ffffffffffffffffffffffffffffffffffffffff16815260200190815260200160002054613d9e90919063ffffffff16565b60026000600560019054906101000a900473ffffffffffffffffffffffffffffffffffffffff1673ffffffffffffffffffffffffffffffffffffffff1673ffffffffffffffffffffffffffffffffffffffff16815260200190815260200160002081905550613d98565b6002831415612e1857612a4e6002828161295157fe5b0460026000600a60009054906101000a900473ffffffffffffffffffffffffffffffffffffffff1673ffffffffffffffffffffffffffffffffffffffff1663c7a0eea960016040518263ffffffff1660e01b81526004018082815260200191505060206040518083038186803b1580156129ca57600080fd5b505afa1580156129de573d6000803e3d6000fd5b505050506040513d60208110156129f457600080fd5b810190808051906020019092919050505073ffffffffffffffffffffffffffffffffffffffff1673ffffffffffffffffffffffffffffffffffffffff16815260200190815260200160002054613de890919063ffffffff16565b60026000600a60009054906101000a900473ffffffffffffffffffffffffffffffffffffffff1673ffffffffffffffffffffffffffffffffffffffff1663c7a0eea960016040518263ffffffff1660e01b81526004018082815260200191505060206040518083038186803b158015612ac657600080fd5b505afa158015612ada573d6000803e3d6000fd5b505050506040513d6020811015612af057600080fd5b810190808051906020019092919050505073ffffffffffffffffffffffffffffffffffffffff1673ffffffffffffffffffffffffffffffffffffffff16815260200190815260200160002081905550612c4960028281612b4c57fe5b0460026000600a60009054906101000a900473ffffffffffffffffffffffffffffffffffffffff1673ffffffffffffffffffffffffffffffffffffffff1663c7a0eea960026040518263ffffffff1660e01b81526004018082815260200191505060206040518083038186803b158015612bc557600080fd5b505afa158015612bd9573d6000803e3d6000fd5b505050506040513d6020811015612bef57600080fd5b810190808051906020019092919050505073ffffffffffffffffffffffffffffffffffffffff1673ffffffffffffffffffffffffffffffffffffffff16815260200190815260200160002054613de890919063ffffffff16565b60026000600a60009054906101000a900473ffffffffffffffffffffffffffffffffffffffff1673ffffffffffffffffffffffffffffffffffffffff1663c7a0eea960026040518263ffffffff1660e01b81526004018082815260200191505060206040518083038186803b158015612cc157600080fd5b505afa158015612cd5573d6000803e3d6000fd5b505050506040513d6020811015612ceb57600080fd5b810190808051906020019092919050505073ffffffffffffffffffffffffffffffffffffffff1673ffffffffffffffffffffffffffffffffffffffff16815260200190815260200160002081905550612dae8160026000600560019054906101000a900473ffffffffffffffffffffffffffffffffffffffff1673ffffffffffffffffffffffffffffffffffffffff1673ffffffffffffffffffffffffffffffffffffffff16815260200190815260200160002054613d9e90919063ffffffff16565b60026000600560019054906101000a900473ffffffffffffffffffffffffffffffffffffffff1673ffffffffffffffffffffffffffffffffffffffff1673ffffffffffffffffffffffffffffffffffffffff16815260200190815260200160002081905550613d97565b600080600080612e456064612e3760148a61201e90919063ffffffff16565b6120a490919063ffffffff16565b1415612e545760009250612eb6565b612eb3612e7e6064612e7060148a61201e90919063ffffffff16565b6120a490919063ffffffff16565b612ea56064612e9760328961201e90919063ffffffff16565b6120a490919063ffffffff16565b6120a490919063ffffffff16565b92505b6000612edf6064612ed1601e8a61201e90919063ffffffff16565b6120a490919063ffffffff16565b1415612eee5760009150612f50565b612f4d612f186064612f0a601e8a61201e90919063ffffffff16565b6120a490919063ffffffff16565b612f3f6064612f31601e8961201e90919063ffffffff16565b6120a490919063ffffffff16565b6120a490919063ffffffff16565b91505b6000612f796064612f6b60328a61201e90919063ffffffff16565b6120a490919063ffffffff16565b1415612f885760009050613034565b613031612ffc612fb56064612fa760148b61201e90919063ffffffff16565b6120a490919063ffffffff16565b612fee612fdf6064612fd1601e8d61201e90919063ffffffff16565b6120a490919063ffffffff16565b8a613d9e90919063ffffffff16565b613d9e90919063ffffffff16565b613023606461301560128961201e90919063ffffffff16565b6120a490919063ffffffff16565b6120a490919063ffffffff16565b90505b6000600a60009054906101000a900473ffffffffffffffffffffffffffffffffffffffff1673ffffffffffffffffffffffffffffffffffffffff1663fea3b6c36040518163ffffffff1660e01b815260040160206040518083038186803b15801561309e57600080fd5b505afa1580156130b2573d6000803e3d6000fd5b505050506040513d60208110156130c857600080fd5b8101908080519060200190929190505050905060008190505b878203811115613d9157613112606461310460148b61201e90919063ffffffff16565b6120a490919063ffffffff16565b820381111561351c5761321a8560026000600a60009054906101000a900473ffffffffffffffffffffffffffffffffffffffff1673ffffffffffffffffffffffffffffffffffffffff1663c7a0eea9866040518263ffffffff1660e01b81526004018082815260200191505060206040518083038186803b15801561319657600080fd5b505afa1580156131aa573d6000803e3d6000fd5b505050506040513d60208110156131c057600080fd5b810190808051906020019092919050505073ffffffffffffffffffffffffffffffffffffffff1673ffffffffffffffffffffffffffffffffffffffff16815260200190815260200160002054613de890919063ffffffff16565b60026000600a60009054906101000a900473ffffffffffffffffffffffffffffffffffffffff1673ffffffffffffffffffffffffffffffffffffffff1663c7a0eea9856040518263ffffffff1660e01b81526004018082815260200191505060206040518083038186803b15801561329157600080fd5b505afa1580156132a5573d6000803e3d6000fd5b505050506040513d60208110156132bb57600080fd5b810190808051906020019092919050505073ffffffffffffffffffffffffffffffffffffffff1673ffffffffffffffffffffffffffffffffffffffff1681526020019081526020016000208190555061337e8560026000600560019054906101000a900473ffffffffffffffffffffffffffffffffffffffff1673ffffffffffffffffffffffffffffffffffffffff1673ffffffffffffffffffffffffffffffffffffffff16815260200190815260200160002054613d9e90919063ffffffff16565b60026000600560019054906101000a900473ffffffffffffffffffffffffffffffffffffffff1673ffffffffffffffffffffffffffffffffffffffff1673ffffffffffffffffffffffffffffffffffffffff16815260200190815260200160002081905550600a60009054906101000a900473ffffffffffffffffffffffffffffffffffffffff1673ffffffffffffffffffffffffffffffffffffffff1663c7a0eea9826040518263ffffffff1660e01b81526004018082815260200191505060206040518083038186803b15801561345657600080fd5b505afa15801561346a573d6000803e3d6000fd5b505050506040513d602081101561348057600080fd5b810190808051906020019092919050505073ffffffffffffffffffffffffffffffffffffffff16600560019054906101000a900473ffffffffffffffffffffffffffffffffffffffff1673ffffffffffffffffffffffffffffffffffffffff167fddf252ad1be2c89b69c2b068fc378daa952ba7f163c4a11628f55a4df523b3ef876040518082815260200191505060405180910390a3613d83565b61357b6135466064613538601e8c61201e90919063ffffffff16565b6120a490919063ffffffff16565b61356d606461355f60148d61201e90919063ffffffff16565b6120a490919063ffffffff16565b613de890919063ffffffff16565b8203811115613985576136838460026000600a60009054906101000a900473ffffffffffffffffffffffffffffffffffffffff1673ffffffffffffffffffffffffffffffffffffffff1663c7a0eea9866040518263ffffffff1660e01b81526004018082815260200191505060206040518083038186803b1580156135ff57600080fd5b505afa158015613613573d6000803e3d6000fd5b505050506040513d602081101561362957600080fd5b810190808051906020019092919050505073ffffffffffffffffffffffffffffffffffffffff1673ffffffffffffffffffffffffffffffffffffffff16815260200190815260200160002054613de890919063ffffffff16565b60026000600a60009054906101000a900473ffffffffffffffffffffffffffffffffffffffff1673ffffffffffffffffffffffffffffffffffffffff1663c7a0eea9856040518263ffffffff1660e01b81526004018082815260200191505060206040518083038186803b1580156136fa57600080fd5b505afa15801561370e573d6000803e3d6000fd5b505050506040513d602081101561372457600080fd5b810190808051906020019092919050505073ffffffffffffffffffffffffffffffffffffffff1673ffffffffffffffffffffffffffffffffffffffff168152602001908152602001600020819055506137e78460026000600560019054906101000a900473ffffffffffffffffffffffffffffffffffffffff1673ffffffffffffffffffffffffffffffffffffffff1673ffffffffffffffffffffffffffffffffffffffff16815260200190815260200160002054613d9e90919063ffffffff16565b60026000600560019054906101000a900473ffffffffffffffffffffffffffffffffffffffff1673ffffffffffffffffffffffffffffffffffffffff1673ffffffffffffffffffffffffffffffffffffffff16815260200190815260200160002081905550600a60009054906101000a900473ffffffffffffffffffffffffffffffffffffffff1673ffffffffffffffffffffffffffffffffffffffff1663c7a0eea9826040518263ffffffff1660e01b81526004018082815260200191505060206040518083038186803b1580156138bf57600080fd5b505afa1580156138d3573d6000803e3d6000fd5b505050506040513d60208110156138e957600080fd5b810190808051906020019092919050505073ffffffffffffffffffffffffffffffffffffffff16600560019054906101000a900473ffffffffffffffffffffffffffffffffffffffff1673ffffffffffffffffffffffffffffffffffffffff167fddf252ad1be2c89b69c2b068fc378daa952ba7f163c4a11628f55a4df523b3ef866040518082815260200191505060405180910390a3613d82565b613a848360026000600a60009054906101000a900473ffffffffffffffffffffffffffffffffffffffff1673ffffffffffffffffffffffffffffffffffffffff1663c7a0eea9866040518263ffffffff1660e01b81526004018082815260200191505060206040518083038186803b158015613a0057600080fd5b505afa158015613a14573d6000803e3d6000fd5b505050506040513d6020811015613a2a57600080fd5b810190808051906020019092919050505073ffffffffffffffffffffffffffffffffffffffff1673ffffffffffffffffffffffffffffffffffffffff16815260200190815260200160002054613de890919063ffffffff16565b60026000600a60009054906101000a900473ffffffffffffffffffffffffffffffffffffffff1673ffffffffffffffffffffffffffffffffffffffff1663c7a0eea9856040518263ffffffff1660e01b81526004018082815260200191505060206040518083038186803b158015613afb57600080fd5b505afa158015613b0f573d6000803e3d6000fd5b505050506040513d6020811015613b2557600080fd5b810190808051906020019092919050505073ffffffffffffffffffffffffffffffffffffffff1673ffffffffffffffffffffffffffffffffffffffff16815260200190815260200160002081905550613be88360026000600560019054906101000a900473ffffffffffffffffffffffffffffffffffffffff1673ffffffffffffffffffffffffffffffffffffffff1673ffffffffffffffffffffffffffffffffffffffff16815260200190815260200160002054613d9e90919063ffffffff16565b60026000600560019054906101000a900473ffffffffffffffffffffffffffffffffffffffff1673ffffffffffffffffffffffffffffffffffffffff1673ffffffffffffffffffffffffffffffffffffffff16815260200190815260200160002081905550600a60009054906101000a900473ffffffffffffffffffffffffffffffffffffffff1673ffffffffffffffffffffffffffffffffffffffff1663c7a0eea9826040518263ffffffff1660e01b81526004018082815260200191505060206040518083038186803b158015613cc057600080fd5b505afa158015613cd4573d6000803e3d6000fd5b505050506040513d6020811015613cea57600080fd5b810190808051906020019092919050505073ffffffffffffffffffffffffffffffffffffffff16600560019054906101000a900473ffffffffffffffffffffffffffffffffffffffff1673ffffffffffffffffffffffffffffffffffffffff167fddf252ad1be2c89b69c2b068fc378daa952ba7f163c4a11628f55a4df523b3ef856040518082815260200191505060405180910390a35b5b8080600190039150506130e1565b50505050505b5b5050505b565b6000613de083836040518060400160405280601e81526020017f536166654d6174683a207375627472616374696f6e206f766572666c6f770000815250613f36565b905092915050565b600080828401905083811015613e66576040517f08c379a000000000000000000000000000000000000000000000000000000000815260040180806020018281038252601b8152602001807f536166654d6174683a206164646974696f6e206f766572666c6f77000000000081525060200191505060405180910390fd5b8091505092915050565b60008083118290613f1c576040517f08c379a00000000000000000000000000000000000000000000000000000000081526004018080602001828103825283818151815260200191508051906020019080838360005b83811015613ee1578082015181840152602081019050613ec6565b50505050905090810190601f168015613f0e5780820380516001836020036101000a031916815260200191505b509250505060405180910390fd5b506000838581613f2857fe5b049050809150509392505050565b6000838311158290613fe3576040517f08c379a00000000000000000000000000000000000000000000000000000000081526004018080602001828103825283818151815260200191508051906020019080838360005b83811015613fa8578082015181840152602081019050613f8d565b50505050905090810190601f168015613fd55780820380516001836020036101000a031916815260200191505b509250505060405180910390fd5b506000838503905080915050939250505056fe536166654d6174683a206d756c7469706c69636174696f6e206f766572666c6f77a2646970667358221220baed43be421905fd094fd4bc95911903ffad9244554e2ae98e7e254a9afb3c7464736f6c63430007030033",
  "immutableReferences": {},
  "source": "pragma solidity 0.7.3;\r\n\r\nimport \"./IERC20.sol\";\r\nimport \"./BalanceTrackerI.sol\";\r\nimport \"./SafeMath.sol\";\r\n\r\n\r\ncontract STAIRToken is IERC20 {\r\n    \r\n    address owner;\r\n       modifier onlyOwner {\r\n        require(\r\n            msg.sender == owner\r\n        );\r\n        _;\r\n    }\r\n    \r\n    string public constant name = \"STAIR\";\r\n    string public constant symbol = \"STAIR\";\r\n    uint8 public constant decimals = 0;\r\n    uint256 totalSupply_;\r\n\r\n    mapping(address => uint256) balances;\r\n    mapping(address => mapping (address => uint256)) allowed;\r\n\r\n    \r\n    uint256 constant poolCommission = 10;\r\n    uint256 constant teamShare = 40;\r\n    uint256 constant holderShare = 60;\r\n    uint256 constant pioneerShare = 3; \r\n    uint256 constant minimumHolding = 10;\r\n    \r\n    address[] pioneers;\r\n    bool feesEnabled = true;\r\n    address poolAddress;\r\n    address teamAddressA;\r\n    address teamAddressB;\r\n    address teamAddressC;\r\n    uint256  level = 100;\r\n\r\n    using SafeMath for uint256;\r\n    \r\n    BalanceTrackerI balanceTracker;\r\n\r\n   constructor(uint256 total\r\n  , address poolAddress_ ,\r\n    address teamAddressA_,\r\n    address teamAddressB_,\r\n    address teamAddressC_\r\n   ) public {\r\n    totalSupply_ = total;\r\n    balances[msg.sender] = totalSupply_;\r\n    owner = msg.sender;\r\n\r\n    poolAddress = poolAddress_;\r\n    teamAddressA = teamAddressA_; //tmp to hardcode \r\n    teamAddressB = teamAddressB_; //tmp to hardcode \r\n    teamAddressC = teamAddressC_;//tmp o hardcode \r\n    }\r\n\r\n    function totalSupply() public override view returns (uint256) {\r\n    return totalSupply_;\r\n    }\r\n\r\n    function balanceOf(address tokenOwner) public override view returns (uint256) {\r\n        return balances[tokenOwner];\r\n    }\r\n\r\n    function transfer(address receiver, uint256 numTokens) public override returns (bool) {\r\n        require(numTokens <= balances[msg.sender]);\r\n         \r\n        transfer_(msg.sender, receiver, numTokens);\r\n\r\n        \r\n        return true;\r\n    }\r\n\r\n    \r\n    function approve(address delegate, uint256 numTokens) public override returns (bool) {\r\n        allowed[msg.sender][delegate] = numTokens;\r\n        emit Approval(msg.sender, delegate, numTokens);\r\n        return true;\r\n    }\r\n\r\n    function allowance(address owner, address delegate) public override view returns (uint) {\r\n        return allowed[owner][delegate];\r\n    }\r\n\r\n    function transferFrom(address owner, address buyer, uint256 numTokens) public override returns (bool) {\r\n        require(numTokens <= balances[owner]);\r\n        require(numTokens <= allowed[owner][msg.sender]);\r\n        \r\n        transfer_(owner, buyer, numTokens);\r\n        \r\n        return true;\r\n    }\r\n    \r\n    //Overrides the superclass implementation to handle custom logic\r\n    //such as taking fees, burning tokens, and supplying liquidity to PancakeSwap\r\n    \r\n    function transfer_(address from, address to, uint256 amount) public returns(bool){\r\n        \r\n        \r\n        if(feesEnabled &&  !balanceTracker.isAddressIneligible(from)){\r\n            uint256 userTokens = amount.mul(100-poolCommission).div(100);\r\n            uint256 poolTokens = amount.mul(poolCommission).div(100);\r\n            balances[from] = balances[from].sub(amount);\r\n            balances[to] = balances[to].add(userTokens);\r\n            balances[poolAddress] = balances[poolAddress].add(poolTokens);\r\n\r\n            emit Transfer(from, to, userTokens);\r\n            emit Transfer(from, poolAddress, poolTokens);\r\n            }\r\n        else {\r\n        balances[from] = balances[from].sub(amount);\r\n        balances[to] = balances[to].add(amount);\r\n        emit Transfer(from, to, amount);\r\n        }\r\n        \r\n\r\n        balanceTracker.updateUserBalance(from);\r\n        balanceTracker.updateUserBalance(to);\r\n        \r\n        \r\n        if(balances[poolAddress] >= level) poolDispatch();\r\n     \r\n        return true;\r\n        \r\n    }\r\n \r\n    \r\n    function addPioneer(address newPioneer) private{\r\n        for (uint i=0; i<pioneers.length; i++) {\r\n            if(pioneers[i] == newPioneer) return;\r\n        }\r\n        pioneers.push(newPioneer);\r\n    }\r\n    \r\n    function isPioneer(address pionner) public returns(bool){\r\n        for (uint i=0; i<pioneers.length; i++) {\r\n            if(pioneers[i] == pionner) return true;\r\n        }\r\n        return false;\r\n    }\r\n    \r\n    \r\n    function getEligibleHolders() public view returns(uint256){\r\n        return balanceTracker.treeAbove(minimumHolding);\r\n    }\r\n\r\n    //TEMP \r\n    function top20Tokens() public view returns(uint256){\r\n        uint256 eligibleHolders = balanceTracker.treeAbove(minimumHolding);\r\n        uint256 teamTokens = balances[ poolAddress ]*teamShare/100;\r\n        uint256 holderTokens = balances[poolAddress] - teamTokens;\r\n        uint256 top20Tokens;\r\n            if (eligibleHolders.mul(20).div(100)==0)\r\n                top20Tokens = 0;\r\n            \r\n            else\r\n                top20Tokens = (holderTokens.mul(50).div(100)).div(eligibleHolders.mul(20).div(100)); \r\n           \r\n           return top20Tokens;\r\n    }\r\n    //TEMP \r\n    function top50Tokens() public view returns(uint256){\r\n        uint256 eligibleHolders = balanceTracker.treeAbove(minimumHolding);\r\n        uint256 teamTokens = balances[ poolAddress ]*teamShare/100;\r\n        uint256 holderTokens = balances[poolAddress] - teamTokens;\r\n        uint256 top50Tokens;\r\n        uint256 top20Tokens = top20Tokens();\r\n        uint256 percent = 30;\r\n        \r\n         \r\n            if (eligibleHolders.mul(30).div(100)==0)\r\n                top50Tokens = 0;\r\n            \r\n            else\r\n                top50Tokens = (holderTokens.mul(30).div(100)).div(eligibleHolders.mul(30).div(100)); \r\n\r\n            return top50Tokens;\r\n           \r\n    }\r\n    //TEMP \r\n    function top100Tokens() public view returns(uint256){\r\n        uint256 eligibleHolders = balanceTracker.treeAbove(minimumHolding);\r\n        uint256 teamTokens = balances[ poolAddress ]*teamShare/100;\r\n        uint256 holderTokens = balances[poolAddress] - teamTokens;\r\n        uint256 top100Tokens;\r\n            if (eligibleHolders.mul(50).div(100)==0)\r\n                top100Tokens = 0;\r\n            \r\n            else\r\n                top100Tokens = (holderTokens.mul(18).div(100)).div(  eligibleHolders.sub(eligibleHolders.mul(30).div(100)).sub(eligibleHolders.mul(20).div(100))   ); \r\n\r\n           return top100Tokens;\r\n    }\r\n\r\n\r\n    function poolDispatch() private{\r\n       \r\n        uint256 eligibleHolders = balanceTracker.treeAbove(minimumHolding);\r\n        uint256 teamTokens = balances[ poolAddress ]*teamShare/100;\r\n        uint256 holderTokens = balances[poolAddress] - teamTokens;\r\n        \r\n        \r\n        balances[teamAddressA] =  balances[teamAddressA].add(teamTokens.mul(45).div(100));\r\n        balances[teamAddressB] =  balances[teamAddressB].add(teamTokens.mul(35).div(100));\r\n        balances[teamAddressC] =  balances[teamAddressC].add(teamTokens.mul(20).div(100));\r\n        balances[poolAddress] =  balances[ poolAddress ].sub( teamTokens );\r\n        \r\n        if(eligibleHolders == 0) return;\r\n        \r\n        else if(eligibleHolders == 1){\r\n            balances[balanceTracker.getUserAtRank(1)] = balances[balanceTracker.getUserAtRank(1)].add(holderTokens);\r\n            balances[poolAddress] = balances[poolAddress].sub(holderTokens);\r\n        }\r\n        \r\n        else if(eligibleHolders ==2){\r\n            balances[balanceTracker.getUserAtRank(1)] = balances[balanceTracker.getUserAtRank(1)].add(holderTokens/2);\r\n            balances[balanceTracker.getUserAtRank(2)] = balances[balanceTracker.getUserAtRank(2)].add(holderTokens/2);\r\n            balances[poolAddress] = balances[poolAddress].sub(holderTokens);\r\n        \r\n        }\r\n        else{\r\n             //uint256 pioneersTokens= holderTokens*2/100;\r\n             //holderTokens = holderTokens.sub(pioneersTokens);\r\n             \r\n             //Calculate token alocation\r\n            uint256 top20Tokens;\r\n            uint256 top50Tokens;\r\n            uint256 top100Tokens ;\r\n\r\n            if (eligibleHolders.mul(20).div(100)==0)\r\n                top20Tokens = 0;\r\n            else\r\n                top20Tokens = (holderTokens.mul(50).div(100)).div(eligibleHolders.mul(20).div(100)); \r\n\r\n             if (eligibleHolders.mul(30).div(100)==0)\r\n                top50Tokens = 0;\r\n            else\r\n                top50Tokens = (holderTokens.mul(30).div(100)).div(eligibleHolders.mul(30).div(100)); \r\n\r\n             if (eligibleHolders.mul(50).div(100)==0)\r\n                top100Tokens = 0;\r\n            else\r\n                top100Tokens = (holderTokens.mul(18).div(100)).div(  eligibleHolders.sub(eligibleHolders.mul(30).div(100)).sub(eligibleHolders.mul(20).div(100))   );\r\n            \r\n             \r\n            uint256 treeCount = balanceTracker.treeCount();\r\n            for (uint256 i=treeCount; i>treeCount-eligibleHolders; i--) {\r\n                 \r\n                /*\r\n                if(isPioneer(balanceTracker.getUserAtRank(i))){\r\n                    balances[balanceTracker.getUserAtRank(i)] = balances[balanceTracker.getUserAtRank(i)].add( pioneersTokens / pioneers.length );\r\n                    balances[poolAddress] =  balances[ poolAddress ].sub( pioneersTokens /  pioneers.length );\r\n                    emit Transfer(poolAddress, balanceTracker.getUserAtRank(i), pioneersTokens /  pioneers.length);\r\n                }\r\n                */\r\n                \r\n                if(i > treeCount - eligibleHolders.mul(20).div(100) ){\r\n                    \r\n                    balances[balanceTracker.getUserAtRank(i)] = balances[balanceTracker.getUserAtRank(i)].add( top20Tokens );\r\n                    balances[poolAddress] =  balances[ poolAddress ].sub( top20Tokens );\r\n                    emit Transfer(poolAddress, balanceTracker.getUserAtRank(i), top20Tokens);\r\n                    \r\n                }\r\n                else if(i > treeCount - eligibleHolders.mul(20).div(100).add( eligibleHolders.mul(30).div(100) ) ){\r\n\r\n                    balances[balanceTracker.getUserAtRank(i)] = balances[balanceTracker.getUserAtRank(i)].add( top50Tokens );\r\n                    balances[poolAddress] =  balances[ poolAddress ].sub( top50Tokens );\r\n                    emit Transfer(poolAddress, balanceTracker.getUserAtRank(i), top50Tokens);\r\n                }\r\n                else{\r\n\r\n                    balances[balanceTracker.getUserAtRank(i)] = balances[balanceTracker.getUserAtRank(i)].add( top100Tokens );\r\n                    balances[poolAddress] =  balances[ poolAddress ].sub( top100Tokens );\r\n                    emit Transfer(poolAddress, balanceTracker.getUserAtRank(i), top100Tokens);\r\n                }\r\n                \r\n                \r\n \r\n                     \r\n            }\r\n        }\r\n\r\n        \r\n    }\r\n    \r\n    function forceDispatch() public onlyOwner{\r\n        poolDispatch();\r\n        \r\n    }\r\n        //getters\r\n    \r\n   \r\n    //tmp\r\n    function getPoolBalance() public  view returns (uint256) {\r\n    return balances[poolAddress];\r\n    }\r\n    //tmp\r\n    function getPoolAddress() public  view returns (address) {\r\n    return poolAddress;\r\n    }\r\n    \r\n    function getLevel() public  view returns (uint256) {\r\n    return level;\r\n    }\r\n    \r\n    function enableFees() public view returns(bool){\r\n        return feesEnabled;\r\n    }\r\n    \r\n    \r\n    //setters (owner)\r\n    //tmp\r\n    function setPoolAddress(address addr) public onlyOwner{\r\n        poolAddress = addr;\r\n        balanceTracker.makeAddressIneligible(addr);\r\n    }\r\n    \r\n    \r\n    function enableFees(bool enable) public onlyOwner{\r\n        feesEnabled = enable;\r\n    }\r\n    \r\n    function setLevel(uint256 level_) public onlyOwner{\r\n        level = level_;\r\n    }\r\n    \r\n    function setBalanceTracker(address addr) public onlyOwner{\r\n        balanceTracker = BalanceTrackerI(addr);\r\n    }\r\n    \r\n    function burn(uint256 amount) public onlyOwner{\r\n        balances[msg.sender] = balances[msg.sender].sub(amount);\r\n        totalSupply_ = totalSupply_.sub(amount);\r\n    }\r\n    \r\n    \r\n    \r\n}\r\n\r\n\r\n\r\n ",
  "sourcePath": "C:/Users/slima/dev/StairToken/truffle_project/contracts/StairToken.sol",
  "compiler": {
    "name": "solc",
    "version": "0.7.3+commit.9bfce1f6.Emscripten.clang"
  },
  "schemaVersion": "3.4.0",
  "updatedAt": "2021-05-07T12:51:44.061Z",
  "networkType": "ethereum",
  "devdoc": {
    "kind": "dev",
    "methods": {},
    "version": 1
  },
  "userdoc": {
    "kind": "user",
    "methods": {},
    "version": 1
  }
}