{
  "contractName": "STAIRToken",
  "abi": [
    {
      "inputs": [
        {
          "internalType": "uint256",
          "name": "total",
          "type": "uint256"
        },
        {
          "internalType": "address",
          "name": "poolAddress_",
          "type": "address"
        },
        {
          "internalType": "address",
          "name": "teamAddressA_",
          "type": "address"
        },
        {
          "internalType": "address",
          "name": "teamAddressB_",
          "type": "address"
        },
        {
          "internalType": "address",
          "name": "teamAddressC_",
          "type": "address"
        }
      ],
      "stateMutability": "nonpayable",
      "type": "constructor"
    },
    {
      "anonymous": false,
      "inputs": [
        {
          "indexed": true,
          "internalType": "address",
          "name": "owner",
          "type": "address"
        },
        {
          "indexed": true,
          "internalType": "address",
          "name": "spender",
          "type": "address"
        },
        {
          "indexed": false,
          "internalType": "uint256",
          "name": "value",
          "type": "uint256"
        }
      ],
      "name": "Approval",
      "type": "event"
    },
    {
      "anonymous": false,
      "inputs": [
        {
          "indexed": true,
          "internalType": "address",
          "name": "from",
          "type": "address"
        },
        {
          "indexed": true,
          "internalType": "address",
          "name": "to",
          "type": "address"
        },
        {
          "indexed": false,
          "internalType": "uint256",
          "name": "value",
          "type": "uint256"
        }
      ],
      "name": "Transfer",
      "type": "event"
    },
    {
      "inputs": [],
      "name": "decimals",
      "outputs": [
        {
          "internalType": "uint8",
          "name": "",
          "type": "uint8"
        }
      ],
      "stateMutability": "view",
      "type": "function"
    },
    {
      "inputs": [],
      "name": "name",
      "outputs": [
        {
          "internalType": "string",
          "name": "",
          "type": "string"
        }
      ],
      "stateMutability": "view",
      "type": "function"
    },
    {
      "inputs": [],
      "name": "symbol",
      "outputs": [
        {
          "internalType": "string",
          "name": "",
          "type": "string"
        }
      ],
      "stateMutability": "view",
      "type": "function"
    },
    {
      "inputs": [],
      "name": "totalSupply",
      "outputs": [
        {
          "internalType": "uint256",
          "name": "",
          "type": "uint256"
        }
      ],
      "stateMutability": "view",
      "type": "function"
    },
    {
      "inputs": [
        {
          "internalType": "address",
          "name": "tokenOwner",
          "type": "address"
        }
      ],
      "name": "balanceOf",
      "outputs": [
        {
          "internalType": "uint256",
          "name": "",
          "type": "uint256"
        }
      ],
      "stateMutability": "view",
      "type": "function"
    },
    {
      "inputs": [
        {
          "internalType": "address",
          "name": "receiver",
          "type": "address"
        },
        {
          "internalType": "uint256",
          "name": "numTokens",
          "type": "uint256"
        }
      ],
      "name": "transfer",
      "outputs": [
        {
          "internalType": "bool",
          "name": "",
          "type": "bool"
        }
      ],
      "stateMutability": "nonpayable",
      "type": "function"
    },
    {
      "inputs": [
        {
          "internalType": "address",
          "name": "delegate",
          "type": "address"
        },
        {
          "internalType": "uint256",
          "name": "numTokens",
          "type": "uint256"
        }
      ],
      "name": "approve",
      "outputs": [
        {
          "internalType": "bool",
          "name": "",
          "type": "bool"
        }
      ],
      "stateMutability": "nonpayable",
      "type": "function"
    },
    {
      "inputs": [
        {
          "internalType": "address",
          "name": "owner",
          "type": "address"
        },
        {
          "internalType": "address",
          "name": "delegate",
          "type": "address"
        }
      ],
      "name": "allowance",
      "outputs": [
        {
          "internalType": "uint256",
          "name": "",
          "type": "uint256"
        }
      ],
      "stateMutability": "view",
      "type": "function"
    },
    {
      "inputs": [
        {
          "internalType": "address",
          "name": "owner",
          "type": "address"
        },
        {
          "internalType": "address",
          "name": "buyer",
          "type": "address"
        },
        {
          "internalType": "uint256",
          "name": "numTokens",
          "type": "uint256"
        }
      ],
      "name": "transferFrom",
      "outputs": [
        {
          "internalType": "bool",
          "name": "",
          "type": "bool"
        }
      ],
      "stateMutability": "nonpayable",
      "type": "function"
    },
    {
      "inputs": [
        {
          "internalType": "address",
          "name": "from",
          "type": "address"
        },
        {
          "internalType": "address",
          "name": "to",
          "type": "address"
        },
        {
          "internalType": "uint256",
          "name": "amount",
          "type": "uint256"
        }
      ],
      "name": "transfer_",
      "outputs": [
        {
          "internalType": "bool",
          "name": "",
          "type": "bool"
        }
      ],
      "stateMutability": "nonpayable",
      "type": "function"
    },
    {
      "inputs": [
        {
          "internalType": "address",
          "name": "newPioneer",
          "type": "address"
        }
      ],
      "name": "addPioneer",
      "outputs": [],
      "stateMutability": "nonpayable",
      "type": "function"
    },
    {
      "inputs": [
        {
          "internalType": "address",
          "name": "pionner",
          "type": "address"
        }
      ],
      "name": "isPioneer",
      "outputs": [
        {
          "internalType": "bool",
          "name": "",
          "type": "bool"
        }
      ],
      "stateMutability": "nonpayable",
      "type": "function"
    },
    {
      "inputs": [],
      "name": "getEligibleHolders",
      "outputs": [
        {
          "internalType": "uint256",
          "name": "",
          "type": "uint256"
        }
      ],
      "stateMutability": "view",
      "type": "function"
    },
    {
      "inputs": [],
      "name": "top20Tokens",
      "outputs": [
        {
          "internalType": "uint256",
          "name": "",
          "type": "uint256"
        }
      ],
      "stateMutability": "view",
      "type": "function"
    },
    {
      "inputs": [],
      "name": "top50Tokens",
      "outputs": [
        {
          "internalType": "uint256",
          "name": "",
          "type": "uint256"
        }
      ],
      "stateMutability": "view",
      "type": "function"
    },
    {
      "inputs": [],
      "name": "top100Tokens",
      "outputs": [
        {
          "internalType": "uint256",
          "name": "",
          "type": "uint256"
        }
      ],
      "stateMutability": "view",
      "type": "function"
    },
    {
      "inputs": [],
      "name": "forceDispatch",
      "outputs": [],
      "stateMutability": "nonpayable",
      "type": "function"
    },
    {
      "inputs": [],
      "name": "getPoolBalance",
      "outputs": [
        {
          "internalType": "uint256",
          "name": "",
          "type": "uint256"
        }
      ],
      "stateMutability": "view",
      "type": "function"
    },
    {
      "inputs": [],
      "name": "getPoolAddress",
      "outputs": [
        {
          "internalType": "address",
          "name": "",
          "type": "address"
        }
      ],
      "stateMutability": "view",
      "type": "function"
    },
    {
      "inputs": [],
      "name": "getLevel",
      "outputs": [
        {
          "internalType": "uint256",
          "name": "",
          "type": "uint256"
        }
      ],
      "stateMutability": "view",
      "type": "function"
    },
    {
      "inputs": [
        {
          "internalType": "address",
          "name": "addr",
          "type": "address"
        }
      ],
      "name": "setPoolAddress",
      "outputs": [],
      "stateMutability": "nonpayable",
      "type": "function"
    },
    {
      "inputs": [
        {
          "internalType": "bool",
          "name": "enable",
          "type": "bool"
        }
      ],
      "name": "enableFees",
      "outputs": [],
      "stateMutability": "nonpayable",
      "type": "function"
    },
    {
      "inputs": [],
      "name": "enableFees",
      "outputs": [
        {
          "internalType": "bool",
          "name": "",
          "type": "bool"
        }
      ],
      "stateMutability": "view",
      "type": "function"
    },
    {
      "inputs": [
        {
          "internalType": "uint256",
          "name": "level_",
          "type": "uint256"
        }
      ],
      "name": "setLevel",
      "outputs": [],
      "stateMutability": "nonpayable",
      "type": "function"
    },
    {
      "inputs": [
        {
          "internalType": "address",
          "name": "addr",
          "type": "address"
        }
      ],
      "name": "setBalanceTracker",
      "outputs": [],
      "stateMutability": "nonpayable",
      "type": "function"
    },
    {
      "inputs": [
        {
          "internalType": "uint256",
          "name": "amount",
          "type": "uint256"
        }
      ],
      "name": "burn",
      "outputs": [],
      "stateMutability": "nonpayable",
      "type": "function"
    }
  ],
  "bytecode": "0x60806040526001600560006101000a81548160ff021916908315150217905550606460095534801561003057600080fd5b50604051620048f9380380620048f9833981810160405260a081101561005557600080fd5b81019080805190602001909291908051906020019092919080519060200190929190805190602001909291908051906020019092919050505084600181905550600154600260003373ffffffffffffffffffffffffffffffffffffffff1673ffffffffffffffffffffffffffffffffffffffff16815260200190815260200160002081905550336000806101000a81548173ffffffffffffffffffffffffffffffffffffffff021916908373ffffffffffffffffffffffffffffffffffffffff16021790555083600560016101000a81548173ffffffffffffffffffffffffffffffffffffffff021916908373ffffffffffffffffffffffffffffffffffffffff16021790555082600660006101000a81548173ffffffffffffffffffffffffffffffffffffffff021916908373ffffffffffffffffffffffffffffffffffffffff16021790555081600760006101000a81548173ffffffffffffffffffffffffffffffffffffffff021916908373ffffffffffffffffffffffffffffffffffffffff16021790555080600860006101000a81548173ffffffffffffffffffffffffffffffffffffffff021916908373ffffffffffffffffffffffffffffffffffffffff16021790555050505050506146c580620002346000396000f3fe608060405234801561001057600080fd5b506004361061018e5760003560e01c8063598b75ad116100de578063a9059cbb11610097578063d7d627ec11610071578063d7d627ec1461072e578063dd62ed3e1461074c578063e9e15b4f146107c4578063f586c6d9146108085761018e565b8063a9059cbb1461068e578063abd70aa2146106f2578063afe7b54e146107105761018e565b8063598b75ad146104af57806370a08231146104f35780637150f1191461054b57806395d89b4114610569578063a1a6d5fc146105ec578063a5985e8c146106705761018e565b806327a5428b1161014b578063313ce56711610125578063313ce567146103fc578063368f5bd51461041d57806342966c681461043d5780634722749c1461046b5761018e565b806327a5428b146103945780632bf5eabb146103c25780632f6aa3e4146103f25761018e565b806306fdde0314610193578063095ea7b3146102165780631406248b1461027a57806318160ddd14610298578063197d63a1146102b657806323b872dd14610310575b600080fd5b61019b61083c565b6040518080602001828103825283818151815260200191508051906020019080838360005b838110156101db5780820151818401526020810190506101c0565b50505050905090810190601f1680156102085780820380516001836020036101000a031916815260200191505b509250505060405180910390f35b6102626004803603604081101561022c57600080fd5b81019080803573ffffffffffffffffffffffffffffffffffffffff16906020019092919080359060200190929190505050610875565b60405180821515815260200191505060405180910390f35b610282610967565b6040518082815260200191505060405180910390f35b6102a0610b9b565b6040518082815260200191505060405180910390f35b6102f8600480360360208110156102cc57600080fd5b81019080803573ffffffffffffffffffffffffffffffffffffffff169060200190929190505050610ba5565b60405180821515815260200191505060405180910390f35b61037c6004803603606081101561032657600080fd5b81019080803573ffffffffffffffffffffffffffffffffffffffff169060200190929190803573ffffffffffffffffffffffffffffffffffffffff16906020019092919080359060200190929190505050610c47565b60405180821515815260200191505060405180910390f35b6103c0600480360360208110156103aa57600080fd5b8101908080359060200190929190505050610d35565b005b6103f0600480360360208110156103d857600080fd5b81019080803515159060200190929190505050610d97565b005b6103fa610e0c565b005b610404610e6e565b604051808260ff16815260200191505060405180910390f35b610425610e73565b60405180821515815260200191505060405180910390f35b6104696004803603602081101561045357600080fd5b8101908080359060200190929190505050610e8a565b005b6104ad6004803603602081101561048157600080fd5b81019080803573ffffffffffffffffffffffffffffffffffffffff169060200190929190505050610f95565b005b6104f1600480360360208110156104c557600080fd5b81019080803573ffffffffffffffffffffffffffffffffffffffff16906020019092919050505061108b565b005b6105356004803603602081101561050957600080fd5b81019080803573ffffffffffffffffffffffffffffffffffffffff169060200190929190505050611127565b6040518082815260200191505060405180910390f35b610553611170565b6040518082815260200191505060405180910390f35b610571611226565b6040518080602001828103825283818151815260200191508051906020019080838360005b838110156105b1578082015181840152602081019050610596565b50505050905090810190601f1680156105de5780820380516001836020036101000a031916815260200191505b509250505060405180910390f35b6106586004803603606081101561060257600080fd5b81019080803573ffffffffffffffffffffffffffffffffffffffff169060200190929190803573ffffffffffffffffffffffffffffffffffffffff1690602001909291908035906020019092919050505061125f565b60405180821515815260200191505060405180910390f35b6106786119e6565b6040518082815260200191505060405180910390f35b6106da600480360360408110156106a457600080fd5b81019080803573ffffffffffffffffffffffffffffffffffffffff169060200190929190803590602001909291905050506119f0565b60405180821515815260200191505060405180910390f35b6106fa611a54565b6040518082815260200191505060405180910390f35b610718611abd565b6040518082815260200191505060405180910390f35b610736611d3b565b6040518082815260200191505060405180910390f35b6107ae6004803603604081101561076257600080fd5b81019080803573ffffffffffffffffffffffffffffffffffffffff169060200190929190803573ffffffffffffffffffffffffffffffffffffffff169060200190929190505050611f83565b6040518082815260200191505060405180910390f35b610806600480360360208110156107da57600080fd5b81019080803573ffffffffffffffffffffffffffffffffffffffff16906020019092919050505061200a565b005b610810612149565b604051808273ffffffffffffffffffffffffffffffffffffffff16815260200191505060405180910390f35b6040518060400160405280600581526020017f535441495200000000000000000000000000000000000000000000000000000081525081565b600081600360003373ffffffffffffffffffffffffffffffffffffffff1673ffffffffffffffffffffffffffffffffffffffff16815260200190815260200160002060008573ffffffffffffffffffffffffffffffffffffffff1673ffffffffffffffffffffffffffffffffffffffff168152602001908152602001600020819055508273ffffffffffffffffffffffffffffffffffffffff163373ffffffffffffffffffffffffffffffffffffffff167f8c5be1e5ebec7d5bd14f71427d1e84f3dd0314c0f7b2291e5b200ac8c7c3b925846040518082815260200191505060405180910390a36001905092915050565b600080600a60009054906101000a900473ffffffffffffffffffffffffffffffffffffffff1673ffffffffffffffffffffffffffffffffffffffff16632ab0ae22600a6040518263ffffffff1660e01b81526004018082815260200191505060206040518083038186803b1580156109de57600080fd5b505afa1580156109f2573d6000803e3d6000fd5b505050506040513d6020811015610a0857600080fd5b8101908080519060200190929190505050905060006064602860026000600560019054906101000a900473ffffffffffffffffffffffffffffffffffffffff1673ffffffffffffffffffffffffffffffffffffffff1673ffffffffffffffffffffffffffffffffffffffff168152602001908152602001600020540281610a8b57fe5b04905060008160026000600560019054906101000a900473ffffffffffffffffffffffffffffffffffffffff1673ffffffffffffffffffffffffffffffffffffffff1673ffffffffffffffffffffffffffffffffffffffff16815260200190815260200160002054039050600080610b206064610b1260148861217390919063ffffffff16565b6121f990919063ffffffff16565b1415610b2f5760009050610b91565b610b8e610b596064610b4b60148861217390919063ffffffff16565b6121f990919063ffffffff16565b610b806064610b7260328761217390919063ffffffff16565b6121f990919063ffffffff16565b6121f990919063ffffffff16565b90505b8094505050505090565b6000600154905090565b600080600090505b600480549050811015610c3c578273ffffffffffffffffffffffffffffffffffffffff1660048281548110610bde57fe5b9060005260206000200160009054906101000a900473ffffffffffffffffffffffffffffffffffffffff1673ffffffffffffffffffffffffffffffffffffffff161415610c2f576001915050610c42565b8080600101915050610bad565b50600090505b919050565b6000600260008573ffffffffffffffffffffffffffffffffffffffff1673ffffffffffffffffffffffffffffffffffffffff16815260200190815260200160002054821115610c9557600080fd5b600360008573ffffffffffffffffffffffffffffffffffffffff1673ffffffffffffffffffffffffffffffffffffffff16815260200190815260200160002060003373ffffffffffffffffffffffffffffffffffffffff1673ffffffffffffffffffffffffffffffffffffffff16815260200190815260200160002054821115610d1e57600080fd5b610d2984848461125f565b50600190509392505050565b60008054906101000a900473ffffffffffffffffffffffffffffffffffffffff1673ffffffffffffffffffffffffffffffffffffffff163373ffffffffffffffffffffffffffffffffffffffff1614610d8d57600080fd5b8060098190555050565b60008054906101000a900473ffffffffffffffffffffffffffffffffffffffff1673ffffffffffffffffffffffffffffffffffffffff163373ffffffffffffffffffffffffffffffffffffffff1614610def57600080fd5b80600560006101000a81548160ff02191690831515021790555050565b60008054906101000a900473ffffffffffffffffffffffffffffffffffffffff1673ffffffffffffffffffffffffffffffffffffffff163373ffffffffffffffffffffffffffffffffffffffff1614610e6457600080fd5b610e6c612243565b565b600081565b6000600560009054906101000a900460ff16905090565b60008054906101000a900473ffffffffffffffffffffffffffffffffffffffff1673ffffffffffffffffffffffffffffffffffffffff163373ffffffffffffffffffffffffffffffffffffffff1614610ee257600080fd5b610f3481600260003373ffffffffffffffffffffffffffffffffffffffff1673ffffffffffffffffffffffffffffffffffffffff1681526020019081526020016000205461441690919063ffffffff16565b600260003373ffffffffffffffffffffffffffffffffffffffff1673ffffffffffffffffffffffffffffffffffffffff16815260200190815260200160002081905550610f8c8160015461441690919063ffffffff16565b60018190555050565b60005b600480549050811015611023578173ffffffffffffffffffffffffffffffffffffffff1660048281548110610fc957fe5b9060005260206000200160009054906101000a900473ffffffffffffffffffffffffffffffffffffffff1673ffffffffffffffffffffffffffffffffffffffff1614156110165750611088565b8080600101915050610f98565b506004819080600181540180825580915050600190039060005260206000200160009091909190916101000a81548173ffffffffffffffffffffffffffffffffffffffff021916908373ffffffffffffffffffffffffffffffffffffffff1602179055505b50565b60008054906101000a900473ffffffffffffffffffffffffffffffffffffffff1673ffffffffffffffffffffffffffffffffffffffff163373ffffffffffffffffffffffffffffffffffffffff16146110e357600080fd5b80600a60006101000a81548173ffffffffffffffffffffffffffffffffffffffff021916908373ffffffffffffffffffffffffffffffffffffffff16021790555050565b6000600260008373ffffffffffffffffffffffffffffffffffffffff1673ffffffffffffffffffffffffffffffffffffffff168152602001908152602001600020549050919050565b6000600a60009054906101000a900473ffffffffffffffffffffffffffffffffffffffff1673ffffffffffffffffffffffffffffffffffffffff16632ab0ae22600a6040518263ffffffff1660e01b81526004018082815260200191505060206040518083038186803b1580156111e657600080fd5b505afa1580156111fa573d6000803e3d6000fd5b505050506040513d602081101561121057600080fd5b8101908080519060200190929190505050905090565b6040518060400160405280600581526020017f535441495200000000000000000000000000000000000000000000000000000081525081565b6000600560009054906101000a900460ff16801561133e5750600a60009054906101000a900473ffffffffffffffffffffffffffffffffffffffff1673ffffffffffffffffffffffffffffffffffffffff16639f47c3d3856040518263ffffffff1660e01b8152600401808273ffffffffffffffffffffffffffffffffffffffff16815260200191505060206040518083038186803b15801561130157600080fd5b505afa158015611315573d6000803e3d6000fd5b505050506040513d602081101561132b57600080fd5b8101908080519060200190929190505050155b1561169257600061136f6064611361600a6064038661217390919063ffffffff16565b6121f990919063ffffffff16565b9050600061139a606461138c600a8761217390919063ffffffff16565b6121f990919063ffffffff16565b90506113ee84600260008973ffffffffffffffffffffffffffffffffffffffff1673ffffffffffffffffffffffffffffffffffffffff1681526020019081526020016000205461441690919063ffffffff16565b600260008873ffffffffffffffffffffffffffffffffffffffff1673ffffffffffffffffffffffffffffffffffffffff1681526020019081526020016000208190555061148382600260008873ffffffffffffffffffffffffffffffffffffffff1673ffffffffffffffffffffffffffffffffffffffff1681526020019081526020016000205461446090919063ffffffff16565b600260008773ffffffffffffffffffffffffffffffffffffffff1673ffffffffffffffffffffffffffffffffffffffff1681526020019081526020016000208190555061153a8160026000600560019054906101000a900473ffffffffffffffffffffffffffffffffffffffff1673ffffffffffffffffffffffffffffffffffffffff1673ffffffffffffffffffffffffffffffffffffffff1681526020019081526020016000205461446090919063ffffffff16565b60026000600560019054906101000a900473ffffffffffffffffffffffffffffffffffffffff1673ffffffffffffffffffffffffffffffffffffffff1673ffffffffffffffffffffffffffffffffffffffff168152602001908152602001600020819055508473ffffffffffffffffffffffffffffffffffffffff168673ffffffffffffffffffffffffffffffffffffffff167fddf252ad1be2c89b69c2b068fc378daa952ba7f163c4a11628f55a4df523b3ef846040518082815260200191505060405180910390a3600560019054906101000a900473ffffffffffffffffffffffffffffffffffffffff1673ffffffffffffffffffffffffffffffffffffffff168673ffffffffffffffffffffffffffffffffffffffff167fddf252ad1be2c89b69c2b068fc378daa952ba7f163c4a11628f55a4df523b3ef836040518082815260200191505060405180910390a35050611822565b6116e482600260008773ffffffffffffffffffffffffffffffffffffffff1673ffffffffffffffffffffffffffffffffffffffff1681526020019081526020016000205461441690919063ffffffff16565b600260008673ffffffffffffffffffffffffffffffffffffffff1673ffffffffffffffffffffffffffffffffffffffff1681526020019081526020016000208190555061177982600260008673ffffffffffffffffffffffffffffffffffffffff1673ffffffffffffffffffffffffffffffffffffffff1681526020019081526020016000205461446090919063ffffffff16565b600260008573ffffffffffffffffffffffffffffffffffffffff1673ffffffffffffffffffffffffffffffffffffffff168152602001908152602001600020819055508273ffffffffffffffffffffffffffffffffffffffff168473ffffffffffffffffffffffffffffffffffffffff167fddf252ad1be2c89b69c2b068fc378daa952ba7f163c4a11628f55a4df523b3ef846040518082815260200191505060405180910390a35b600a60009054906101000a900473ffffffffffffffffffffffffffffffffffffffff1673ffffffffffffffffffffffffffffffffffffffff1663993ae7e9856040518263ffffffff1660e01b8152600401808273ffffffffffffffffffffffffffffffffffffffff168152602001915050600060405180830381600087803b1580156118ad57600080fd5b505af11580156118c1573d6000803e3d6000fd5b50505050600a60009054906101000a900473ffffffffffffffffffffffffffffffffffffffff1673ffffffffffffffffffffffffffffffffffffffff1663993ae7e9846040518263ffffffff1660e01b8152600401808273ffffffffffffffffffffffffffffffffffffffff168152602001915050600060405180830381600087803b15801561195057600080fd5b505af1158015611964573d6000803e3d6000fd5b5050505060095460026000600560019054906101000a900473ffffffffffffffffffffffffffffffffffffffff1673ffffffffffffffffffffffffffffffffffffffff1673ffffffffffffffffffffffffffffffffffffffff16815260200190815260200160002054106119db576119da612243565b5b600190509392505050565b6000600954905090565b6000600260003373ffffffffffffffffffffffffffffffffffffffff1673ffffffffffffffffffffffffffffffffffffffff16815260200190815260200160002054821115611a3e57600080fd5b611a4933848461125f565b506001905092915050565b600060026000600560019054906101000a900473ffffffffffffffffffffffffffffffffffffffff1673ffffffffffffffffffffffffffffffffffffffff1673ffffffffffffffffffffffffffffffffffffffff16815260200190815260200160002054905090565b600080600a60009054906101000a900473ffffffffffffffffffffffffffffffffffffffff1673ffffffffffffffffffffffffffffffffffffffff16632ab0ae22600a6040518263ffffffff1660e01b81526004018082815260200191505060206040518083038186803b158015611b3457600080fd5b505afa158015611b48573d6000803e3d6000fd5b505050506040513d6020811015611b5e57600080fd5b8101908080519060200190929190505050905060006064602860026000600560019054906101000a900473ffffffffffffffffffffffffffffffffffffffff1673ffffffffffffffffffffffffffffffffffffffff1673ffffffffffffffffffffffffffffffffffffffff168152602001908152602001600020540281611be157fe5b04905060008160026000600560019054906101000a900473ffffffffffffffffffffffffffffffffffffffff1673ffffffffffffffffffffffffffffffffffffffff1673ffffffffffffffffffffffffffffffffffffffff16815260200190815260200160002054039050600080611c766064611c6860328861217390919063ffffffff16565b6121f990919063ffffffff16565b1415611c855760009050611d31565b611d2e611cf9611cb26064611ca460148961217390919063ffffffff16565b6121f990919063ffffffff16565b611ceb611cdc6064611cce601e8b61217390919063ffffffff16565b6121f990919063ffffffff16565b8861441690919063ffffffff16565b61441690919063ffffffff16565b611d206064611d1260128761217390919063ffffffff16565b6121f990919063ffffffff16565b6121f990919063ffffffff16565b90505b8094505050505090565b600080600a60009054906101000a900473ffffffffffffffffffffffffffffffffffffffff1673ffffffffffffffffffffffffffffffffffffffff16632ab0ae22600a6040518263ffffffff1660e01b81526004018082815260200191505060206040518083038186803b158015611db257600080fd5b505afa158015611dc6573d6000803e3d6000fd5b505050506040513d6020811015611ddc57600080fd5b8101908080519060200190929190505050905060006064602860026000600560019054906101000a900473ffffffffffffffffffffffffffffffffffffffff1673ffffffffffffffffffffffffffffffffffffffff1673ffffffffffffffffffffffffffffffffffffffff168152602001908152602001600020540281611e5f57fe5b04905060008160026000600560019054906101000a900473ffffffffffffffffffffffffffffffffffffffff1673ffffffffffffffffffffffffffffffffffffffff1673ffffffffffffffffffffffffffffffffffffffff16815260200190815260200160002054039050600080611ed5610967565b90506000601e90506000611f066064611ef8601e8a61217390919063ffffffff16565b6121f990919063ffffffff16565b1415611f155760009250611f77565b611f74611f3f6064611f31601e8a61217390919063ffffffff16565b6121f990919063ffffffff16565b611f666064611f58601e8961217390919063ffffffff16565b6121f990919063ffffffff16565b6121f990919063ffffffff16565b92505b82965050505050505090565b6000600360008473ffffffffffffffffffffffffffffffffffffffff1673ffffffffffffffffffffffffffffffffffffffff16815260200190815260200160002060008373ffffffffffffffffffffffffffffffffffffffff1673ffffffffffffffffffffffffffffffffffffffff16815260200190815260200160002054905092915050565b60008054906101000a900473ffffffffffffffffffffffffffffffffffffffff1673ffffffffffffffffffffffffffffffffffffffff163373ffffffffffffffffffffffffffffffffffffffff161461206257600080fd5b80600560016101000a81548173ffffffffffffffffffffffffffffffffffffffff021916908373ffffffffffffffffffffffffffffffffffffffff160217905550600a60009054906101000a900473ffffffffffffffffffffffffffffffffffffffff1673ffffffffffffffffffffffffffffffffffffffff16632362851f826040518263ffffffff1660e01b8152600401808273ffffffffffffffffffffffffffffffffffffffff168152602001915050600060405180830381600087803b15801561212e57600080fd5b505af1158015612142573d6000803e3d6000fd5b5050505050565b6000600560019054906101000a900473ffffffffffffffffffffffffffffffffffffffff16905090565b60008083141561218657600090506121f3565b600082840290508284828161219757fe5b04146121ee576040517f08c379a000000000000000000000000000000000000000000000000000000000815260040180806020018281038252602181526020018061466f6021913960400191505060405180910390fd5b809150505b92915050565b600061223b83836040518060400160405280601a81526020017f536166654d6174683a206469766973696f6e206279207a65726f0000000000008152506144e8565b905092915050565b6000600a60009054906101000a900473ffffffffffffffffffffffffffffffffffffffff1673ffffffffffffffffffffffffffffffffffffffff16632ab0ae22600a6040518263ffffffff1660e01b81526004018082815260200191505060206040518083038186803b1580156122b957600080fd5b505afa1580156122cd573d6000803e3d6000fd5b505050506040513d60208110156122e357600080fd5b8101908080519060200190929190505050905060006064602860026000600560019054906101000a900473ffffffffffffffffffffffffffffffffffffffff1673ffffffffffffffffffffffffffffffffffffffff1673ffffffffffffffffffffffffffffffffffffffff16815260200190815260200160002054028161236657fe5b04905060008160026000600560019054906101000a900473ffffffffffffffffffffffffffffffffffffffff1673ffffffffffffffffffffffffffffffffffffffff1673ffffffffffffffffffffffffffffffffffffffff1681526020019081526020016000205403905061246b6123fb60646123ed602d8661217390919063ffffffff16565b6121f990919063ffffffff16565b60026000600660009054906101000a900473ffffffffffffffffffffffffffffffffffffffff1673ffffffffffffffffffffffffffffffffffffffff1673ffffffffffffffffffffffffffffffffffffffff1681526020019081526020016000205461446090919063ffffffff16565b60026000600660009054906101000a900473ffffffffffffffffffffffffffffffffffffffff1673ffffffffffffffffffffffffffffffffffffffff1673ffffffffffffffffffffffffffffffffffffffff1681526020019081526020016000208190555061256a6124fa60646124ec60238661217390919063ffffffff16565b6121f990919063ffffffff16565b60026000600760009054906101000a900473ffffffffffffffffffffffffffffffffffffffff1673ffffffffffffffffffffffffffffffffffffffff1673ffffffffffffffffffffffffffffffffffffffff1681526020019081526020016000205461446090919063ffffffff16565b60026000600760009054906101000a900473ffffffffffffffffffffffffffffffffffffffff1673ffffffffffffffffffffffffffffffffffffffff1673ffffffffffffffffffffffffffffffffffffffff168152602001908152602001600020819055506126696125f960646125eb60148661217390919063ffffffff16565b6121f990919063ffffffff16565b60026000600860009054906101000a900473ffffffffffffffffffffffffffffffffffffffff1673ffffffffffffffffffffffffffffffffffffffff1673ffffffffffffffffffffffffffffffffffffffff1681526020019081526020016000205461446090919063ffffffff16565b60026000600860009054906101000a900473ffffffffffffffffffffffffffffffffffffffff1673ffffffffffffffffffffffffffffffffffffffff1673ffffffffffffffffffffffffffffffffffffffff168152602001908152602001600020819055506127428260026000600560019054906101000a900473ffffffffffffffffffffffffffffffffffffffff1673ffffffffffffffffffffffffffffffffffffffff1673ffffffffffffffffffffffffffffffffffffffff1681526020019081526020016000205461441690919063ffffffff16565b60026000600560019054906101000a900473ffffffffffffffffffffffffffffffffffffffff1673ffffffffffffffffffffffffffffffffffffffff1673ffffffffffffffffffffffffffffffffffffffff1681526020019081526020016000208190555060008314156127b857505050614414565b6001831415612a90576128c18160026000600a60009054906101000a900473ffffffffffffffffffffffffffffffffffffffff1673ffffffffffffffffffffffffffffffffffffffff1663c7a0eea960016040518263ffffffff1660e01b81526004018082815260200191505060206040518083038186803b15801561283d57600080fd5b505afa158015612851573d6000803e3d6000fd5b505050506040513d602081101561286757600080fd5b810190808051906020019092919050505073ffffffffffffffffffffffffffffffffffffffff1673ffffffffffffffffffffffffffffffffffffffff1681526020019081526020016000205461446090919063ffffffff16565b60026000600a60009054906101000a900473ffffffffffffffffffffffffffffffffffffffff1673ffffffffffffffffffffffffffffffffffffffff1663c7a0eea960016040518263ffffffff1660e01b81526004018082815260200191505060206040518083038186803b15801561293957600080fd5b505afa15801561294d573d6000803e3d6000fd5b505050506040513d602081101561296357600080fd5b810190808051906020019092919050505073ffffffffffffffffffffffffffffffffffffffff1673ffffffffffffffffffffffffffffffffffffffff16815260200190815260200160002081905550612a268160026000600560019054906101000a900473ffffffffffffffffffffffffffffffffffffffff1673ffffffffffffffffffffffffffffffffffffffff1673ffffffffffffffffffffffffffffffffffffffff1681526020019081526020016000205461441690919063ffffffff16565b60026000600560019054906101000a900473ffffffffffffffffffffffffffffffffffffffff1673ffffffffffffffffffffffffffffffffffffffff1673ffffffffffffffffffffffffffffffffffffffff16815260200190815260200160002081905550614410565b6002831415612f6d57612ba360028281612aa657fe5b0460026000600a60009054906101000a900473ffffffffffffffffffffffffffffffffffffffff1673ffffffffffffffffffffffffffffffffffffffff1663c7a0eea960016040518263ffffffff1660e01b81526004018082815260200191505060206040518083038186803b158015612b1f57600080fd5b505afa158015612b33573d6000803e3d6000fd5b505050506040513d6020811015612b4957600080fd5b810190808051906020019092919050505073ffffffffffffffffffffffffffffffffffffffff1673ffffffffffffffffffffffffffffffffffffffff1681526020019081526020016000205461446090919063ffffffff16565b60026000600a60009054906101000a900473ffffffffffffffffffffffffffffffffffffffff1673ffffffffffffffffffffffffffffffffffffffff1663c7a0eea960016040518263ffffffff1660e01b81526004018082815260200191505060206040518083038186803b158015612c1b57600080fd5b505afa158015612c2f573d6000803e3d6000fd5b505050506040513d6020811015612c4557600080fd5b810190808051906020019092919050505073ffffffffffffffffffffffffffffffffffffffff1673ffffffffffffffffffffffffffffffffffffffff16815260200190815260200160002081905550612d9e60028281612ca157fe5b0460026000600a60009054906101000a900473ffffffffffffffffffffffffffffffffffffffff1673ffffffffffffffffffffffffffffffffffffffff1663c7a0eea960026040518263ffffffff1660e01b81526004018082815260200191505060206040518083038186803b158015612d1a57600080fd5b505afa158015612d2e573d6000803e3d6000fd5b505050506040513d6020811015612d4457600080fd5b810190808051906020019092919050505073ffffffffffffffffffffffffffffffffffffffff1673ffffffffffffffffffffffffffffffffffffffff1681526020019081526020016000205461446090919063ffffffff16565b60026000600a60009054906101000a900473ffffffffffffffffffffffffffffffffffffffff1673ffffffffffffffffffffffffffffffffffffffff1663c7a0eea960026040518263ffffffff1660e01b81526004018082815260200191505060206040518083038186803b158015612e1657600080fd5b505afa158015612e2a573d6000803e3d6000fd5b505050506040513d6020811015612e4057600080fd5b810190808051906020019092919050505073ffffffffffffffffffffffffffffffffffffffff1673ffffffffffffffffffffffffffffffffffffffff16815260200190815260200160002081905550612f038160026000600560019054906101000a900473ffffffffffffffffffffffffffffffffffffffff1673ffffffffffffffffffffffffffffffffffffffff1673ffffffffffffffffffffffffffffffffffffffff1681526020019081526020016000205461441690919063ffffffff16565b60026000600560019054906101000a900473ffffffffffffffffffffffffffffffffffffffff1673ffffffffffffffffffffffffffffffffffffffff1673ffffffffffffffffffffffffffffffffffffffff1681526020019081526020016000208190555061440f565b6000612f966064612f8860028561217390919063ffffffff16565b6121f990919063ffffffff16565b9050612fab818361441690919063ffffffff16565b9150600080600080612fda6064612fcc60148b61217390919063ffffffff16565b6121f990919063ffffffff16565b1415612fe9576000925061304b565b613048613013606461300560148b61217390919063ffffffff16565b6121f990919063ffffffff16565b61303a606461302c60328a61217390919063ffffffff16565b6121f990919063ffffffff16565b6121f990919063ffffffff16565b92505b60006130746064613066601e8b61217390919063ffffffff16565b6121f990919063ffffffff16565b141561308357600091506130e5565b6130e26130ad606461309f601e8b61217390919063ffffffff16565b6121f990919063ffffffff16565b6130d460646130c6601e8a61217390919063ffffffff16565b6121f990919063ffffffff16565b6121f990919063ffffffff16565b91505b600061310e606461310060328b61217390919063ffffffff16565b6121f990919063ffffffff16565b141561311d57600090506131c9565b6131c661319161314a606461313c60148c61217390919063ffffffff16565b6121f990919063ffffffff16565b6131836131746064613166601e8e61217390919063ffffffff16565b6121f990919063ffffffff16565b8b61441690919063ffffffff16565b61441690919063ffffffff16565b6131b860646131aa60128a61217390919063ffffffff16565b6121f990919063ffffffff16565b6121f990919063ffffffff16565b90505b6000600a60009054906101000a900473ffffffffffffffffffffffffffffffffffffffff1673ffffffffffffffffffffffffffffffffffffffff1663fea3b6c36040518163ffffffff1660e01b815260040160206040518083038186803b15801561323357600080fd5b505afa158015613247573d6000803e3d6000fd5b505050506040513d602081101561325d57600080fd5b8101908080519060200190929190505050905060008190505b88820381111561440857613336600a60009054906101000a900473ffffffffffffffffffffffffffffffffffffffff1673ffffffffffffffffffffffffffffffffffffffff1663c7a0eea9836040518263ffffffff1660e01b81526004018082815260200191505060206040518083038186803b1580156132f657600080fd5b505afa15801561330a573d6000803e3d6000fd5b505050506040513d602081101561332057600080fd5b8101908080519060200190929190505050610ba5565b1561376257613448600480549050878161334c57fe5b0460026000600a60009054906101000a900473ffffffffffffffffffffffffffffffffffffffff1673ffffffffffffffffffffffffffffffffffffffff1663c7a0eea9866040518263ffffffff1660e01b81526004018082815260200191505060206040518083038186803b1580156133c457600080fd5b505afa1580156133d8573d6000803e3d6000fd5b505050506040513d60208110156133ee57600080fd5b810190808051906020019092919050505073ffffffffffffffffffffffffffffffffffffffff1673ffffffffffffffffffffffffffffffffffffffff1681526020019081526020016000205461446090919063ffffffff16565b60026000600a60009054906101000a900473ffffffffffffffffffffffffffffffffffffffff1673ffffffffffffffffffffffffffffffffffffffff1663c7a0eea9856040518263ffffffff1660e01b81526004018082815260200191505060206040518083038186803b1580156134bf57600080fd5b505afa1580156134d3573d6000803e3d6000fd5b505050506040513d60208110156134e957600080fd5b810190808051906020019092919050505073ffffffffffffffffffffffffffffffffffffffff1673ffffffffffffffffffffffffffffffffffffffff168152602001908152602001600020819055506135ba600480549050878161354957fe5b0460026000600560019054906101000a900473ffffffffffffffffffffffffffffffffffffffff1673ffffffffffffffffffffffffffffffffffffffff1673ffffffffffffffffffffffffffffffffffffffff1681526020019081526020016000205461441690919063ffffffff16565b60026000600560019054906101000a900473ffffffffffffffffffffffffffffffffffffffff1673ffffffffffffffffffffffffffffffffffffffff1673ffffffffffffffffffffffffffffffffffffffff16815260200190815260200160002081905550600a60009054906101000a900473ffffffffffffffffffffffffffffffffffffffff1673ffffffffffffffffffffffffffffffffffffffff1663c7a0eea9826040518263ffffffff1660e01b81526004018082815260200191505060206040518083038186803b15801561369257600080fd5b505afa1580156136a6573d6000803e3d6000fd5b505050506040513d60208110156136bc57600080fd5b810190808051906020019092919050505073ffffffffffffffffffffffffffffffffffffffff16600560019054906101000a900473ffffffffffffffffffffffffffffffffffffffff1673ffffffffffffffffffffffffffffffffffffffff167fddf252ad1be2c89b69c2b068fc378daa952ba7f163c4a11628f55a4df523b3ef600480549050898161374b57fe5b046040518082815260200191505060405180910390a35b613789606461377b60148c61217390919063ffffffff16565b6121f990919063ffffffff16565b8203811115613b93576138918560026000600a60009054906101000a900473ffffffffffffffffffffffffffffffffffffffff1673ffffffffffffffffffffffffffffffffffffffff1663c7a0eea9866040518263ffffffff1660e01b81526004018082815260200191505060206040518083038186803b15801561380d57600080fd5b505afa158015613821573d6000803e3d6000fd5b505050506040513d602081101561383757600080fd5b810190808051906020019092919050505073ffffffffffffffffffffffffffffffffffffffff1673ffffffffffffffffffffffffffffffffffffffff1681526020019081526020016000205461446090919063ffffffff16565b60026000600a60009054906101000a900473ffffffffffffffffffffffffffffffffffffffff1673ffffffffffffffffffffffffffffffffffffffff1663c7a0eea9856040518263ffffffff1660e01b81526004018082815260200191505060206040518083038186803b15801561390857600080fd5b505afa15801561391c573d6000803e3d6000fd5b505050506040513d602081101561393257600080fd5b810190808051906020019092919050505073ffffffffffffffffffffffffffffffffffffffff1673ffffffffffffffffffffffffffffffffffffffff168152602001908152602001600020819055506139f58560026000600560019054906101000a900473ffffffffffffffffffffffffffffffffffffffff1673ffffffffffffffffffffffffffffffffffffffff1673ffffffffffffffffffffffffffffffffffffffff1681526020019081526020016000205461441690919063ffffffff16565b60026000600560019054906101000a900473ffffffffffffffffffffffffffffffffffffffff1673ffffffffffffffffffffffffffffffffffffffff1673ffffffffffffffffffffffffffffffffffffffff16815260200190815260200160002081905550600a60009054906101000a900473ffffffffffffffffffffffffffffffffffffffff1673ffffffffffffffffffffffffffffffffffffffff1663c7a0eea9826040518263ffffffff1660e01b81526004018082815260200191505060206040518083038186803b158015613acd57600080fd5b505afa158015613ae1573d6000803e3d6000fd5b505050506040513d6020811015613af757600080fd5b810190808051906020019092919050505073ffffffffffffffffffffffffffffffffffffffff16600560019054906101000a900473ffffffffffffffffffffffffffffffffffffffff1673ffffffffffffffffffffffffffffffffffffffff167fddf252ad1be2c89b69c2b068fc378daa952ba7f163c4a11628f55a4df523b3ef876040518082815260200191505060405180910390a36143fa565b613bf2613bbd6064613baf601e8d61217390919063ffffffff16565b6121f990919063ffffffff16565b613be46064613bd660148e61217390919063ffffffff16565b6121f990919063ffffffff16565b61446090919063ffffffff16565b8203811115613ffc57613cfa8460026000600a60009054906101000a900473ffffffffffffffffffffffffffffffffffffffff1673ffffffffffffffffffffffffffffffffffffffff1663c7a0eea9866040518263ffffffff1660e01b81526004018082815260200191505060206040518083038186803b158015613c7657600080fd5b505afa158015613c8a573d6000803e3d6000fd5b505050506040513d6020811015613ca057600080fd5b810190808051906020019092919050505073ffffffffffffffffffffffffffffffffffffffff1673ffffffffffffffffffffffffffffffffffffffff1681526020019081526020016000205461446090919063ffffffff16565b60026000600a60009054906101000a900473ffffffffffffffffffffffffffffffffffffffff1673ffffffffffffffffffffffffffffffffffffffff1663c7a0eea9856040518263ffffffff1660e01b81526004018082815260200191505060206040518083038186803b158015613d7157600080fd5b505afa158015613d85573d6000803e3d6000fd5b505050506040513d6020811015613d9b57600080fd5b810190808051906020019092919050505073ffffffffffffffffffffffffffffffffffffffff1673ffffffffffffffffffffffffffffffffffffffff16815260200190815260200160002081905550613e5e8460026000600560019054906101000a900473ffffffffffffffffffffffffffffffffffffffff1673ffffffffffffffffffffffffffffffffffffffff1673ffffffffffffffffffffffffffffffffffffffff1681526020019081526020016000205461441690919063ffffffff16565b60026000600560019054906101000a900473ffffffffffffffffffffffffffffffffffffffff1673ffffffffffffffffffffffffffffffffffffffff1673ffffffffffffffffffffffffffffffffffffffff16815260200190815260200160002081905550600a60009054906101000a900473ffffffffffffffffffffffffffffffffffffffff1673ffffffffffffffffffffffffffffffffffffffff1663c7a0eea9826040518263ffffffff1660e01b81526004018082815260200191505060206040518083038186803b158015613f3657600080fd5b505afa158015613f4a573d6000803e3d6000fd5b505050506040513d6020811015613f6057600080fd5b810190808051906020019092919050505073ffffffffffffffffffffffffffffffffffffffff16600560019054906101000a900473ffffffffffffffffffffffffffffffffffffffff1673ffffffffffffffffffffffffffffffffffffffff167fddf252ad1be2c89b69c2b068fc378daa952ba7f163c4a11628f55a4df523b3ef866040518082815260200191505060405180910390a36143f9565b6140fb8360026000600a60009054906101000a900473ffffffffffffffffffffffffffffffffffffffff1673ffffffffffffffffffffffffffffffffffffffff1663c7a0eea9866040518263ffffffff1660e01b81526004018082815260200191505060206040518083038186803b15801561407757600080fd5b505afa15801561408b573d6000803e3d6000fd5b505050506040513d60208110156140a157600080fd5b810190808051906020019092919050505073ffffffffffffffffffffffffffffffffffffffff1673ffffffffffffffffffffffffffffffffffffffff1681526020019081526020016000205461446090919063ffffffff16565b60026000600a60009054906101000a900473ffffffffffffffffffffffffffffffffffffffff1673ffffffffffffffffffffffffffffffffffffffff1663c7a0eea9856040518263ffffffff1660e01b81526004018082815260200191505060206040518083038186803b15801561417257600080fd5b505afa158015614186573d6000803e3d6000fd5b505050506040513d602081101561419c57600080fd5b810190808051906020019092919050505073ffffffffffffffffffffffffffffffffffffffff1673ffffffffffffffffffffffffffffffffffffffff1681526020019081526020016000208190555061425f8360026000600560019054906101000a900473ffffffffffffffffffffffffffffffffffffffff1673ffffffffffffffffffffffffffffffffffffffff1673ffffffffffffffffffffffffffffffffffffffff1681526020019081526020016000205461441690919063ffffffff16565b60026000600560019054906101000a900473ffffffffffffffffffffffffffffffffffffffff1673ffffffffffffffffffffffffffffffffffffffff1673ffffffffffffffffffffffffffffffffffffffff16815260200190815260200160002081905550600a60009054906101000a900473ffffffffffffffffffffffffffffffffffffffff1673ffffffffffffffffffffffffffffffffffffffff1663c7a0eea9826040518263ffffffff1660e01b81526004018082815260200191505060206040518083038186803b15801561433757600080fd5b505afa15801561434b573d6000803e3d6000fd5b505050506040513d602081101561436157600080fd5b810190808051906020019092919050505073ffffffffffffffffffffffffffffffffffffffff16600560019054906101000a900473ffffffffffffffffffffffffffffffffffffffff1673ffffffffffffffffffffffffffffffffffffffff167fddf252ad1be2c89b69c2b068fc378daa952ba7f163c4a11628f55a4df523b3ef856040518082815260200191505060405180910390a35b5b808060019003915050613276565b5050505050505b5b5050505b565b600061445883836040518060400160405280601e81526020017f536166654d6174683a207375627472616374696f6e206f766572666c6f7700008152506145ae565b905092915050565b6000808284019050838110156144de576040517f08c379a000000000000000000000000000000000000000000000000000000000815260040180806020018281038252601b8152602001807f536166654d6174683a206164646974696f6e206f766572666c6f77000000000081525060200191505060405180910390fd5b8091505092915050565b60008083118290614594576040517f08c379a00000000000000000000000000000000000000000000000000000000081526004018080602001828103825283818151815260200191508051906020019080838360005b8381101561455957808201518184015260208101905061453e565b50505050905090810190601f1680156145865780820380516001836020036101000a031916815260200191505b509250505060405180910390fd5b5060008385816145a057fe5b049050809150509392505050565b600083831115829061465b576040517f08c379a00000000000000000000000000000000000000000000000000000000081526004018080602001828103825283818151815260200191508051906020019080838360005b83811015614620578082015181840152602081019050614605565b50505050905090810190601f16801561464d5780820380516001836020036101000a031916815260200191505b509250505060405180910390fd5b506000838503905080915050939250505056fe536166654d6174683a206d756c7469706c69636174696f6e206f766572666c6f77a2646970667358221220caa151cb88c6c137304eea81cc4417d44d64592210c6e64a245107f34b19ed5964736f6c63430007030033",
  "immutableReferences": {},
  "source": "pragma solidity 0.7.3;\r\n\r\nimport \"./IERC20.sol\";\r\nimport \"./BalanceTrackerI.sol\";\r\nimport \"./SafeMath.sol\";\r\n\r\n\r\ncontract STAIRToken is IERC20 {\r\n    \r\n    address owner;\r\n       modifier onlyOwner {\r\n        require(\r\n            msg.sender == owner\r\n        );\r\n        _;\r\n    }\r\n    \r\n    string public constant name = \"STAIR\";\r\n    string public constant symbol = \"STAIR\";\r\n    uint8 public constant decimals = 0;\r\n    uint256 totalSupply_;\r\n\r\n    mapping(address => uint256) balances;\r\n    mapping(address => mapping (address => uint256)) allowed;\r\n\r\n    \r\n    uint256 constant poolCommission = 10;\r\n    uint256 constant teamShare = 40;\r\n    uint256 constant holderShare = 60;\r\n    uint256 constant pioneerShare = 2; \r\n    uint256 constant minimumHolding = 10;\r\n    uint256 constant minimumHoldingPioneer = 2000;\r\n    \r\n    address[] pioneers;\r\n    bool feesEnabled = true;\r\n    address poolAddress;\r\n    address teamAddressA;\r\n    address teamAddressB;\r\n    address teamAddressC;\r\n    uint256  level = 100;\r\n\r\n    using SafeMath for uint256;\r\n    \r\n    BalanceTrackerI balanceTracker;\r\n\r\n   constructor(uint256 total\r\n  , address poolAddress_ ,\r\n    address teamAddressA_,\r\n    address teamAddressB_,\r\n    address teamAddressC_\r\n   ) public {\r\n    totalSupply_ = total;\r\n    balances[msg.sender] = totalSupply_;\r\n    owner = msg.sender;\r\n\r\n    poolAddress = poolAddress_;\r\n    teamAddressA = teamAddressA_; //tmp to hardcode \r\n    teamAddressB = teamAddressB_; //tmp to hardcode \r\n    teamAddressC = teamAddressC_;//tmp o hardcode \r\n    }\r\n\r\n    function totalSupply() public override view returns (uint256) {\r\n    return totalSupply_;\r\n    }\r\n\r\n    function balanceOf(address tokenOwner) public override view returns (uint256) {\r\n        return balances[tokenOwner];\r\n    }\r\n\r\n    function transfer(address receiver, uint256 numTokens) public override returns (bool) {\r\n        require(numTokens <= balances[msg.sender]);\r\n         \r\n        transfer_(msg.sender, receiver, numTokens);\r\n\r\n        \r\n        return true;\r\n    }\r\n\r\n    \r\n    function approve(address delegate, uint256 numTokens) public override returns (bool) {\r\n        allowed[msg.sender][delegate] = numTokens;\r\n        emit Approval(msg.sender, delegate, numTokens);\r\n        return true;\r\n    }\r\n\r\n    function allowance(address owner, address delegate) public override view returns (uint) {\r\n        return allowed[owner][delegate];\r\n    }\r\n\r\n    function transferFrom(address owner, address buyer, uint256 numTokens) public override returns (bool) {\r\n        require(numTokens <= balances[owner]);\r\n        require(numTokens <= allowed[owner][msg.sender]);\r\n        \r\n        transfer_(owner, buyer, numTokens);\r\n        \r\n        return true;\r\n    }\r\n    \r\n    //Overrides the superclass implementation to handle custom logic\r\n    //such as taking fees, burning tokens, and supplying liquidity to PancakeSwap\r\n    \r\n    function transfer_(address from, address to, uint256 amount) public returns(bool){\r\n        \r\n        \r\n        if(feesEnabled &&  !balanceTracker.isAddressIneligible(from)){\r\n            uint256 userTokens = amount.mul(100-poolCommission).div(100);\r\n            uint256 poolTokens = amount.mul(poolCommission).div(100);\r\n            balances[from] = balances[from].sub(amount);\r\n            balances[to] = balances[to].add(userTokens);\r\n            balances[poolAddress] = balances[poolAddress].add(poolTokens);\r\n\r\n            emit Transfer(from, to, userTokens);\r\n            emit Transfer(from, poolAddress, poolTokens);\r\n            }\r\n        else {\r\n        balances[from] = balances[from].sub(amount);\r\n        balances[to] = balances[to].add(amount);\r\n        emit Transfer(from, to, amount);\r\n        }\r\n        \r\n\r\n        balanceTracker.updateUserBalance(from);\r\n        balanceTracker.updateUserBalance(to);\r\n        \r\n        \r\n        if(balances[poolAddress] >= level) poolDispatch();\r\n     \r\n        return true;\r\n        \r\n    }\r\n \r\n    \r\n    function addPioneer(address newPioneer) public{\r\n        for (uint i=0; i<pioneers.length; i++) {\r\n            if(pioneers[i] == newPioneer) return;\r\n        }\r\n        pioneers.push(newPioneer);\r\n    }\r\n    \r\n    function isPioneer(address pionner) public returns(bool){\r\n        for (uint i=0; i<pioneers.length; i++) {\r\n            if(pioneers[i] == pionner) return true;\r\n        }\r\n        return false;\r\n    }\r\n    \r\n    \r\n    function getEligibleHolders() public view returns(uint256){\r\n        return balanceTracker.treeAbove(minimumHolding);\r\n    }\r\n\r\n    //TEMP \r\n    function top20Tokens() public view returns(uint256){\r\n        uint256 eligibleHolders = balanceTracker.treeAbove(minimumHolding);\r\n        uint256 teamTokens = balances[ poolAddress ]*teamShare/100;\r\n        uint256 holderTokens = balances[poolAddress] - teamTokens;\r\n        uint256 top20Tokens;\r\n            if (eligibleHolders.mul(20).div(100)==0)\r\n                top20Tokens = 0;\r\n            \r\n            else\r\n                top20Tokens = (holderTokens.mul(50).div(100)).div(eligibleHolders.mul(20).div(100)); \r\n           \r\n           return top20Tokens;\r\n    }\r\n    //TEMP \r\n    function top50Tokens() public view returns(uint256){\r\n        uint256 eligibleHolders = balanceTracker.treeAbove(minimumHolding);\r\n        uint256 teamTokens = balances[ poolAddress ]*teamShare/100;\r\n        uint256 holderTokens = balances[poolAddress] - teamTokens;\r\n        uint256 top50Tokens;\r\n        uint256 top20Tokens = top20Tokens();\r\n        uint256 percent = 30;\r\n        \r\n         \r\n            if (eligibleHolders.mul(30).div(100)==0)\r\n                top50Tokens = 0;\r\n            \r\n            else\r\n                top50Tokens = (holderTokens.mul(30).div(100)).div(eligibleHolders.mul(30).div(100)); \r\n\r\n            return top50Tokens;\r\n           \r\n    }\r\n    //TEMP \r\n    function top100Tokens() public view returns(uint256){\r\n        uint256 eligibleHolders = balanceTracker.treeAbove(minimumHolding);\r\n        uint256 teamTokens = balances[ poolAddress ]*teamShare/100;\r\n        uint256 holderTokens = balances[poolAddress] - teamTokens;\r\n        uint256 top100Tokens;\r\n            if (eligibleHolders.mul(50).div(100)==0)\r\n                top100Tokens = 0;\r\n            \r\n            else\r\n                top100Tokens = (holderTokens.mul(18).div(100)).div(  eligibleHolders.sub(eligibleHolders.mul(30).div(100)).sub(eligibleHolders.mul(20).div(100))   ); \r\n\r\n           return top100Tokens;\r\n    }\r\n\r\n\r\n    function poolDispatch() private{\r\n       \r\n        uint256 eligibleHolders = balanceTracker.treeAbove(minimumHolding);\r\n        uint256 teamTokens = balances[ poolAddress ]*teamShare/100;\r\n        uint256 holderTokens = balances[poolAddress] - teamTokens;\r\n        \r\n        \r\n        balances[teamAddressA] =  balances[teamAddressA].add(teamTokens.mul(45).div(100));\r\n        balances[teamAddressB] =  balances[teamAddressB].add(teamTokens.mul(35).div(100));\r\n        balances[teamAddressC] =  balances[teamAddressC].add(teamTokens.mul(20).div(100));\r\n        balances[poolAddress] =  balances[ poolAddress ].sub( teamTokens );\r\n        \r\n        if(eligibleHolders == 0) return;\r\n        \r\n        else if(eligibleHolders == 1){\r\n            balances[balanceTracker.getUserAtRank(1)] = balances[balanceTracker.getUserAtRank(1)].add(holderTokens);\r\n            balances[poolAddress] = balances[poolAddress].sub(holderTokens);\r\n        }\r\n        \r\n        else if(eligibleHolders ==2){\r\n            balances[balanceTracker.getUserAtRank(1)] = balances[balanceTracker.getUserAtRank(1)].add(holderTokens/2);\r\n            balances[balanceTracker.getUserAtRank(2)] = balances[balanceTracker.getUserAtRank(2)].add(holderTokens/2);\r\n            balances[poolAddress] = balances[poolAddress].sub(holderTokens);\r\n        \r\n        }\r\n        else{\r\n             uint256 pioneersTokens= holderTokens.mul(pioneerShare).div(100);\r\n             holderTokens = holderTokens.sub(pioneersTokens);\r\n             \r\n            // Calculate token alocation\r\n            uint256 top20Tokens;\r\n            uint256 top50Tokens;\r\n            uint256 top100Tokens ;\r\n\r\n            if (eligibleHolders.mul(20).div(100)==0)\r\n                top20Tokens = 0;\r\n            else\r\n                top20Tokens = (holderTokens.mul(50).div(100)).div(eligibleHolders.mul(20).div(100)); \r\n\r\n             if (eligibleHolders.mul(30).div(100)==0)\r\n                top50Tokens = 0;\r\n            else\r\n                top50Tokens = (holderTokens.mul(30).div(100)).div(eligibleHolders.mul(30).div(100)); \r\n\r\n             if (eligibleHolders.mul(50).div(100)==0)\r\n                top100Tokens = 0;\r\n            else\r\n                top100Tokens = (holderTokens.mul(18).div(100)).div(  eligibleHolders.sub(eligibleHolders.mul(30).div(100)).sub(eligibleHolders.mul(20).div(100))   );\r\n            \r\n             \r\n            uint256 treeCount = balanceTracker.treeCount();\r\n            for (uint256 i=treeCount; i>treeCount-eligibleHolders; i--) {\r\n                 \r\n                \r\n                if(isPioneer(balanceTracker.getUserAtRank(i))){\r\n                    balances[balanceTracker.getUserAtRank(i)] = balances[balanceTracker.getUserAtRank(i)].add( pioneersTokens / pioneers.length );\r\n                    balances[poolAddress] =  balances[ poolAddress ].sub( pioneersTokens /  pioneers.length );\r\n                    emit Transfer(poolAddress, balanceTracker.getUserAtRank(i), pioneersTokens /  pioneers.length);\r\n                }\r\n                \r\n                \r\n                if(i > treeCount - eligibleHolders.mul(20).div(100) ){\r\n                    \r\n                    balances[balanceTracker.getUserAtRank(i)] = balances[balanceTracker.getUserAtRank(i)].add( top20Tokens );\r\n                    balances[poolAddress] =  balances[ poolAddress ].sub( top20Tokens );\r\n                    emit Transfer(poolAddress, balanceTracker.getUserAtRank(i), top20Tokens);\r\n                    \r\n                }\r\n                else if(i > treeCount - eligibleHolders.mul(20).div(100).add( eligibleHolders.mul(30).div(100) ) ){\r\n\r\n                    balances[balanceTracker.getUserAtRank(i)] = balances[balanceTracker.getUserAtRank(i)].add( top50Tokens );\r\n                    balances[poolAddress] =  balances[ poolAddress ].sub( top50Tokens );\r\n                    emit Transfer(poolAddress, balanceTracker.getUserAtRank(i), top50Tokens);\r\n                }\r\n                else{\r\n\r\n                    balances[balanceTracker.getUserAtRank(i)] = balances[balanceTracker.getUserAtRank(i)].add( top100Tokens );\r\n                    balances[poolAddress] =  balances[ poolAddress ].sub( top100Tokens );\r\n                    emit Transfer(poolAddress, balanceTracker.getUserAtRank(i), top100Tokens);\r\n                }\r\n                \r\n                \r\n \r\n                     \r\n            }\r\n        }\r\n\r\n        \r\n    }\r\n    \r\n    function forceDispatch() public onlyOwner{\r\n        poolDispatch();\r\n        \r\n    }\r\n        //getters\r\n    \r\n   \r\n    //tmp\r\n    function getPoolBalance() public  view returns (uint256) {\r\n    return balances[poolAddress];\r\n    }\r\n    //tmp\r\n    function getPoolAddress() public  view returns (address) {\r\n    return poolAddress;\r\n    }\r\n    \r\n    function getLevel() public  view returns (uint256) {\r\n    return level;\r\n    }\r\n    \r\n    function enableFees() public view returns(bool){\r\n        return feesEnabled;\r\n    }\r\n    \r\n    \r\n    //setters (owner)\r\n    //tmp\r\n    function setPoolAddress(address addr) public onlyOwner{\r\n        poolAddress = addr;\r\n        balanceTracker.makeAddressIneligible(addr);\r\n    }\r\n    \r\n    \r\n    function enableFees(bool enable) public onlyOwner{\r\n        feesEnabled = enable;\r\n    }\r\n    \r\n    function setLevel(uint256 level_) public onlyOwner{\r\n        level = level_;\r\n    }\r\n    \r\n    function setBalanceTracker(address addr) public onlyOwner{\r\n        balanceTracker = BalanceTrackerI(addr);\r\n    }\r\n    \r\n    function burn(uint256 amount) public onlyOwner{\r\n        balances[msg.sender] = balances[msg.sender].sub(amount);\r\n        totalSupply_ = totalSupply_.sub(amount);\r\n    }\r\n    \r\n    \r\n    \r\n}\r\n\r\n\r\n\r\n ",
  "sourcePath": "C:/Users/slima/dev/StairToken/truffle_project/contracts/StairToken.sol",
  "compiler": {
    "name": "solc",
    "version": "0.7.3+commit.9bfce1f6.Emscripten.clang"
  },
  "schemaVersion": "3.4.0",
  "updatedAt": "2021-05-07T13:07:11.271Z",
  "devdoc": {
    "kind": "dev",
    "methods": {},
    "version": 1
  },
  "userdoc": {
    "kind": "user",
    "methods": {},
    "version": 1
  }
}